{
  "contractName": "BCar",
  "abi": [
    {
      "anonymous": false,
      "inputs": [
        {
          "indexed": false,
          "internalType": "uint256",
          "name": "friend_key",
          "type": "uint256"
        },
        {
          "indexed": false,
          "internalType": "string",
          "name": "name",
          "type": "string"
        }
      ],
      "name": "AddFriend",
      "type": "event"
    },
    {
      "anonymous": false,
      "inputs": [
        {
          "indexed": false,
          "internalType": "bool",
          "name": "isUserLoggedIn",
          "type": "bool"
        }
      ],
      "name": "LogoutUser",
      "type": "event"
    },
    {
      "anonymous": false,
      "inputs": [
        {
          "indexed": false,
          "internalType": "string",
          "name": "_nam",
          "type": "string"
        },
        {
          "indexed": false,
          "internalType": "uint256",
          "name": "_nic",
          "type": "uint256"
        },
        {
          "indexed": false,
          "internalType": "string",
          "name": "u_cont",
          "type": "string"
        },
        {
          "indexed": false,
          "internalType": "string",
          "name": "u_pass",
          "type": "string"
        }
      ],
      "name": "userSignedUp",
      "type": "event"
    },
    {
      "constant": true,
      "inputs": [
        {
          "internalType": "uint256",
          "name": "",
          "type": "uint256"
        }
      ],
      "name": "friendList",
      "outputs": [
        {
          "internalType": "uint256",
          "name": "f_nic",
          "type": "uint256"
        },
        {
          "internalType": "string",
          "name": "f_name",
          "type": "string"
        }
      ],
      "payable": false,
      "stateMutability": "view",
      "type": "function"
    },
    {
      "constant": true,
      "inputs": [
        {
          "internalType": "uint256",
          "name": "",
          "type": "uint256"
        }
      ],
      "name": "userList",
      "outputs": [
        {
          "internalType": "uint256",
          "name": "u_nic",
          "type": "uint256"
        },
        {
          "internalType": "string",
          "name": "u_name",
          "type": "string"
        },
        {
          "internalType": "string",
          "name": "u_contact",
          "type": "string"
        },
        {
          "internalType": "string",
          "name": "u_address",
          "type": "string"
        },
        {
          "internalType": "string",
          "name": "u_password",
          "type": "string"
        },
        {
          "internalType": "bool",
          "name": "isLoggedIn",
          "type": "bool"
        }
      ],
      "payable": false,
      "stateMutability": "view",
      "type": "function"
    },
    {
      "constant": false,
      "inputs": [
        {
          "internalType": "uint256",
          "name": "_nic",
          "type": "uint256"
        },
        {
          "internalType": "string",
          "name": "_nam",
          "type": "string"
        },
        {
          "internalType": "string",
          "name": "_cont",
          "type": "string"
        },
        {
          "internalType": "string",
          "name": "_addr",
          "type": "string"
        },
        {
          "internalType": "string",
          "name": "_pass",
          "type": "string"
        }
      ],
      "name": "signUp",
      "outputs": [
        {
          "internalType": "bool",
          "name": "",
          "type": "bool"
        }
      ],
      "payable": false,
      "stateMutability": "nonpayable",
      "type": "function"
    },
    {
      "constant": false,
      "inputs": [
        {
          "internalType": "uint256",
          "name": "_nic",
          "type": "uint256"
        },
        {
          "internalType": "string",
          "name": "_pass",
          "type": "string"
        }
      ],
      "name": "LogIn",
      "outputs": [
        {
          "internalType": "string",
          "name": "",
          "type": "string"
        }
      ],
      "payable": false,
      "stateMutability": "nonpayable",
      "type": "function"
    },
    {
      "constant": false,
      "inputs": [
        {
          "internalType": "uint256",
          "name": "_nic",
          "type": "uint256"
        }
      ],
      "name": "LogOut",
      "outputs": [
        {
          "internalType": "bool",
          "name": "",
          "type": "bool"
        }
      ],
      "payable": false,
      "stateMutability": "nonpayable",
      "type": "function"
    },
    {
      "constant": false,
      "inputs": [
        {
          "internalType": "uint256",
          "name": "_nic",
          "type": "uint256"
        },
        {
          "internalType": "uint256",
          "name": "f_nic",
          "type": "uint256"
        },
        {
          "internalType": "string",
          "name": "f_name",
          "type": "string"
        }
      ],
      "name": "addNewFriend",
      "outputs": [],
      "payable": false,
      "stateMutability": "nonpayable",
      "type": "function"
    },
    {
      "constant": true,
      "inputs": [
        {
          "internalType": "uint256",
          "name": "_nic",
          "type": "uint256"
        },
        {
          "internalType": "uint256",
          "name": "f_nic",
          "type": "uint256"
        }
      ],
      "name": "areFriends",
      "outputs": [
        {
          "internalType": "bool",
          "name": "",
          "type": "bool"
        }
      ],
      "payable": false,
      "stateMutability": "view",
      "type": "function"
    },
    {
      "constant": true,
      "inputs": [
        {
          "internalType": "uint256",
          "name": "_nic",
          "type": "uint256"
        }
      ],
      "name": "isUserExist",
      "outputs": [
        {
          "internalType": "bool",
          "name": "",
          "type": "bool"
        }
      ],
      "payable": false,
      "stateMutability": "view",
      "type": "function"
    },
    {
      "constant": true,
      "inputs": [
        {
          "internalType": "uint256",
          "name": "_nic",
          "type": "uint256"
        }
      ],
      "name": "isLoggedIn",
      "outputs": [
        {
          "internalType": "bool",
          "name": "",
          "type": "bool"
        }
      ],
      "payable": false,
      "stateMutability": "view",
      "type": "function"
    }
  ],
  "bytecode": "0x608060405234801561001057600080fd5b50611977806100206000396000f3fe608060405234801561001057600080fd5b50600436106100935760003560e01c80636e7a7a74116100665780636e7a7a741461056c5780639f4216e8146105b2578063ac56730f146107af578063b312b5bc146107f5578063edf6a3d41461088257610093565b806321668a011461009857806326344c8b14610146578063314c4ff91461018c5780635724d5d3146102ca575b600080fd5b6100c4600480360360208110156100ae57600080fd5b81019080803590602001909291905050506108d2565b6040518083815260200180602001828103825283818151815260200191508051906020019080838360005b8381101561010a5780820151818401526020810190506100ef565b50505050905090810190601f1680156101375780820380516001836020036101000a031916815260200191505b50935050505060405180910390f35b6101726004803603602081101561015c57600080fd5b810190808035906020019092919050505061098e565b604051808215151515815260200191505060405180910390f35b61024f600480360360408110156101a257600080fd5b8101908080359060200190929190803590602001906401000000008111156101c957600080fd5b8201836020820111156101db57600080fd5b803590602001918460018302840111640100000000831117156101fd57600080fd5b91908080601f016020809104026020016040519081016040528093929190818152602001838380828437600081840152601f19601f8201169050808301925050505050505091929192905050506109ba565b6040518080602001828103825283818151815260200191508051906020019080838360005b8381101561028f578082015181840152602081019050610274565b50505050905090810190601f1680156102bc5780820380516001836020036101000a031916815260200191505b509250505060405180910390f35b610552600480360360a08110156102e057600080fd5b81019080803590602001909291908035906020019064010000000081111561030757600080fd5b82018360208201111561031957600080fd5b8035906020019184600183028401116401000000008311171561033b57600080fd5b91908080601f016020809104026020016040519081016040528093929190818152602001838380828437600081840152601f19601f8201169050808301925050505050505091929192908035906020019064010000000081111561039e57600080fd5b8201836020820111156103b057600080fd5b803590602001918460018302840111640100000000831117156103d257600080fd5b91908080601f016020809104026020016040519081016040528093929190818152602001838380828437600081840152601f19601f8201169050808301925050505050505091929192908035906020019064010000000081111561043557600080fd5b82018360208201111561044757600080fd5b8035906020019184600183028401116401000000008311171561046957600080fd5b91908080601f016020809104026020016040519081016040528093929190818152602001838380828437600081840152601f19601f820116905080830192505050505050509192919290803590602001906401000000008111156104cc57600080fd5b8201836020820111156104de57600080fd5b8035906020019184600183028401116401000000008311171561050057600080fd5b91908080601f016020809104026020016040519081016040528093929190818152602001838380828437600081840152601f19601f820116905080830192505050505050509192919290505050610c63565b604051808215151515815260200191505060405180910390f35b6105986004803603602081101561058257600080fd5b8101908080359060200190929190505050610f5c565b604051808215151515815260200191505060405180910390f35b6105de600480360360208110156105c857600080fd5b8101908080359060200190929190505050611048565b60405180878152602001806020018060200180602001806020018615151515815260200185810385528a818151815260200191508051906020019080838360005b8381101561063a57808201518184015260208101905061061f565b50505050905090810190601f1680156106675780820380516001836020036101000a031916815260200191505b50858103845289818151815260200191508051906020019080838360005b838110156106a0578082015181840152602081019050610685565b50505050905090810190601f1680156106cd5780820380516001836020036101000a031916815260200191505b50858103835288818151815260200191508051906020019080838360005b838110156107065780820151818401526020810190506106eb565b50505050905090810190601f1680156107335780820380516001836020036101000a031916815260200191505b50858103825287818151815260200191508051906020019080838360005b8381101561076c578082015181840152602081019050610751565b50505050905090810190601f1680156107995780820380516001836020036101000a031916815260200191505b509a505050505050505050505060405180910390f35b6107db600480360360208110156107c557600080fd5b81019080803590602001909291905050506112f1565b604051808215151515815260200191505060405180910390f35b6108806004803603606081101561080b57600080fd5b8101908080359060200190929190803590602001909291908035906020019064010000000081111561083c57600080fd5b82018360208201111561084e57600080fd5b8035906020019184600183028401116401000000008311171561087057600080fd5b9091929391929390505050611326565b005b6108b86004803603604081101561089857600080fd5b810190808035906020019092919080359060200190929190505050611653565b604051808215151515815260200191505060405180910390f35b6001602052806000526040600020600091509050806000015490806001018054600181600116156101000203166002900480601f0160208091040260200160405190810160405280929190818152602001828054600181600116156101000203166002900480156109845780601f1061095957610100808354040283529160200191610984565b820191906000526020600020905b81548152906001019060200180831161096757829003601f168201915b5050505050905082565b600080600083815260200190815260200160002060050160009054906101000a900460ff169050919050565b60606109c5836112f1565b610a37576040517f08c379a000000000000000000000000000000000000000000000000000000000815260040180806020018281038252600c8152602001807f557365722065786973747321000000000000000000000000000000000000000081525060200191505060405180910390fd5b610a408361098e565b15610ab3576040517f08c379a000000000000000000000000000000000000000000000000000000000815260040180806020018281038252601a8152602001807f596f752061726520416c7265616479204c6f6767656420496e2100000000000081525060200191505060405180910390fd5b6000808481526020019081526020016000206004016040516020018082805460018160011615610100020316600290048015610b265780601f10610b04576101008083540402835291820191610b26565b820191906000526020600020905b815481529060010190602001808311610b12575b505091505060405160208183030381529060405280519060200120826040516020018082805190602001908083835b60208310610b785780518252602082019150602081019050602083039250610b55565b6001836020036101000a038019825116818451168082178552505050505050905001915050604051602081830303815290604052805190602001201415610c2457600160008085815260200190815260200160002060050160006101000a81548160ff0219169083151502179055506040518060400160405280600781526020017f53756363657373000000000000000000000000000000000000000000000000008152509050610c5d565b6040518060400160405280600681526020017f4661696c6564000000000000000000000000000000000000000000000000000081525090505b92915050565b6000610c6e866112f1565b15610ce1576040517f08c379a00000000000000000000000000000000000000000000000000000000081526004018080602001828103825260148152602001807f5573657220616c7265616479206578697374732100000000000000000000000081525060200191505060405180910390fd5b8560008088815260200190815260200160002060000181905550846000808881526020019081526020016000206001019080519060200190610d249291906117ac565b50836000808881526020019081526020016000206002019080519060200190610d4e9291906117ac565b50826000808881526020019081526020016000206003019080519060200190610d789291906117ac565b50816000808881526020019081526020016000206004019080519060200190610da29291906117ac565b50600160008088815260200190815260200160002060050160006101000a81548160ff0219169083151502179055507ff4f62c47f24224b311017882c675231104f94c03da61192ac4312d300a7996398587868560405180806020018581526020018060200180602001848103845288818151815260200191508051906020019080838360005b83811015610e44578082015181840152602081019050610e29565b50505050905090810190601f168015610e715780820380516001836020036101000a031916815260200191505b50848103835286818151815260200191508051906020019080838360005b83811015610eaa578082015181840152602081019050610e8f565b50505050905090810190601f168015610ed75780820380516001836020036101000a031916815260200191505b50848103825285818151815260200191508051906020019080838360005b83811015610f10578082015181840152602081019050610ef5565b50505050905090810190601f168015610f3d5780820380516001836020036101000a031916815260200191505b5097505050505050505060405180910390a16001905095945050505050565b6000610f678261098e565b610fd9576040517f08c379a00000000000000000000000000000000000000000000000000000000081526004018080602001828103825260198152602001807f596f75204e65656420546f204c6f6720496e204669727374210000000000000081525060200191505060405180910390fd5b600080600084815260200190815260200160002060050160006101000a81548160ff0219169083151502179055507f63ec3f4df310cbea2a7bef14e7983a49708f46e93064cfbc28087a44a6ea24f46000604051808215151515815260200191505060405180910390a1919050565b6000602052806000526040600020600091509050806000015490806001018054600181600116156101000203166002900480601f0160208091040260200160405190810160405280929190818152602001828054600181600116156101000203166002900480156110fa5780601f106110cf576101008083540402835291602001916110fa565b820191906000526020600020905b8154815290600101906020018083116110dd57829003601f168201915b505050505090806002018054600181600116156101000203166002900480601f0160208091040260200160405190810160405280929190818152602001828054600181600116156101000203166002900480156111985780601f1061116d57610100808354040283529160200191611198565b820191906000526020600020905b81548152906001019060200180831161117b57829003601f168201915b505050505090806003018054600181600116156101000203166002900480601f0160208091040260200160405190810160405280929190818152602001828054600181600116156101000203166002900480156112365780601f1061120b57610100808354040283529160200191611236565b820191906000526020600020905b81548152906001019060200180831161121957829003601f168201915b505050505090806004018054600181600116156101000203166002900480601f0160208091040260200160405190810160405280929190818152602001828054600181600116156101000203166002900480156112d45780601f106112a9576101008083540402835291602001916112d4565b820191906000526020600020905b8154815290600101906020018083116112b757829003601f168201915b5050505050908060050160009054906101000a900460ff16905086565b600080600080848152602001908152602001600020600101805460018160011615610100020316600290049050119050919050565b61132f8461098e565b6113a1576040517f08c379a00000000000000000000000000000000000000000000000000000000081526004018080602001828103825260198152602001807f596f75204e65656420546f204c6f6720496e204669727374210000000000000081525060200191505060405180910390fd5b6113aa836112f1565b6113ff576040517f08c379a00000000000000000000000000000000000000000000000000000000081526004018080602001828103825260308152602001806118ec6030913960400191505060405180910390fd5b82841415611458576040517f08c379a000000000000000000000000000000000000000000000000000000000815260040180806020018281038252602781526020018061191c6027913960400191505060405180910390fd5b600015156114668585611653565b1515146114db576040517f08c379a00000000000000000000000000000000000000000000000000000000081526004018080602001828103825260208152602001807f54686573652075736572732061726520616c726561647920667269656e64732181525060200191505060405180910390fd5b61152a848484848080601f016020809104026020016040519081016040528093929190818152602001838380828437600081840152601f19601f8201169050808301925050505050505061171c565b6115e283856000808881526020019081526020016000206001018054600181600116156101000203166002900480601f0160208091040260200160405190810160405280929190818152602001828054600181600116156101000203166002900480156115d85780601f106115ad576101008083540402835291602001916115d8565b820191906000526020600020905b8154815290600101906020018083116115bb57829003601f168201915b505050505061171c565b7fe514c4afa30880e1ca9b0dc7a1cb62a81ff9cab2e30c36cea191354f50ff66b283838360405180848152602001806020018281038252848482818152602001925080828437600081840152601f19601f82011690508083019250505094505050505060405180910390a150505050565b60008060008381526020019081526020016000206006018054905060008085815260200190815260200160002060060180549050111561169a576000839050829350809250505b60008090505b60008085815260200190815260200160002060060180549050811015611710578260008086815260200190815260200160002060060182815481106116e157fe5b9060005260206000209060020201600001541415611703576001915050611716565b80806001019150506116a0565b50600090505b92915050565b61172461182c565b604051806040016040528084815260200183815250905060008085815260200190815260200160002060060181908060018154018082558091505090600182039060005260206000209060020201600090919290919091506000820151816000015560208201518160010190805190602001906117a2929190611846565b5050505050505050565b828054600181600116156101000203166002900490600052602060002090601f016020900481019282601f106117ed57805160ff191683800117855561181b565b8280016001018555821561181b579182015b8281111561181a5782518255916020019190600101906117ff565b5b50905061182891906118c6565b5090565b604051806040016040528060008152602001606081525090565b828054600181600116156101000203166002900490600052602060002090601f016020900481019282601f1061188757805160ff19168380011785556118b5565b828001600101855582156118b5579182015b828111156118b4578251825591602001919060010190611899565b5b5090506118c291906118c6565b5090565b6118e891905b808211156118e45760008160009055506001016118cc565b5090565b9056fe596f757220466972656e6420446f6573204e6f7420526567697374657265642057697468205468652053797374656d21557365722063616e6e6f74206164642068696d2f6865722073656c6620617320667269656e6421a265627a7a72315820557f77bc10a0c4bae6857ab8889e6382a9180bb57236682c426e97523d9caf0564736f6c63430005100032",
  "source": "// SPDX-License-Identifier: MIT\npragma solidity >=0.4.22 <0.9.0;\n\ncontract BCar {\n  // Chat Module\n  /**\n  *? User=> :SignUp /, :LogIn/, :LogOut /\n   */\n  \n   struct User {\n    uint u_nic;\n    string u_name;\n    string u_contact;\n    string u_address;\n    string u_password;\n    bool isLoggedIn;\n    Friend[] friendList;\n    // vehicle[] vehicleList;\n   }\n   \n  //  event is a log creates on trigger. \n   event userSignedUp(string _nam, uint _nic, string u_cont, string u_pass);\n   event LogoutUser(bool isUserLoggedIn);\n\n   mapping (uint=>User) public userList;\n\n   function signUp(uint _nic, string memory _nam, string memory _cont, string memory _addr, string memory _pass) public returns (bool) {\n    require(!isUserExist(_nic),  \"User already exists!\");\n    \n    userList[_nic].u_nic = _nic;\n    userList[_nic].u_name = _nam;\n    userList[_nic].u_contact = _cont;\n    userList[_nic].u_address = _addr;\n    userList[_nic].u_password = _pass;\n    userList[_nic].isLoggedIn = true;\n\n    emit userSignedUp(_nam, _nic, _cont, _pass);\n\n    return true;\n   }\n\n   function LogIn(uint _nic, string memory _pass) public returns (string memory) {\n    require(isUserExist(_nic),  \"User exists!\");\n    require(!isLoggedIn(_nic), \"You are Already Logged In!\");\n    if (keccak256(abi.encodePacked(_pass)) ==\n                keccak256(abi.encodePacked(userList[_nic].u_password))) {\n                  // if user exists and password is correct\n                  userList[_nic].isLoggedIn = true;\n      return 'Success';\n    }    \n    // if user exists and password is incorrect\n    return 'Failed';\n   }\n    \n    function LogOut(uint _nic) public returns (bool) {\n      require(isLoggedIn(_nic), \"You Need To Log In First!\");\n      userList[_nic].isLoggedIn = false;\n      emit LogoutUser(false);\n    }\n\n    /**\n  *? Friends=> :addNewFriend , :checkAlreadyFriends , :LoopOnFriend \n   */\n\n    // Each friend is identified by its address and name assigned by the second party\n    struct Friend {\n        uint f_nic;\n        string f_name;\n    }\n\n    event AddFriend(uint friend_key, string name);\n\n    mapping (uint=>Friend) public friendList;\n  \n   function addNewFriend(uint _nic, uint f_nic, string calldata f_name) external {\n    require(isLoggedIn(_nic), \"You Need To Log In First!\");\n    require(isUserExist(f_nic),  \"Your Firend Does Not Registered With The System!\");\n    require(_nic!=f_nic, \"User cannot add him/her self as friend!\");\n    require(areFriends(_nic,f_nic)==false, \"These users are already friends!\");\n\n    _addFriend(_nic, f_nic, f_name);\n    _addFriend(f_nic, _nic, userList[_nic].u_name);\n    emit AddFriend(f_nic, f_name);\n   }\n\n  function areFriends(uint _nic, uint f_nic) public view returns (bool) {\n    // if the list of user is greater then the list of friend\n    if(userList[_nic].friendList.length > userList[f_nic].friendList.length){\n      uint tmp = _nic;\n      _nic = f_nic;\n      f_nic = tmp;\n    }\n    // the loop will run on bigger list\n    for (uint256 i = 0; i < userList[_nic].friendList.length; i++) {\n      if(userList[_nic].friendList[i].f_nic == f_nic)\n      return true;\n    }\n    return false;\n  }\n   \n  // A helper function to update the friendList\n  function _addFriend(uint me, uint friend_key, string memory name) internal {\n    // create new object of type friend\n      Friend memory newFriend = Friend(friend_key,name);\n      // add newly created obj to friend list of user\n      userList[me].friendList.push(newFriend);\n  }\n   \n/** \n *? general purpose functions =>  :Loop, :isExists/, :isLoggedIn/\n */\n\n   function isUserExist(uint _nic) public view returns (bool) {\n    return bytes(userList[_nic].u_name).length > 0;\n   }\n\n   function isLoggedIn(uint _nic) public view returns (bool) {\n    return userList[_nic].isLoggedIn;\n   }\n\n}\n",
  "sourcePath": "C:\\xampp\\htdocs\\my_working_dir\\block-chain\\bcar1.0\\contracts\\BCar.sol",
  "compiler": {
    "name": "solc",
    "version": "0.5.16+commit.9c3226ce.Emscripten.clang"
  },
  "schemaVersion": "3.4.10",
  "updatedAt": "2022-12-11T13:35:32.694Z",
  "networkType": "ethereum",
  "devdoc": {
    "methods": {}
  },
  "userdoc": {
    "methods": {
      "isUserExist(uint256)": {
        "notice": "general purpose functions =>  :Loop, :isExists/, :isLoggedIn/"
      }
    }
  }
}