{
  "contractName": "BCar",
  "abi": [
    {
      "anonymous": false,
      "inputs": [
        {
          "indexed": false,
          "internalType": "uint256",
          "name": "friend_key",
          "type": "uint256"
        },
        {
          "indexed": false,
          "internalType": "string",
          "name": "name",
          "type": "string"
        }
      ],
      "name": "AddFriend",
      "type": "event"
    },
    {
      "anonymous": false,
      "inputs": [
        {
          "indexed": false,
          "internalType": "bool",
          "name": "isUserLoggedIn",
          "type": "bool"
        }
      ],
      "name": "LogoutUser",
      "type": "event"
    },
    {
      "anonymous": false,
      "inputs": [
        {
          "indexed": false,
          "internalType": "uint256",
          "name": "sender_key",
          "type": "uint256"
        },
        {
          "indexed": false,
          "internalType": "uint256",
          "name": "friend_key",
          "type": "uint256"
        },
        {
          "indexed": false,
          "internalType": "string",
          "name": "msg",
          "type": "string"
        }
      ],
      "name": "SendMessage",
      "type": "event"
    },
    {
      "anonymous": false,
      "inputs": [
        {
          "indexed": false,
          "internalType": "string",
          "name": "v_no",
          "type": "string"
        },
        {
          "indexed": false,
          "internalType": "string",
          "name": "e_no",
          "type": "string"
        },
        {
          "indexed": false,
          "internalType": "string",
          "name": "company",
          "type": "string"
        },
        {
          "indexed": false,
          "internalType": "string",
          "name": "modal",
          "type": "string"
        },
        {
          "indexed": false,
          "internalType": "string",
          "name": "year",
          "type": "string"
        },
        {
          "indexed": false,
          "internalType": "bool",
          "name": "reg_with_owner",
          "type": "bool"
        }
      ],
      "name": "newVehicleAdded",
      "type": "event"
    },
    {
      "anonymous": false,
      "inputs": [
        {
          "indexed": false,
          "internalType": "string",
          "name": "_nam",
          "type": "string"
        },
        {
          "indexed": false,
          "internalType": "uint256",
          "name": "_nic",
          "type": "uint256"
        },
        {
          "indexed": false,
          "internalType": "string",
          "name": "u_cont",
          "type": "string"
        },
        {
          "indexed": false,
          "internalType": "string",
          "name": "u_pass",
          "type": "string"
        }
      ],
      "name": "userSignedUp",
      "type": "event"
    },
    {
      "inputs": [
        {
          "internalType": "uint256",
          "name": "",
          "type": "uint256"
        }
      ],
      "name": "friendList",
      "outputs": [
        {
          "internalType": "uint256",
          "name": "f_nic",
          "type": "uint256"
        },
        {
          "internalType": "string",
          "name": "f_name",
          "type": "string"
        }
      ],
      "stateMutability": "view",
      "type": "function",
      "constant": true
    },
    {
      "inputs": [
        {
          "internalType": "uint256",
          "name": "",
          "type": "uint256"
        }
      ],
      "name": "userList",
      "outputs": [
        {
          "internalType": "uint256",
          "name": "u_nic",
          "type": "uint256"
        },
        {
          "internalType": "string",
          "name": "u_name",
          "type": "string"
        },
        {
          "internalType": "string",
          "name": "u_contact",
          "type": "string"
        },
        {
          "internalType": "string",
          "name": "u_address",
          "type": "string"
        },
        {
          "internalType": "string",
          "name": "u_password",
          "type": "string"
        },
        {
          "internalType": "bool",
          "name": "isLoggedIn",
          "type": "bool"
        }
      ],
      "stateMutability": "view",
      "type": "function",
      "constant": true
    },
    {
      "inputs": [
        {
          "internalType": "string",
          "name": "",
          "type": "string"
        }
      ],
      "name": "vehicleList",
      "outputs": [
        {
          "internalType": "string",
          "name": "v_no",
          "type": "string"
        },
        {
          "internalType": "string",
          "name": "e_no",
          "type": "string"
        },
        {
          "internalType": "string",
          "name": "company",
          "type": "string"
        },
        {
          "internalType": "string",
          "name": "modal",
          "type": "string"
        },
        {
          "internalType": "string",
          "name": "year",
          "type": "string"
        },
        {
          "internalType": "bool",
          "name": "reg_with_owner",
          "type": "bool"
        }
      ],
      "stateMutability": "view",
      "type": "function",
      "constant": true
    },
    {
      "inputs": [
        {
          "internalType": "uint256",
          "name": "_nic",
          "type": "uint256"
        },
        {
          "internalType": "string",
          "name": "_nam",
          "type": "string"
        },
        {
          "internalType": "string",
          "name": "_cont",
          "type": "string"
        },
        {
          "internalType": "string",
          "name": "_addr",
          "type": "string"
        },
        {
          "internalType": "string",
          "name": "_pass",
          "type": "string"
        }
      ],
      "name": "signUp",
      "outputs": [
        {
          "internalType": "bool",
          "name": "",
          "type": "bool"
        }
      ],
      "stateMutability": "nonpayable",
      "type": "function"
    },
    {
      "inputs": [
        {
          "internalType": "uint256",
          "name": "_nic",
          "type": "uint256"
        },
        {
          "internalType": "string",
          "name": "_pass",
          "type": "string"
        }
      ],
      "name": "LogIn",
      "outputs": [
        {
          "internalType": "bool",
          "name": "",
          "type": "bool"
        }
      ],
      "stateMutability": "nonpayable",
      "type": "function"
    },
    {
      "inputs": [
        {
          "internalType": "uint256",
          "name": "_nic",
          "type": "uint256"
        }
      ],
      "name": "LogOut",
      "outputs": [
        {
          "internalType": "bool",
          "name": "",
          "type": "bool"
        }
      ],
      "stateMutability": "nonpayable",
      "type": "function"
    },
    {
      "inputs": [
        {
          "internalType": "uint256",
          "name": "_nic",
          "type": "uint256"
        }
      ],
      "name": "getFriendsList",
      "outputs": [
        {
          "components": [
            {
              "internalType": "uint256",
              "name": "f_nic",
              "type": "uint256"
            },
            {
              "internalType": "string",
              "name": "f_name",
              "type": "string"
            }
          ],
          "internalType": "struct BCar.Friend[]",
          "name": "",
          "type": "tuple[]"
        }
      ],
      "stateMutability": "view",
      "type": "function",
      "constant": true
    },
    {
      "inputs": [
        {
          "internalType": "uint256",
          "name": "_nic",
          "type": "uint256"
        },
        {
          "internalType": "uint256",
          "name": "f_nic",
          "type": "uint256"
        },
        {
          "internalType": "string",
          "name": "f_name",
          "type": "string"
        }
      ],
      "name": "addNewFriend",
      "outputs": [],
      "stateMutability": "nonpayable",
      "type": "function"
    },
    {
      "inputs": [
        {
          "internalType": "uint256",
          "name": "_nic",
          "type": "uint256"
        },
        {
          "internalType": "uint256",
          "name": "f_nic",
          "type": "uint256"
        }
      ],
      "name": "areFriends",
      "outputs": [
        {
          "internalType": "bool",
          "name": "",
          "type": "bool"
        }
      ],
      "stateMutability": "view",
      "type": "function",
      "constant": true
    },
    {
      "inputs": [
        {
          "internalType": "uint256",
          "name": "_nic",
          "type": "uint256"
        },
        {
          "internalType": "uint256",
          "name": "f_nic",
          "type": "uint256"
        },
        {
          "internalType": "string",
          "name": "_msg",
          "type": "string"
        }
      ],
      "name": "sendMessage",
      "outputs": [],
      "stateMutability": "nonpayable",
      "type": "function"
    },
    {
      "inputs": [
        {
          "internalType": "uint256",
          "name": "_nic",
          "type": "uint256"
        },
        {
          "internalType": "uint256",
          "name": "f_nic",
          "type": "uint256"
        }
      ],
      "name": "readMessage",
      "outputs": [
        {
          "components": [
            {
              "internalType": "uint256",
              "name": "sender_nic",
              "type": "uint256"
            },
            {
              "internalType": "uint256",
              "name": "timestamp",
              "type": "uint256"
            },
            {
              "internalType": "string",
              "name": "msg",
              "type": "string"
            }
          ],
          "internalType": "struct BCar.message[]",
          "name": "",
          "type": "tuple[]"
        }
      ],
      "stateMutability": "view",
      "type": "function",
      "constant": true
    },
    {
      "inputs": [
        {
          "internalType": "uint256",
          "name": "_nic",
          "type": "uint256"
        },
        {
          "internalType": "string",
          "name": "v_no",
          "type": "string"
        },
        {
          "internalType": "string",
          "name": "e_no",
          "type": "string"
        },
        {
          "internalType": "string",
          "name": "company",
          "type": "string"
        },
        {
          "internalType": "string",
          "name": "modal",
          "type": "string"
        },
        {
          "internalType": "string",
          "name": "year",
          "type": "string"
        }
      ],
      "name": "addNewVehicle",
      "outputs": [
        {
          "internalType": "bool",
          "name": "",
          "type": "bool"
        }
      ],
      "stateMutability": "nonpayable",
      "type": "function"
    },
    {
      "inputs": [
        {
          "internalType": "uint256",
          "name": "_nic",
          "type": "uint256"
        }
      ],
      "name": "isUserExist",
      "outputs": [
        {
          "internalType": "bool",
          "name": "",
          "type": "bool"
        }
      ],
      "stateMutability": "view",
      "type": "function",
      "constant": true
    },
    {
      "inputs": [
        {
          "internalType": "uint256",
          "name": "_nic",
          "type": "uint256"
        }
      ],
      "name": "isLoggedIn",
      "outputs": [
        {
          "internalType": "bool",
          "name": "",
          "type": "bool"
        }
      ],
      "stateMutability": "view",
      "type": "function",
      "constant": true
    },
    {
      "inputs": [
        {
          "internalType": "string",
          "name": "v_no",
          "type": "string"
        }
      ],
      "name": "isVehicleRegistered",
      "outputs": [
        {
          "internalType": "bool",
          "name": "",
          "type": "bool"
        }
      ],
      "stateMutability": "view",
      "type": "function",
      "constant": true
    }
  ],
  "bytecode": "0x608060405234801561001057600080fd5b50612dea806100206000396000f3fe608060405234801561001057600080fd5b50600436106100f55760003560e01c80635b3d8bd111610097578063ac56730f11610066578063ac56730f146102fc578063b312b5bc1461032c578063edf6a3d414610348578063f10eee2314610378576100f5565b80635b3d8bd11461023757806369f943da146102675780636e7a7a74146102975780639f4216e8146102c7576100f5565b8063314c4ff9116100d3578063314c4ff91461018b57806339561dba146101bb578063449a34ba146101d75780635724d5d314610207576100f5565b806321668a01146100fa578063259b3f631461012b57806326344c8b1461015b575b600080fd5b610114600480360381019061010f9190611914565b6103ad565b6040516101229291906119e0565b60405180910390f35b61014560048036038101906101409190611a10565b610459565b6040516101529190611bbb565b60405180910390f35b61017560048036038101906101709190611914565b610581565b6040516101829190611bf8565b60405180910390f35b6101a560048036038101906101a09190611d48565b6105ad565b6040516101b29190611bf8565b60405180910390f35b6101d560048036038101906101d09190611e04565b610717565b005b6101f160048036038101906101ec9190611914565b610916565b6040516101fe9190611f77565b60405180910390f35b610221600480360381019061021c9190611f99565b610ab6565b60405161022e9190611bf8565b60405180910390f35b610251600480360381019061024c9190612084565b610c1f565b60405161025e9190611bf8565b60405180910390f35b610281600480360381019061027c919061219d565b610e27565b60405161028e9190611bf8565b60405180910390f35b6102b160048036038101906102ac9190611914565b610e5f565b6040516102be9190611bf8565b60405180910390f35b6102e160048036038101906102dc9190611914565b610f15565b6040516102f3969594939291906121e6565b60405180910390f35b61031660048036038101906103119190611914565b61117e565b6040516103239190611bf8565b60405180910390f35b61034660048036038101906103419190611e04565b6111ab565b005b610362600480360381019061035d9190611a10565b611405565b60405161036f9190611bf8565b60405180910390f35b610392600480360381019061038d919061219d565b6114d7565b6040516103a496959493929190612263565b60405180910390f35b60016020528060005260406000206000915090508060000154908060010180546103d690612316565b80601f016020809104026020016040519081016040528092919081815260200182805461040290612316565b801561044f5780601f106104245761010080835404028352916020019161044f565b820191906000526020600020905b81548152906001019060200180831161043257829003601f168201915b5050505050905082565b6060600061046784846117de565b905060026000828152602001908152602001600020805480602002602001604051908101604052809291908181526020016000905b82821015610574578382906000526020600020906003020160405180606001604052908160008201548152602001600182015481526020016002820180546104e390612316565b80601f016020809104026020016040519081016040528092919081815260200182805461050f90612316565b801561055c5780601f106105315761010080835404028352916020019161055c565b820191906000526020600020905b81548152906001019060200180831161053f57829003601f168201915b5050505050815250508152602001906001019061049c565b5050505091505092915050565b600080600083815260200190815260200160002060050160009054906101000a900460ff169050919050565b60006105b88361117e565b6105f7576040517f08c379a00000000000000000000000000000000000000000000000000000000081526004016105ee90612393565b60405180910390fd5b61060083610581565b15610640576040517f08c379a0000000000000000000000000000000000000000000000000000000008152600401610637906123ff565b60405180910390fd5b60008084815260200190815260200160002060040160405160200161066591906124c2565b604051602081830303815290604052805190602001208260405160200161068c919061250a565b60405160208183030381529060405280519060200120146106e2576040517f08c379a00000000000000000000000000000000000000000000000000000000081526004016106d99061256d565b60405180910390fd5b600160008085815260200190815260200160002060050160006101000a81548160ff0219169083151502179055905092915050565b61072084610581565b61075f576040517f08c379a0000000000000000000000000000000000000000000000000000000008152600401610756906125d9565b60405180910390fd5b6107688361117e565b6107a7576040517f08c379a000000000000000000000000000000000000000000000000000000000815260040161079e9061266b565b60405180910390fd5b600115156107b58585611405565b1515146107f7576040517f08c379a00000000000000000000000000000000000000000000000000000000081526004016107ee906126fd565b60405180910390fd5b600061080385856117de565b90506000604051806060016040528087815260200142815260200185858080601f016020809104026020016040519081016040528093929190818152602001838380828437600081840152601f19601f82011690508083019250505050505050815250905060026000838152602001908152602001600020819080600181540180825580915050600190039060005260206000209060030201600090919091909150600082015181600001556020820151816001015560408201518160020190816108ce91906128b4565b5050507fd96231ef676e3e8799b3f576a020cb0fbe997efd03802226119b87674b11c1c28686868660405161090694939291906129b3565b60405180910390a1505050505050565b60606109218261117e565b610960576040517f08c379a000000000000000000000000000000000000000000000000000000000815260040161095790612a3f565b60405180910390fd5b61096982610581565b6109a8576040517f08c379a000000000000000000000000000000000000000000000000000000000815260040161099f906125d9565b60405180910390fd5b600080838152602001908152602001600020600601805480602002602001604051908101604052809291908181526020016000905b82821015610aab578382906000526020600020906002020160405180604001604052908160008201548152602001600182018054610a1a90612316565b80601f0160208091040260200160405190810160405280929190818152602001828054610a4690612316565b8015610a935780601f10610a6857610100808354040283529160200191610a93565b820191906000526020600020905b815481529060010190602001808311610a7657829003601f168201915b505050505081525050815260200190600101906109dd565b505050509050919050565b6000610ac18661117e565b15610b01576040517f08c379a0000000000000000000000000000000000000000000000000000000008152600401610af890612aab565b60405180910390fd5b8560008088815260200190815260200160002060000181905550846000808881526020019081526020016000206001019081610b3d91906128b4565b50836000808881526020019081526020016000206002019081610b6091906128b4565b50826000808881526020019081526020016000206003019081610b8391906128b4565b50816000808881526020019081526020016000206004019081610ba691906128b4565b50600160008088815260200190815260200160002060050160006101000a81548160ff0219169083151502179055507ff4f62c47f24224b311017882c675231104f94c03da61192ac4312d300a79963985878685604051610c0a9493929190612acb565b60405180910390a16001905095945050505050565b6000610c2a87610581565b610c69576040517f08c379a0000000000000000000000000000000000000000000000000000000008152600401610c60906125d9565b60405180910390fd5b610c7286610e27565b15610cb2576040517f08c379a0000000000000000000000000000000000000000000000000000000008152600401610ca990612b71565b60405180910390fd5b85600387604051610cc3919061250a565b90815260200160405180910390206000019081610ce091906128b4565b5084600387604051610cf2919061250a565b90815260200160405180910390206001019081610d0f91906128b4565b5083600387604051610d21919061250a565b90815260200160405180910390206002019081610d3e91906128b4565b5082600387604051610d50919061250a565b90815260200160405180910390206003019081610d6d91906128b4565b5081600387604051610d7f919061250a565b90815260200160405180910390206004019081610d9c91906128b4565b506001600387604051610daf919061250a565b908152602001604051809103902060050160006101000a81548160ff0219169083151502179055507f67215bb002cbbe82654c7ccfbdbd28dfbb0b8089f83ec9b641d43b08d2792c9e86868686866001604051610e1196959493929190612263565b60405180910390a1600190509695505050505050565b6000600382604051610e39919061250a565b908152602001604051809103902060050160009054906101000a900460ff169050919050565b6000610e6a82610581565b610ea9576040517f08c379a0000000000000000000000000000000000000000000000000000000008152600401610ea0906125d9565b60405180910390fd5b7f63ec3f4df310cbea2a7bef14e7983a49708f46e93064cfbc28087a44a6ea24f46000604051610ed99190611bf8565b60405180910390a1600080600084815260200190815260200160002060050160006101000a81548160ff02191690831515021790559050919050565b6000602052806000526040600020600091509050806000015490806001018054610f3e90612316565b80601f0160208091040260200160405190810160405280929190818152602001828054610f6a90612316565b8015610fb75780601f10610f8c57610100808354040283529160200191610fb7565b820191906000526020600020905b815481529060010190602001808311610f9a57829003601f168201915b505050505090806002018054610fcc90612316565b80601f0160208091040260200160405190810160405280929190818152602001828054610ff890612316565b80156110455780601f1061101a57610100808354040283529160200191611045565b820191906000526020600020905b81548152906001019060200180831161102857829003601f168201915b50505050509080600301805461105a90612316565b80601f016020809104026020016040519081016040528092919081815260200182805461108690612316565b80156110d35780601f106110a8576101008083540402835291602001916110d3565b820191906000526020600020905b8154815290600101906020018083116110b657829003601f168201915b5050505050908060040180546110e890612316565b80601f016020809104026020016040519081016040528092919081815260200182805461111490612316565b80156111615780601f1061113657610100808354040283529160200191611161565b820191906000526020600020905b81548152906001019060200180831161114457829003601f168201915b5050505050908060050160009054906101000a900460ff16905086565b60008060008084815260200190815260200160002060010180546111a190612316565b9050119050919050565b6111b484610581565b6111f3576040517f08c379a00000000000000000000000000000000000000000000000000000000081526004016111ea906125d9565b60405180910390fd5b6111fc8361117e565b61123b576040517f08c379a00000000000000000000000000000000000000000000000000000000081526004016112329061266b565b60405180910390fd5b82840361127d576040517f08c379a000000000000000000000000000000000000000000000000000000000815260040161127490612c03565b60405180910390fd5b6000151561128b8585611405565b1515146112cd576040517f08c379a00000000000000000000000000000000000000000000000000000000081526004016112c490612c6f565b60405180910390fd5b61131c848484848080601f016020809104026020016040519081016040528093929190818152602001838380828437600081840152601f19601f8201169050808301925050505050505061184a565b6113c48385600080888152602001908152602001600020600101805461134190612316565b80601f016020809104026020016040519081016040528092919081815260200182805461136d90612316565b80156113ba5780601f1061138f576101008083540402835291602001916113ba565b820191906000526020600020905b81548152906001019060200180831161139d57829003601f168201915b505050505061184a565b7fe514c4afa30880e1ca9b0dc7a1cb62a81ff9cab2e30c36cea191354f50ff66b28383836040516113f793929190612c8f565b60405180910390a150505050565b60008060008381526020019081526020016000206006018054905060008085815260200190815260200160002060060180549050111561144c576000839050829350809250505b60005b600080858152602001908152602001600020600601805490508110156114cb5782600080868152602001908152602001600020600601828154811061149757611496612cc1565b5b906000526020600020906002020160000154036114b85760019150506114d1565b80806114c390612d1f565b91505061144f565b50600090505b92915050565b60038180516020810182018051848252602083016020850120818352809550505050505060009150905080600001805461151090612316565b80601f016020809104026020016040519081016040528092919081815260200182805461153c90612316565b80156115895780601f1061155e57610100808354040283529160200191611589565b820191906000526020600020905b81548152906001019060200180831161156c57829003601f168201915b50505050509080600101805461159e90612316565b80601f01602080910402602001604051908101604052809291908181526020018280546115ca90612316565b80156116175780601f106115ec57610100808354040283529160200191611617565b820191906000526020600020905b8154815290600101906020018083116115fa57829003601f168201915b50505050509080600201805461162c90612316565b80601f016020809104026020016040519081016040528092919081815260200182805461165890612316565b80156116a55780601f1061167a576101008083540402835291602001916116a5565b820191906000526020600020905b81548152906001019060200180831161168857829003601f168201915b5050505050908060030180546116ba90612316565b80601f01602080910402602001604051908101604052809291908181526020018280546116e690612316565b80156117335780601f1061170857610100808354040283529160200191611733565b820191906000526020600020905b81548152906001019060200180831161171657829003601f168201915b50505050509080600401805461174890612316565b80601f016020809104026020016040519081016040528092919081815260200182805461177490612316565b80156117c15780601f10611796576101008083540402835291602001916117c1565b820191906000526020600020905b8154815290600101906020018083116117a457829003601f168201915b5050505050908060050160009054906101000a900460ff16905086565b6000818310156118185782826040516020016117fb929190612d88565b604051602081830303815290604052805190602001209050611844565b818360405160200161182b929190612d88565b6040516020818303038152906040528051906020012090505b92915050565b600060405180604001604052808481526020018381525090506000808581526020019081526020016000206006018190806001815401808255809150506001900390600052602060002090600202016000909190919091506000820151816000015560208201518160010190816118c191906128b4565b50505050505050565b6000604051905090565b600080fd5b600080fd5b6000819050919050565b6118f1816118de565b81146118fc57600080fd5b50565b60008135905061190e816118e8565b92915050565b60006020828403121561192a576119296118d4565b5b6000611938848285016118ff565b91505092915050565b61194a816118de565b82525050565b600081519050919050565b600082825260208201905092915050565b60005b8381101561198a57808201518184015260208101905061196f565b60008484015250505050565b6000601f19601f8301169050919050565b60006119b282611950565b6119bc818561195b565b93506119cc81856020860161196c565b6119d581611996565b840191505092915050565b60006040820190506119f56000830185611941565b8181036020830152611a0781846119a7565b90509392505050565b60008060408385031215611a2757611a266118d4565b5b6000611a35858286016118ff565b9250506020611a46858286016118ff565b9150509250929050565b600081519050919050565b600082825260208201905092915050565b6000819050602082019050919050565b611a85816118de565b82525050565b600082825260208201905092915050565b6000611aa782611950565b611ab18185611a8b565b9350611ac181856020860161196c565b611aca81611996565b840191505092915050565b6000606083016000830151611aed6000860182611a7c565b506020830151611b006020860182611a7c565b5060408301518482036040860152611b188282611a9c565b9150508091505092915050565b6000611b318383611ad5565b905092915050565b6000602082019050919050565b6000611b5182611a50565b611b5b8185611a5b565b935083602082028501611b6d85611a6c565b8060005b85811015611ba95784840389528151611b8a8582611b25565b9450611b9583611b39565b925060208a01995050600181019050611b71565b50829750879550505050505092915050565b60006020820190508181036000830152611bd58184611b46565b905092915050565b60008115159050919050565b611bf281611bdd565b82525050565b6000602082019050611c0d6000830184611be9565b92915050565b600080fd5b600080fd5b7f4e487b7100000000000000000000000000000000000000000000000000000000600052604160045260246000fd5b611c5582611996565b810181811067ffffffffffffffff82111715611c7457611c73611c1d565b5b80604052505050565b6000611c876118ca565b9050611c938282611c4c565b919050565b600067ffffffffffffffff821115611cb357611cb2611c1d565b5b611cbc82611996565b9050602081019050919050565b82818337600083830152505050565b6000611ceb611ce684611c98565b611c7d565b905082815260208101848484011115611d0757611d06611c18565b5b611d12848285611cc9565b509392505050565b600082601f830112611d2f57611d2e611c13565b5b8135611d3f848260208601611cd8565b91505092915050565b60008060408385031215611d5f57611d5e6118d4565b5b6000611d6d858286016118ff565b925050602083013567ffffffffffffffff811115611d8e57611d8d6118d9565b5b611d9a85828601611d1a565b9150509250929050565b600080fd5b600080fd5b60008083601f840112611dc457611dc3611c13565b5b8235905067ffffffffffffffff811115611de157611de0611da4565b5b602083019150836001820283011115611dfd57611dfc611da9565b5b9250929050565b60008060008060608587031215611e1e57611e1d6118d4565b5b6000611e2c878288016118ff565b9450506020611e3d878288016118ff565b935050604085013567ffffffffffffffff811115611e5e57611e5d6118d9565b5b611e6a87828801611dae565b925092505092959194509250565b600081519050919050565b600082825260208201905092915050565b6000819050602082019050919050565b6000604083016000830151611ebc6000860182611a7c565b5060208301518482036020860152611ed48282611a9c565b9150508091505092915050565b6000611eed8383611ea4565b905092915050565b6000602082019050919050565b6000611f0d82611e78565b611f178185611e83565b935083602082028501611f2985611e94565b8060005b85811015611f655784840389528151611f468582611ee1565b9450611f5183611ef5565b925060208a01995050600181019050611f2d565b50829750879550505050505092915050565b60006020820190508181036000830152611f918184611f02565b905092915050565b600080600080600060a08688031215611fb557611fb46118d4565b5b6000611fc3888289016118ff565b955050602086013567ffffffffffffffff811115611fe457611fe36118d9565b5b611ff088828901611d1a565b945050604086013567ffffffffffffffff811115612011576120106118d9565b5b61201d88828901611d1a565b935050606086013567ffffffffffffffff81111561203e5761203d6118d9565b5b61204a88828901611d1a565b925050608086013567ffffffffffffffff81111561206b5761206a6118d9565b5b61207788828901611d1a565b9150509295509295909350565b60008060008060008060c087890312156120a1576120a06118d4565b5b60006120af89828a016118ff565b965050602087013567ffffffffffffffff8111156120d0576120cf6118d9565b5b6120dc89828a01611d1a565b955050604087013567ffffffffffffffff8111156120fd576120fc6118d9565b5b61210989828a01611d1a565b945050606087013567ffffffffffffffff81111561212a576121296118d9565b5b61213689828a01611d1a565b935050608087013567ffffffffffffffff811115612157576121566118d9565b5b61216389828a01611d1a565b92505060a087013567ffffffffffffffff811115612184576121836118d9565b5b61219089828a01611d1a565b9150509295509295509295565b6000602082840312156121b3576121b26118d4565b5b600082013567ffffffffffffffff8111156121d1576121d06118d9565b5b6121dd84828501611d1a565b91505092915050565b600060c0820190506121fb6000830189611941565b818103602083015261220d81886119a7565b9050818103604083015261222181876119a7565b9050818103606083015261223581866119a7565b9050818103608083015261224981856119a7565b905061225860a0830184611be9565b979650505050505050565b600060c082019050818103600083015261227d81896119a7565b9050818103602083015261229181886119a7565b905081810360408301526122a581876119a7565b905081810360608301526122b981866119a7565b905081810360808301526122cd81856119a7565b90506122dc60a0830184611be9565b979650505050505050565b7f4e487b7100000000000000000000000000000000000000000000000000000000600052602260045260246000fd5b6000600282049050600182168061232e57607f821691505b602082108103612341576123406122e7565b5b50919050565b7f5573657220646f6573206e6f7420657869737473210000000000000000000000600082015250565b600061237d60158361195b565b915061238882612347565b602082019050919050565b600060208201905081810360008301526123ac81612370565b9050919050565b7f596f752061726520416c7265616479204c6f6767656420496e21000000000000600082015250565b60006123e9601a8361195b565b91506123f4826123b3565b602082019050919050565b60006020820190508181036000830152612418816123dc565b9050919050565b600081905092915050565b60008190508160005260206000209050919050565b6000815461244c81612316565b612456818661241f565b945060018216600081146124715760018114612486576124b9565b60ff19831686528115158202860193506124b9565b61248f8561242a565b60005b838110156124b157815481890152600182019150602081019050612492565b838801955050505b50505092915050565b60006124ce828461243f565b915081905092915050565b60006124e482611950565b6124ee818561241f565b93506124fe81856020860161196c565b80840191505092915050565b600061251682846124d9565b915081905092915050565b7f50617373776f7220446f6573204e6f74204d6174636865642100000000000000600082015250565b600061255760198361195b565b915061256282612521565b602082019050919050565b600060208201905081810360008301526125868161254a565b9050919050565b7f596f75204e65656420546f204c6f6720496e2046697273742100000000000000600082015250565b60006125c360198361195b565b91506125ce8261258d565b602082019050919050565b600060208201905081810360008301526125f2816125b6565b9050919050565b7f596f757220466972656e6420446f6573204e6f7420526567697374657265642060008201527f57697468205468652053797374656d2100000000000000000000000000000000602082015250565b600061265560308361195b565b9150612660826125f9565b604082019050919050565b6000602082019050818103600083015261268481612648565b9050919050565b7f596f7520617265206e6f7420667269656e64732077697468207468652067697660008201527f656e207573657221000000000000000000000000000000000000000000000000602082015250565b60006126e760288361195b565b91506126f28261268b565b604082019050919050565b60006020820190508181036000830152612716816126da565b9050919050565b60006020601f8301049050919050565b600082821b905092915050565b60006008830261276a7fffffffffffffffffffffffffffffffffffffffffffffffffffffffffffffffff8261272d565b612774868361272d565b95508019841693508086168417925050509392505050565b6000819050919050565b60006127b16127ac6127a7846118de565b61278c565b6118de565b9050919050565b6000819050919050565b6127cb83612796565b6127df6127d7826127b8565b84845461273a565b825550505050565b600090565b6127f46127e7565b6127ff8184846127c2565b505050565b5b81811015612823576128186000826127ec565b600181019050612805565b5050565b601f821115612868576128398161242a565b6128428461271d565b81016020851015612851578190505b61286561285d8561271d565b830182612804565b50505b505050565b600082821c905092915050565b600061288b6000198460080261286d565b1980831691505092915050565b60006128a4838361287a565b9150826002028217905092915050565b6128bd82611950565b67ffffffffffffffff8111156128d6576128d5611c1d565b5b6128e08254612316565b6128eb828285612827565b600060209050601f83116001811461291e576000841561290c578287015190505b6129168582612898565b86555061297e565b601f19841661292c8661242a565b60005b828110156129545784890151825560018201915060208501945060208101905061292f565b86831015612971578489015161296d601f89168261287a565b8355505b6001600288020188555050505b505050505050565b6000612992838561195b565b935061299f838584611cc9565b6129a883611996565b840190509392505050565b60006060820190506129c86000830187611941565b6129d56020830186611941565b81810360408301526129e8818486612986565b905095945050505050565b7f5573657220657869737473210000000000000000000000000000000000000000600082015250565b6000612a29600c8361195b565b9150612a34826129f3565b602082019050919050565b60006020820190508181036000830152612a5881612a1c565b9050919050565b7f5573657220616c72656164792065786973747321000000000000000000000000600082015250565b6000612a9560148361195b565b9150612aa082612a5f565b602082019050919050565b60006020820190508181036000830152612ac481612a88565b9050919050565b60006080820190508181036000830152612ae581876119a7565b9050612af46020830186611941565b8181036040830152612b0681856119a7565b90508181036060830152612b1a81846119a7565b905095945050505050565b7f56656869636c6520416c72656164792052646769737465726564000000000000600082015250565b6000612b5b601a8361195b565b9150612b6682612b25565b602082019050919050565b60006020820190508181036000830152612b8a81612b4e565b9050919050565b7f557365722063616e6e6f74206164642068696d2f6865722073656c662061732060008201527f667269656e642100000000000000000000000000000000000000000000000000602082015250565b6000612bed60278361195b565b9150612bf882612b91565b604082019050919050565b60006020820190508181036000830152612c1c81612be0565b9050919050565b7f54686573652075736572732061726520616c726561647920667269656e647321600082015250565b6000612c5960208361195b565b9150612c6482612c23565b602082019050919050565b60006020820190508181036000830152612c8881612c4c565b9050919050565b6000604082019050612ca46000830186611941565b8181036020830152612cb7818486612986565b9050949350505050565b7f4e487b7100000000000000000000000000000000000000000000000000000000600052603260045260246000fd5b7f4e487b7100000000000000000000000000000000000000000000000000000000600052601160045260246000fd5b6000612d2a826118de565b91507fffffffffffffffffffffffffffffffffffffffffffffffffffffffffffffffff8203612d5c57612d5b612cf0565b5b600182019050919050565b6000819050919050565b612d82612d7d826118de565b612d67565b82525050565b6000612d948285612d71565b602082019150612da48284612d71565b602082019150819050939250505056fea26469706673582212207f625a4f69034cb0b362d373270c20ff59565e2bddb650b447ee6c6818c3abba64736f6c63430008110033",
  "immutableReferences": {},
  "source": "// SPDX-License-Identifier: MIT\r\npragma solidity >=0.7.0 <0.9.0;\r\n\r\ncontract BCar {\r\n    /**\r\n     * ! I might need to add public Key 'ACCOUNT ADDRESS' of users\r\n     */\r\n\r\n    // Chat Module /, Vehicle Moduel\r\n    /**\r\n     *? User=> :SignUp /, :LogIn/, :LogOut /, :getFriendsList /\r\n     */\r\n\r\n    struct User {\r\n        uint256 u_nic;\r\n        string u_name;\r\n        string u_contact;\r\n        string u_address;\r\n        string u_password;\r\n        bool isLoggedIn;\r\n        Friend[] friendList;\r\n        Vehicle[] vehicleList;\r\n    }\r\n\r\n    //  event is a log creates on trigger.\r\n    event userSignedUp(string _nam, uint256 _nic, string u_cont, string u_pass);\r\n    event LogoutUser(bool isUserLoggedIn);\r\n\r\n    mapping(uint256 => User) public userList;\r\n\r\n    function signUp(\r\n        uint256 _nic,\r\n        string memory _nam,\r\n        string memory _cont,\r\n        string memory _addr,\r\n        string memory _pass\r\n    ) public returns (bool) {\r\n        require(!isUserExist(_nic), \"User already exists!\");\r\n\r\n        userList[_nic].u_nic = _nic;\r\n        userList[_nic].u_name = _nam;\r\n        userList[_nic].u_contact = _cont;\r\n        userList[_nic].u_address = _addr;\r\n        userList[_nic].u_password = _pass;\r\n        userList[_nic].isLoggedIn = true;\r\n\r\n        emit userSignedUp(_nam, _nic, _cont, _pass);\r\n\r\n        return true;\r\n    }\r\n\r\n    function LogIn(uint256 _nic, string memory _pass) public returns (bool) {\r\n        require(isUserExist(_nic), \"User does not exists!\");\r\n        require(!isLoggedIn(_nic), \"You are Already Logged In!\");\r\n        require(\r\n            keccak256(abi.encodePacked(_pass)) ==\r\n                keccak256(abi.encodePacked(userList[_nic].u_password)),\r\n            \"Passwor Does Not Matched!\"\r\n        );\r\n        return userList[_nic].isLoggedIn = true;\r\n    }\r\n\r\n    function LogOut(uint256 _nic) public returns (bool) {\r\n        require(isLoggedIn(_nic), \"You Need To Log In First!\");\r\n        emit LogoutUser(false);\r\n        return userList[_nic].isLoggedIn = false;\r\n    }\r\n\r\n    function getFriendsList(uint256 _nic)\r\n        external\r\n        view\r\n        returns (Friend[] memory)\r\n    {\r\n        require(isUserExist(_nic), \"User exists!\");\r\n        require(isLoggedIn(_nic), \"You Need To Log In First!\");\r\n\r\n        return userList[_nic].friendList;\r\n    }\r\n\r\n    /**\r\n     *? Friends=> :addNewFriend /, :checkAlreadyFriends /, :LoopOnFriend /\r\n     */\r\n\r\n    // Each friend is identified by its address and name assigned by the second party\r\n    struct Friend {\r\n        uint256 f_nic;\r\n        string f_name;\r\n    }\r\n\r\n    event AddFriend(uint256 friend_key, string name);\r\n\r\n    mapping(uint256 => Friend) public friendList;\r\n\r\n    function addNewFriend(\r\n        uint256 _nic,\r\n        uint256 f_nic,\r\n        string calldata f_name\r\n    ) external {\r\n        require(isLoggedIn(_nic), \"You Need To Log In First!\");\r\n        require(isUserExist(f_nic), \"Your Firend Does Not Registered With The System!\");\r\n        require(_nic != f_nic, \"User cannot add him/her self as friend!\");\r\n        require(\r\n            areFriends(_nic, f_nic) == false,\r\n            \"These users are already friends!\"\r\n        );\r\n\r\n        _addFriend(_nic, f_nic, f_name);\r\n        _addFriend(f_nic, _nic, userList[_nic].u_name);\r\n        emit AddFriend(f_nic, f_name);\r\n    }\r\n\r\n    function areFriends(uint256 _nic, uint256 f_nic)\r\n        public\r\n        view\r\n        returns (bool)\r\n    {\r\n        // if the list of user is greater then the list of friend\r\n        if (\r\n            userList[_nic].friendList.length > userList[f_nic].friendList.length\r\n        ) {\r\n            uint256 tmp = _nic;\r\n            _nic = f_nic;\r\n            f_nic = tmp;\r\n        }\r\n        // the loop will run on bigger list\r\n        for (uint256 i = 0; i < userList[_nic].friendList.length; i++) {\r\n            if (userList[_nic].friendList[i].f_nic == f_nic) return true;\r\n        }\r\n        return false;\r\n    }\r\n\r\n    // A helper function to update the friendList\r\n    function _addFriend(\r\n        uint256 me,\r\n        uint256 friend_key,\r\n        string memory name\r\n    ) internal {\r\n        // create new object of type friend\r\n        Friend memory newFriend = Friend(friend_key, name);\r\n        // add newly created obj to friend list of user\r\n        userList[me].friendList.push(newFriend);\r\n    }\r\n\r\n    /**\r\n     *? Messages' Funcions=> :\r\n     */\r\n\r\n    // message construct stores the single chat message and its metadata\r\n    struct message {\r\n        // address sender;\r\n        uint256 sender_nic;\r\n        uint256 timestamp;\r\n        string msg;\r\n    }\r\n\r\n    event SendMessage(uint256 sender_key, uint256 friend_key, string msg);\r\n\r\n    // Collection of messages communicated in a channel between two users\r\n    mapping(bytes32 => message[]) allMessages; // key : Hash(user1,user2)\r\n\r\n    // Returns a unique code for the channel created between the two users\r\n    // Hash(key1,key2) where key1 is lexicographically smaller than key2\r\n    // function _getChatCode(address pubkey1, address pubkey2) internal pure returns(bytes32) {\r\n    function _getChatCode(uint256 _nic, uint256 f_nic)\r\n        internal\r\n        pure\r\n        returns (bytes32)\r\n    {\r\n        if (_nic < f_nic) return keccak256(abi.encodePacked(_nic, f_nic));\r\n        else return keccak256(abi.encodePacked(f_nic, _nic));\r\n    }\r\n\r\n    // Sends a new message to a given friend\r\n    function sendMessage(\r\n        uint256 _nic,\r\n        uint256 f_nic,\r\n        string calldata _msg\r\n    ) external {\r\n        require(isLoggedIn(_nic), \"You Need To Log In First!\");\r\n        require(\r\n            isUserExist(f_nic),\r\n            \"Your Firend Does Not Registered With The System!\"\r\n        );\r\n        require(\r\n            areFriends(_nic, f_nic) == true,\r\n            \"You are not friends with the given user!\"\r\n        );\r\n        bytes32 chatCode = _getChatCode(_nic, f_nic);\r\n        message memory newMsg = message(_nic, block.timestamp, _msg);\r\n        allMessages[chatCode].push(newMsg);\r\n        emit SendMessage(_nic, f_nic, _msg);\r\n    }\r\n\r\n    // Returns all the chat messages communicated in a channel\r\n    function readMessage(uint256 _nic, uint256 f_nic)\r\n        external\r\n        view\r\n        returns (message[] memory)\r\n    {\r\n        bytes32 chatCode = _getChatCode(_nic, f_nic);\r\n        return allMessages[chatCode];\r\n    }\r\n\r\n    /**\r\n    *? Vehicles => :addNewVehicle, :isVehicleRegistered, :getVehicleInfo\r\n     */\r\n\r\n    // uint256 public vehicleCount = 0;\r\n\r\n    struct Vehicle{\r\n        // vehicleCount will be unique for each vehicle in the system. \r\n        // uint256 vehicleCount;\r\n        string v_no;\r\n        string e_no;\r\n        string company;\r\n        string modal;\r\n        string year;\r\n        bool reg_with_owner;\r\n    }\r\n\r\n    mapping(string => Vehicle) public vehicleList;\r\n\r\n    event newVehicleAdded(string v_no, string e_no, string company, string modal, string year, bool reg_with_owner);\r\n    \r\n    function addNewVehicle(uint256 _nic, string memory v_no, string memory e_no, string memory company, string memory modal, string memory year) public returns(bool){\r\n        require(isLoggedIn(_nic), \"You Need To Log In First!\");\r\n        require(!isVehicleRegistered(v_no), \"Vehicle Already Rdgistered\");\r\n  \r\n        // vehicleCount++;\r\n        // vehicleList[vehicleCount].vehicleCount = vehicleCount;\r\n        vehicleList[v_no].v_no = v_no;\r\n        vehicleList[v_no].e_no = e_no;\r\n        vehicleList[v_no].company = company;\r\n        vehicleList[v_no].modal = modal;\r\n        vehicleList[v_no].year = year;\r\n        vehicleList[v_no].reg_with_owner = true;\r\n\r\n        emit newVehicleAdded(v_no, e_no, company, modal, year, true);\r\n\r\n        return true;\r\n\r\n    }\r\n\r\n    /**\r\n     *? general purpose functions =>  :Loop, :isUserExists/, :isLoggedIn/, :isVehicleExists\r\n     */\r\n\r\n    function isUserExist(uint256 _nic) public view returns (bool) {\r\n        return bytes(userList[_nic].u_name).length > 0;\r\n    }\r\n\r\n    function isLoggedIn(uint256 _nic) public view returns (bool) {\r\n        return userList[_nic].isLoggedIn;\r\n    }\r\n\r\n    function isVehicleRegistered(string memory v_no) public view returns (bool) {\r\n        return vehicleList[v_no].reg_with_owner;\r\n    }\r\n}\r\n",
  "sourcePath": "C:\\xampp\\htdocs\\my_working_dir\\block-chain\\bcar1.0\\contracts\\BCar.sol",
  "compiler": {
    "name": "solc",
    "version": "0.8.17+commit.8df45f5f.Emscripten.clang"
  },
  "schemaVersion": "3.4.10",
  "updatedAt": "2022-12-13T04:06:09.302Z",
  "networkType": "ethereum",
  "devdoc": {
    "kind": "dev",
    "methods": {},
    "version": 1
  },
  "userdoc": {
    "kind": "user",
    "methods": {
      "isUserExist(uint256)": {
        "notice": "? general purpose functions =>  :Loop, :isUserExists/, :isLoggedIn/, :isVehicleExists"
      }
    },
    "version": 1
  }
}