{
  "contractName": "BCar",
  "abi": [
    {
      "anonymous": false,
      "inputs": [
        {
          "indexed": false,
          "internalType": "string",
          "name": "_nam",
          "type": "string"
        },
        {
          "indexed": false,
          "internalType": "uint256",
          "name": "_nic",
          "type": "uint256"
        },
        {
          "indexed": false,
          "internalType": "string",
          "name": "u_cont",
          "type": "string"
        },
        {
          "indexed": false,
          "internalType": "string",
          "name": "u_pass",
          "type": "string"
        }
      ],
      "name": "userSignedUp",
      "type": "event"
    },
    {
      "constant": true,
      "inputs": [
        {
          "internalType": "uint256",
          "name": "",
          "type": "uint256"
        }
      ],
      "name": "userList",
      "outputs": [
        {
          "internalType": "uint256",
          "name": "u_nic",
          "type": "uint256"
        },
        {
          "internalType": "string",
          "name": "u_name",
          "type": "string"
        },
        {
          "internalType": "string",
          "name": "u_contact",
          "type": "string"
        },
        {
          "internalType": "string",
          "name": "u_address",
          "type": "string"
        },
        {
          "internalType": "string",
          "name": "u_password",
          "type": "string"
        },
        {
          "internalType": "bool",
          "name": "isLoggedIn",
          "type": "bool"
        }
      ],
      "payable": false,
      "stateMutability": "view",
      "type": "function"
    },
    {
      "constant": false,
      "inputs": [
        {
          "internalType": "uint256",
          "name": "_nic",
          "type": "uint256"
        },
        {
          "internalType": "string",
          "name": "_nam",
          "type": "string"
        },
        {
          "internalType": "string",
          "name": "_cont",
          "type": "string"
        },
        {
          "internalType": "string",
          "name": "_addr",
          "type": "string"
        },
        {
          "internalType": "string",
          "name": "_pass",
          "type": "string"
        }
      ],
      "name": "signUp",
      "outputs": [
        {
          "internalType": "bool",
          "name": "",
          "type": "bool"
        }
      ],
      "payable": false,
      "stateMutability": "nonpayable",
      "type": "function"
    },
    {
      "constant": true,
      "inputs": [
        {
          "internalType": "uint256",
          "name": "_nic",
          "type": "uint256"
        },
        {
          "internalType": "string",
          "name": "_pass",
          "type": "string"
        }
      ],
      "name": "LogIn",
      "outputs": [
        {
          "internalType": "string",
          "name": "",
          "type": "string"
        }
      ],
      "payable": false,
      "stateMutability": "view",
      "type": "function"
    },
    {
      "constant": true,
      "inputs": [
        {
          "internalType": "uint256",
          "name": "_nic",
          "type": "uint256"
        }
      ],
      "name": "isUserExist",
      "outputs": [
        {
          "internalType": "bool",
          "name": "",
          "type": "bool"
        }
      ],
      "payable": false,
      "stateMutability": "view",
      "type": "function"
    }
  ],
  "bytecode": "0x608060405234801561001057600080fd5b50610f24806100206000396000f3fe608060405234801561001057600080fd5b506004361061004c5760003560e01c8063314c4ff9146100515780635724d5d31461018f5780639f4216e814610431578063ac56730f1461062e575b600080fd5b6101146004803603604081101561006757600080fd5b81019080803590602001909291908035906020019064010000000081111561008e57600080fd5b8201836020820111156100a057600080fd5b803590602001918460018302840111640100000000831117156100c257600080fd5b91908080601f016020809104026020016040519081016040528093929190818152602001838380828437600081840152601f19601f820116905080830192505050505050509192919290505050610674565b6040518080602001828103825283818151815260200191508051906020019080838360005b83811015610154578082015181840152602081019050610139565b50505050905090810190601f1680156101815780820380516001836020036101000a031916815260200191505b509250505060405180910390f35b610417600480360360a08110156101a557600080fd5b8101908080359060200190929190803590602001906401000000008111156101cc57600080fd5b8201836020820111156101de57600080fd5b8035906020019184600183028401116401000000008311171561020057600080fd5b91908080601f016020809104026020016040519081016040528093929190818152602001838380828437600081840152601f19601f8201169050808301925050505050505091929192908035906020019064010000000081111561026357600080fd5b82018360208201111561027557600080fd5b8035906020019184600183028401116401000000008311171561029757600080fd5b91908080601f016020809104026020016040519081016040528093929190818152602001838380828437600081840152601f19601f820116905080830192505050505050509192919290803590602001906401000000008111156102fa57600080fd5b82018360208201111561030c57600080fd5b8035906020019184600183028401116401000000008311171561032e57600080fd5b91908080601f016020809104026020016040519081016040528093929190818152602001838380828437600081840152601f19601f8201169050808301925050505050505091929192908035906020019064010000000081111561039157600080fd5b8201836020820111156103a357600080fd5b803590602001918460018302840111640100000000831117156103c557600080fd5b91908080601f016020809104026020016040519081016040528093929190818152602001838380828437600081840152601f19601f820116905080830192505050505050509192919290505050610873565b604051808215151515815260200191505060405180910390f35b61045d6004803603602081101561044757600080fd5b8101908080359060200190929190505050610b6c565b60405180878152602001806020018060200180602001806020018615151515815260200185810385528a818151815260200191508051906020019080838360005b838110156104b957808201518184015260208101905061049e565b50505050905090810190601f1680156104e65780820380516001836020036101000a031916815260200191505b50858103845289818151815260200191508051906020019080838360005b8381101561051f578082015181840152602081019050610504565b50505050905090810190601f16801561054c5780820380516001836020036101000a031916815260200191505b50858103835288818151815260200191508051906020019080838360005b8381101561058557808201518184015260208101905061056a565b50505050905090810190601f1680156105b25780820380516001836020036101000a031916815260200191505b50858103825287818151815260200191508051906020019080838360005b838110156105eb5780820151818401526020810190506105d0565b50505050905090810190601f1680156106185780820380516001836020036101000a031916815260200191505b509a505050505050505050505060405180910390f35b61065a6004803603602081101561064457600080fd5b8101908080359060200190929190505050610e15565b604051808215151515815260200191505060405180910390f35b606061067f83610e15565b6106f1576040517f08c379a000000000000000000000000000000000000000000000000000000000815260040180806020018281038252600c8152602001807f557365722065786973747321000000000000000000000000000000000000000081525060200191505060405180910390fd5b60008084815260200190815260200160002060040160405160200180828054600181600116156101000203166002900480156107645780601f10610742576101008083540402835291820191610764565b820191906000526020600020905b815481529060010190602001808311610750575b505091505060405160208183030381529060405280519060200120826040516020018082805190602001908083835b602083106107b65780518252602082019150602081019050602083039250610793565b6001836020036101000a038019825116818451168082178552505050505050905001915050604051602081830303815290604052805190602001201415610834576040518060400160405280600781526020017f5375636365737300000000000000000000000000000000000000000000000000815250905061086d565b6040518060400160405280600681526020017f4661696c6564000000000000000000000000000000000000000000000000000081525090505b92915050565b600061087e86610e15565b156108f1576040517f08c379a00000000000000000000000000000000000000000000000000000000081526004018080602001828103825260148152602001807f5573657220616c7265616479206578697374732100000000000000000000000081525060200191505060405180910390fd5b8560008088815260200190815260200160002060000181905550846000808881526020019081526020016000206001019080519060200190610934929190610e4a565b5083600080888152602001908152602001600020600201908051906020019061095e929190610e4a565b50826000808881526020019081526020016000206003019080519060200190610988929190610e4a565b508160008088815260200190815260200160002060040190805190602001906109b2929190610e4a565b50600160008088815260200190815260200160002060050160006101000a81548160ff0219169083151502179055507ff4f62c47f24224b311017882c675231104f94c03da61192ac4312d300a7996398587868560405180806020018581526020018060200180602001848103845288818151815260200191508051906020019080838360005b83811015610a54578082015181840152602081019050610a39565b50505050905090810190601f168015610a815780820380516001836020036101000a031916815260200191505b50848103835286818151815260200191508051906020019080838360005b83811015610aba578082015181840152602081019050610a9f565b50505050905090810190601f168015610ae75780820380516001836020036101000a031916815260200191505b50848103825285818151815260200191508051906020019080838360005b83811015610b20578082015181840152602081019050610b05565b50505050905090810190601f168015610b4d5780820380516001836020036101000a031916815260200191505b5097505050505050505060405180910390a16001905095945050505050565b6000602052806000526040600020600091509050806000015490806001018054600181600116156101000203166002900480601f016020809104026020016040519081016040528092919081815260200182805460018160011615610100020316600290048015610c1e5780601f10610bf357610100808354040283529160200191610c1e565b820191906000526020600020905b815481529060010190602001808311610c0157829003601f168201915b505050505090806002018054600181600116156101000203166002900480601f016020809104026020016040519081016040528092919081815260200182805460018160011615610100020316600290048015610cbc5780601f10610c9157610100808354040283529160200191610cbc565b820191906000526020600020905b815481529060010190602001808311610c9f57829003601f168201915b505050505090806003018054600181600116156101000203166002900480601f016020809104026020016040519081016040528092919081815260200182805460018160011615610100020316600290048015610d5a5780601f10610d2f57610100808354040283529160200191610d5a565b820191906000526020600020905b815481529060010190602001808311610d3d57829003601f168201915b505050505090806004018054600181600116156101000203166002900480601f016020809104026020016040519081016040528092919081815260200182805460018160011615610100020316600290048015610df85780601f10610dcd57610100808354040283529160200191610df8565b820191906000526020600020905b815481529060010190602001808311610ddb57829003601f168201915b5050505050908060050160009054906101000a900460ff16905086565b600080600080848152602001908152602001600020600101805460018160011615610100020316600290049050119050919050565b828054600181600116156101000203166002900490600052602060002090601f016020900481019282601f10610e8b57805160ff1916838001178555610eb9565b82800160010185558215610eb9579182015b82811115610eb8578251825591602001919060010190610e9d565b5b509050610ec69190610eca565b5090565b610eec91905b80821115610ee8576000816000905550600101610ed0565b5090565b9056fea265627a7a72315820a21c548a4494232b8c96ee240d24103142a8e143f5e09711719ff8a2442c738964736f6c63430005100032",
  "source": "// SPDX-License-Identifier: MIT\npragma solidity >=0.4.22 <0.9.0;\n\ncontract BCar {\n  // Chat Module\n  /**\n  *? User=> :SignUp /, :LogIn, :Loop, :isExists/, :isLoggedIn\n   */\n  \n   struct User {\n    uint u_nic;\n    string u_name;\n    string u_contact;\n    string u_address;\n    string u_password;\n    bool isLoggedIn;\n    // friend[] friendList;\n    // vehicle[] vehicleList;\n   }\n   \n  //  event is a log creates on trigger. \n   event userSignedUp(string _nam, uint _nic, string u_cont, string u_pass);\n   \n   mapping (uint=>User) public userList;\n\n   function signUp(uint _nic, string memory _nam, string memory _cont, string memory _addr, string memory _pass) public returns (bool) {\n    require(!isUserExist(_nic),  \"User already exists!\");\n    \n    userList[_nic].u_nic = _nic;\n    userList[_nic].u_name = _nam;\n    userList[_nic].u_contact = _cont;\n    userList[_nic].u_address = _addr;\n    userList[_nic].u_password = _pass;\n    userList[_nic].isLoggedIn = true;\n\n    emit userSignedUp(_nam, _nic, _cont, _pass);\n\n    return true;\n   }\n\n   function LogIn(uint _nic, string memory _pass) public view returns (string memory) {\n    require(isUserExist(_nic),  \"User exists!\");\n    if (keccak256(abi.encodePacked(_pass)) ==\n                keccak256(abi.encodePacked(userList[_nic].u_password))) {\n      return 'Success';\n    }    \n    return 'Failed';\n   }\n\n   function isUserExist(uint _nic) public view returns (bool) {\n    return bytes(userList[_nic].u_name).length > 0;\n   }\n\n}\n",
  "sourcePath": "C:\\xampp\\htdocs\\my_working_dir\\block-chain\\bcar1.0\\contracts\\BCar.sol",
  "compiler": {
    "name": "solc",
    "version": "0.5.16+commit.9c3226ce.Emscripten.clang"
  },
  "schemaVersion": "3.4.10",
  "updatedAt": "2022-12-11T11:04:15.984Z",
  "networkType": "ethereum",
  "devdoc": {
    "methods": {}
  },
  "userdoc": {
    "methods": {}
  }
}