{
  "contractName": "BCar",
  "abi": [
    {
      "anonymous": false,
      "inputs": [
        {
          "indexed": false,
          "internalType": "uint256",
          "name": "friend_key",
          "type": "uint256"
        },
        {
          "indexed": false,
          "internalType": "string",
          "name": "name",
          "type": "string"
        }
      ],
      "name": "AddFriend",
      "type": "event"
    },
    {
      "anonymous": false,
      "inputs": [
        {
          "indexed": false,
          "internalType": "bool",
          "name": "isUserLoggedIn",
          "type": "bool"
        }
      ],
      "name": "LogoutUser",
      "type": "event"
    },
    {
      "anonymous": false,
      "inputs": [
        {
          "indexed": false,
          "internalType": "uint256",
          "name": "sender_key",
          "type": "uint256"
        },
        {
          "indexed": false,
          "internalType": "uint256",
          "name": "friend_key",
          "type": "uint256"
        },
        {
          "indexed": false,
          "internalType": "string",
          "name": "msg",
          "type": "string"
        }
      ],
      "name": "SendMessage",
      "type": "event"
    },
    {
      "anonymous": false,
      "inputs": [
        {
          "indexed": false,
          "internalType": "string",
          "name": "e_no",
          "type": "string"
        },
        {
          "indexed": false,
          "internalType": "string",
          "name": "v_no",
          "type": "string"
        },
        {
          "indexed": false,
          "internalType": "string",
          "name": "company",
          "type": "string"
        },
        {
          "indexed": false,
          "internalType": "string",
          "name": "modal",
          "type": "string"
        },
        {
          "indexed": false,
          "internalType": "string",
          "name": "year",
          "type": "string"
        },
        {
          "indexed": false,
          "internalType": "uint256",
          "name": "owner_id",
          "type": "uint256"
        },
        {
          "indexed": false,
          "internalType": "bool",
          "name": "reg_with_owner",
          "type": "bool"
        }
      ],
      "name": "newVehicleAdded",
      "type": "event"
    },
    {
      "anonymous": false,
      "inputs": [
        {
          "indexed": false,
          "internalType": "string",
          "name": "_nam",
          "type": "string"
        },
        {
          "indexed": false,
          "internalType": "uint256",
          "name": "_nic",
          "type": "uint256"
        },
        {
          "indexed": false,
          "internalType": "string",
          "name": "u_cont",
          "type": "string"
        },
        {
          "indexed": false,
          "internalType": "string",
          "name": "u_pass",
          "type": "string"
        }
      ],
      "name": "userSignedUp",
      "type": "event"
    },
    {
      "inputs": [
        {
          "internalType": "uint256",
          "name": "",
          "type": "uint256"
        }
      ],
      "name": "allUsers",
      "outputs": [
        {
          "internalType": "uint256",
          "name": "u_count",
          "type": "uint256"
        },
        {
          "internalType": "uint256",
          "name": "user_nic",
          "type": "uint256"
        }
      ],
      "stateMutability": "view",
      "type": "function",
      "constant": true
    },
    {
      "inputs": [
        {
          "internalType": "uint256",
          "name": "",
          "type": "uint256"
        }
      ],
      "name": "allVehicles",
      "outputs": [
        {
          "internalType": "uint256",
          "name": "v_count",
          "type": "uint256"
        },
        {
          "internalType": "string",
          "name": "v_e_no",
          "type": "string"
        }
      ],
      "stateMutability": "view",
      "type": "function",
      "constant": true
    },
    {
      "inputs": [
        {
          "internalType": "uint256",
          "name": "",
          "type": "uint256"
        }
      ],
      "name": "friendList",
      "outputs": [
        {
          "internalType": "uint256",
          "name": "f_nic",
          "type": "uint256"
        },
        {
          "internalType": "string",
          "name": "f_name",
          "type": "string"
        }
      ],
      "stateMutability": "view",
      "type": "function",
      "constant": true
    },
    {
      "inputs": [
        {
          "internalType": "uint256",
          "name": "",
          "type": "uint256"
        }
      ],
      "name": "userList",
      "outputs": [
        {
          "internalType": "uint256",
          "name": "u_nic",
          "type": "uint256"
        },
        {
          "internalType": "string",
          "name": "u_name",
          "type": "string"
        },
        {
          "internalType": "string",
          "name": "u_contact",
          "type": "string"
        },
        {
          "internalType": "string",
          "name": "u_address",
          "type": "string"
        },
        {
          "internalType": "string",
          "name": "u_password",
          "type": "string"
        },
        {
          "internalType": "bool",
          "name": "isLoggedIn",
          "type": "bool"
        }
      ],
      "stateMutability": "view",
      "type": "function",
      "constant": true
    },
    {
      "inputs": [
        {
          "internalType": "uint256",
          "name": "",
          "type": "uint256"
        }
      ],
      "name": "userVehicles",
      "outputs": [
        {
          "internalType": "uint256",
          "name": "user_id",
          "type": "uint256"
        }
      ],
      "stateMutability": "view",
      "type": "function",
      "constant": true
    },
    {
      "inputs": [
        {
          "internalType": "string",
          "name": "",
          "type": "string"
        }
      ],
      "name": "vehicleList",
      "outputs": [
        {
          "internalType": "string",
          "name": "e_no",
          "type": "string"
        },
        {
          "internalType": "string",
          "name": "v_no",
          "type": "string"
        },
        {
          "internalType": "string",
          "name": "company",
          "type": "string"
        },
        {
          "internalType": "string",
          "name": "modal",
          "type": "string"
        },
        {
          "internalType": "string",
          "name": "year",
          "type": "string"
        },
        {
          "internalType": "uint256",
          "name": "owner_id",
          "type": "uint256"
        },
        {
          "internalType": "bool",
          "name": "reg_with_owner",
          "type": "bool"
        }
      ],
      "stateMutability": "view",
      "type": "function",
      "constant": true
    },
    {
      "inputs": [
        {
          "internalType": "uint256",
          "name": "_nic",
          "type": "uint256"
        },
        {
          "internalType": "string",
          "name": "_nam",
          "type": "string"
        },
        {
          "internalType": "string",
          "name": "_cont",
          "type": "string"
        },
        {
          "internalType": "string",
          "name": "_addr",
          "type": "string"
        },
        {
          "internalType": "string",
          "name": "_pass",
          "type": "string"
        }
      ],
      "name": "signUp",
      "outputs": [
        {
          "internalType": "bool",
          "name": "",
          "type": "bool"
        }
      ],
      "stateMutability": "nonpayable",
      "type": "function"
    },
    {
      "inputs": [
        {
          "internalType": "uint256",
          "name": "_nic",
          "type": "uint256"
        },
        {
          "internalType": "string",
          "name": "_pass",
          "type": "string"
        }
      ],
      "name": "LogIn",
      "outputs": [
        {
          "internalType": "bool",
          "name": "",
          "type": "bool"
        }
      ],
      "stateMutability": "nonpayable",
      "type": "function"
    },
    {
      "inputs": [
        {
          "internalType": "uint256",
          "name": "_nic",
          "type": "uint256"
        }
      ],
      "name": "LogOut",
      "outputs": [
        {
          "internalType": "bool",
          "name": "",
          "type": "bool"
        }
      ],
      "stateMutability": "nonpayable",
      "type": "function"
    },
    {
      "inputs": [
        {
          "internalType": "uint256",
          "name": "_nic",
          "type": "uint256"
        }
      ],
      "name": "getUserInfo",
      "outputs": [
        {
          "internalType": "uint256",
          "name": "",
          "type": "uint256"
        },
        {
          "internalType": "string",
          "name": "",
          "type": "string"
        },
        {
          "internalType": "string",
          "name": "",
          "type": "string"
        },
        {
          "internalType": "string",
          "name": "",
          "type": "string"
        },
        {
          "internalType": "bool",
          "name": "",
          "type": "bool"
        }
      ],
      "stateMutability": "view",
      "type": "function",
      "constant": true
    },
    {
      "inputs": [
        {
          "internalType": "uint256",
          "name": "_nic",
          "type": "uint256"
        }
      ],
      "name": "getFriendsList",
      "outputs": [
        {
          "components": [
            {
              "internalType": "uint256",
              "name": "f_nic",
              "type": "uint256"
            },
            {
              "internalType": "string",
              "name": "f_name",
              "type": "string"
            }
          ],
          "internalType": "struct BCar.Friend[]",
          "name": "",
          "type": "tuple[]"
        }
      ],
      "stateMutability": "view",
      "type": "function",
      "constant": true
    },
    {
      "inputs": [
        {
          "internalType": "uint256",
          "name": "_nic",
          "type": "uint256"
        },
        {
          "internalType": "uint256",
          "name": "f_nic",
          "type": "uint256"
        },
        {
          "internalType": "string",
          "name": "f_name",
          "type": "string"
        }
      ],
      "name": "addNewFriend",
      "outputs": [],
      "stateMutability": "nonpayable",
      "type": "function"
    },
    {
      "inputs": [
        {
          "internalType": "uint256",
          "name": "_nic",
          "type": "uint256"
        },
        {
          "internalType": "uint256",
          "name": "f_nic",
          "type": "uint256"
        }
      ],
      "name": "areFriends",
      "outputs": [
        {
          "internalType": "bool",
          "name": "",
          "type": "bool"
        }
      ],
      "stateMutability": "view",
      "type": "function",
      "constant": true
    },
    {
      "inputs": [
        {
          "internalType": "uint256",
          "name": "_nic",
          "type": "uint256"
        },
        {
          "internalType": "uint256",
          "name": "f_nic",
          "type": "uint256"
        },
        {
          "internalType": "string",
          "name": "_msg",
          "type": "string"
        }
      ],
      "name": "sendMessage",
      "outputs": [],
      "stateMutability": "nonpayable",
      "type": "function"
    },
    {
      "inputs": [
        {
          "internalType": "uint256",
          "name": "_nic",
          "type": "uint256"
        },
        {
          "internalType": "uint256",
          "name": "f_nic",
          "type": "uint256"
        }
      ],
      "name": "readMessage",
      "outputs": [
        {
          "components": [
            {
              "internalType": "uint256",
              "name": "sender_nic",
              "type": "uint256"
            },
            {
              "internalType": "uint256",
              "name": "timestamp",
              "type": "uint256"
            },
            {
              "internalType": "string",
              "name": "msg",
              "type": "string"
            }
          ],
          "internalType": "struct BCar.message[]",
          "name": "",
          "type": "tuple[]"
        }
      ],
      "stateMutability": "view",
      "type": "function",
      "constant": true
    },
    {
      "inputs": [
        {
          "internalType": "uint256",
          "name": "_nic",
          "type": "uint256"
        },
        {
          "internalType": "string",
          "name": "e_no",
          "type": "string"
        },
        {
          "internalType": "string",
          "name": "v_no",
          "type": "string"
        },
        {
          "internalType": "string",
          "name": "company",
          "type": "string"
        },
        {
          "internalType": "string",
          "name": "modal",
          "type": "string"
        },
        {
          "internalType": "string",
          "name": "year",
          "type": "string"
        }
      ],
      "name": "addNewVehicle",
      "outputs": [
        {
          "internalType": "bool",
          "name": "",
          "type": "bool"
        }
      ],
      "stateMutability": "nonpayable",
      "type": "function"
    },
    {
      "inputs": [
        {
          "internalType": "string",
          "name": "e_no",
          "type": "string"
        }
      ],
      "name": "getVehicleInfo",
      "outputs": [
        {
          "internalType": "string",
          "name": "",
          "type": "string"
        },
        {
          "internalType": "string",
          "name": "",
          "type": "string"
        },
        {
          "internalType": "string",
          "name": "",
          "type": "string"
        },
        {
          "internalType": "string",
          "name": "",
          "type": "string"
        },
        {
          "internalType": "string",
          "name": "",
          "type": "string"
        },
        {
          "internalType": "uint256",
          "name": "",
          "type": "uint256"
        },
        {
          "internalType": "bool",
          "name": "",
          "type": "bool"
        }
      ],
      "stateMutability": "view",
      "type": "function",
      "constant": true
    },
    {
      "inputs": [
        {
          "internalType": "uint256",
          "name": "_nic",
          "type": "uint256"
        },
        {
          "internalType": "string",
          "name": "e_no",
          "type": "string"
        }
      ],
      "name": "_addVehicle",
      "outputs": [],
      "stateMutability": "nonpayable",
      "type": "function"
    },
    {
      "inputs": [
        {
          "internalType": "uint256",
          "name": "_nic",
          "type": "uint256"
        }
      ],
      "name": "getUserVehicles",
      "outputs": [
        {
          "components": [
            {
              "internalType": "string",
              "name": "e_no",
              "type": "string"
            },
            {
              "internalType": "string",
              "name": "v_no",
              "type": "string"
            },
            {
              "internalType": "string",
              "name": "company",
              "type": "string"
            },
            {
              "internalType": "string",
              "name": "modal",
              "type": "string"
            },
            {
              "internalType": "string",
              "name": "year",
              "type": "string"
            },
            {
              "internalType": "uint256",
              "name": "owner_id",
              "type": "uint256"
            },
            {
              "internalType": "bool",
              "name": "reg_with_owner",
              "type": "bool"
            }
          ],
          "internalType": "struct BCar.Vehicle[]",
          "name": "",
          "type": "tuple[]"
        }
      ],
      "stateMutability": "view",
      "type": "function",
      "constant": true
    },
    {
      "inputs": [
        {
          "internalType": "uint256",
          "name": "_nic",
          "type": "uint256"
        },
        {
          "internalType": "uint256",
          "name": "n_nic",
          "type": "uint256"
        },
        {
          "internalType": "string",
          "name": "e_no",
          "type": "string"
        }
      ],
      "name": "transferVehicle",
      "outputs": [],
      "stateMutability": "nonpayable",
      "type": "function"
    },
    {
      "inputs": [
        {
          "internalType": "uint256",
          "name": "_nic",
          "type": "uint256"
        }
      ],
      "name": "isUserExist",
      "outputs": [
        {
          "internalType": "bool",
          "name": "",
          "type": "bool"
        }
      ],
      "stateMutability": "view",
      "type": "function",
      "constant": true
    },
    {
      "inputs": [
        {
          "internalType": "uint256",
          "name": "_nic",
          "type": "uint256"
        }
      ],
      "name": "isLoggedIn",
      "outputs": [
        {
          "internalType": "bool",
          "name": "",
          "type": "bool"
        }
      ],
      "stateMutability": "view",
      "type": "function",
      "constant": true
    },
    {
      "inputs": [
        {
          "internalType": "string",
          "name": "e_no",
          "type": "string"
        }
      ],
      "name": "isVehicleRegistered",
      "outputs": [
        {
          "internalType": "bool",
          "name": "",
          "type": "bool"
        }
      ],
      "stateMutability": "view",
      "type": "function",
      "constant": true
    },
    {
      "inputs": [
        {
          "internalType": "string",
          "name": "e_no",
          "type": "string"
        },
        {
          "internalType": "uint256",
          "name": "_nic",
          "type": "uint256"
        }
      ],
      "name": "isVehicleRegisteredWithTheUser",
      "outputs": [
        {
          "internalType": "bool",
          "name": "",
          "type": "bool"
        }
      ],
      "stateMutability": "view",
      "type": "function",
      "constant": true
    }
  ],
  "bytecode": "0x608060405260008055600060055534801561001957600080fd5b5061472f806100296000396000f3fe608060405234801561001057600080fd5b50600436106101585760003560e01c80637b4ea148116100c3578063c6c881611161007c578063c6c88161146104a3578063cd813990146104d3578063d379dadf146104ef578063edf6a3d414610523578063f10eee2314610553578063f7a094e11461058957610158565b80637b4ea1481461038b5780639f4216e8146103bb578063a2bdedf4146103f0578063ab32c50814610421578063ac56730f14610457578063b312b5bc1461048757610158565b806339561dba1161011557806339561dba1461027f578063449a34ba1461029b5780635724d5d3146102cb5780635b3d8bd1146102fb57806369f943da1461032b5780636e7a7a741461035b57610158565b80631a11cc441461015d57806321668a011461018d578063259b3f63146101be57806326344c8b146101ee578063314c4ff91461021e578063321675f31461024e575b600080fd5b61017760048036038101906101729190612b9d565b6105a5565b6040516101849190612dfe565b60405180910390f35b6101a760048036038101906101a29190612b9d565b610961565b6040516101b5929190612e79565b60405180910390f35b6101d860048036038101906101d39190612ea9565b610a0d565b6040516101e59190612ffb565b60405180910390f35b61020860048036038101906102039190612b9d565b610b35565b604051610215919061302c565b60405180910390f35b6102386004803603810190610233919061317c565b610b62565b604051610245919061302c565b60405180910390f35b61026860048036038101906102639190612b9d565b610cce565b604051610276929190612e79565b60405180910390f35b61029960048036038101906102949190613238565b610d7a565b005b6102b560048036038101906102b09190612b9d565b610f79565b6040516102c291906133ab565b60405180910390f35b6102e560048036038101906102e091906133cd565b61111a565b6040516102f2919061302c565b60405180910390f35b610315600480360381019061031091906134b8565b6112e2565b604051610322919061302c565b60405180910390f35b610345600480360381019061034091906135d1565b611583565b604051610352919061302c565b60405180910390f35b61037560048036038101906103709190612b9d565b6115bb565b604051610382919061302c565b60405180910390f35b6103a560048036038101906103a09190612b9d565b611672565b6040516103b2919061361a565b60405180910390f35b6103d560048036038101906103d09190612b9d565b611690565b6040516103e796959493929190613635565b60405180910390f35b61040a60048036038101906104059190612b9d565b6118f9565b6040516104189291906136b2565b60405180910390f35b61043b600480360381019061043691906135d1565b61191d565b60405161044e97969594939291906136db565b60405180910390f35b610471600480360381019061046c9190612b9d565b611d3b565b60405161047e919061302c565b60405180910390f35b6104a1600480360381019061049c9190613238565b611d69565b005b6104bd60048036038101906104b8919061376d565b611fc4565b6040516104ca919061302c565b60405180910390f35b6104ed60048036038101906104e8919061317c565b611ff2565b005b61050960048036038101906105049190612b9d565b6120f5565b60405161051a9594939291906137c9565b60405180910390f35b61053d60048036038101906105389190612ea9565b61237a565b60405161054a919061302c565b60405180910390f35b61056d600480360381019061056891906135d1565b612450565b60405161058097969594939291906136db565b60405180910390f35b6105a3600480360381019061059e9190613831565b61275d565b005b60606105b082610b35565b6105ef576040517f08c379a00000000000000000000000000000000000000000000000000000000081526004016105e6906138ec565b60405180910390fd5b60086000838152602001908152602001600020600101805480602002602001604051908101604052809291908181526020016000905b8282101561095657838290600052602060002090600702016040518060e00160405290816000820180546106589061393b565b80601f01602080910402602001604051908101604052809291908181526020018280546106849061393b565b80156106d15780601f106106a6576101008083540402835291602001916106d1565b820191906000526020600020905b8154815290600101906020018083116106b457829003601f168201915b505050505081526020016001820180546106ea9061393b565b80601f01602080910402602001604051908101604052809291908181526020018280546107169061393b565b80156107635780601f1061073857610100808354040283529160200191610763565b820191906000526020600020905b81548152906001019060200180831161074657829003601f168201915b5050505050815260200160028201805461077c9061393b565b80601f01602080910402602001604051908101604052809291908181526020018280546107a89061393b565b80156107f55780601f106107ca576101008083540402835291602001916107f5565b820191906000526020600020905b8154815290600101906020018083116107d857829003601f168201915b5050505050815260200160038201805461080e9061393b565b80601f016020809104026020016040519081016040528092919081815260200182805461083a9061393b565b80156108875780601f1061085c57610100808354040283529160200191610887565b820191906000526020600020905b81548152906001019060200180831161086a57829003601f168201915b505050505081526020016004820180546108a09061393b565b80601f01602080910402602001604051908101604052809291908181526020018280546108cc9061393b565b80156109195780601f106108ee57610100808354040283529160200191610919565b820191906000526020600020905b8154815290600101906020018083116108fc57829003601f168201915b50505050508152602001600582015481526020016006820160009054906101000a900460ff16151515158152505081526020019060010190610625565b505050509050919050565b600360205280600052604060002060009150905080600001549080600101805461098a9061393b565b80601f01602080910402602001604051908101604052809291908181526020018280546109b69061393b565b8015610a035780601f106109d857610100808354040283529160200191610a03565b820191906000526020600020905b8154815290600101906020018083116109e657829003601f168201915b5050505050905082565b60606000610a1b8484612a66565b905060046000828152602001908152602001600020805480602002602001604051908101604052809291908181526020016000905b82821015610b2857838290600052602060002090600302016040518060600160405290816000820154815260200160018201548152602001600282018054610a979061393b565b80601f0160208091040260200160405190810160405280929190818152602001828054610ac39061393b565b8015610b105780601f10610ae557610100808354040283529160200191610b10565b820191906000526020600020905b815481529060010190602001808311610af357829003601f168201915b50505050508152505081526020019060010190610a50565b5050505091505092915050565b60006002600083815260200190815260200160002060050160009054906101000a900460ff169050919050565b6000610b6d83611d3b565b610bac576040517f08c379a0000000000000000000000000000000000000000000000000000000008152600401610ba3906139b8565b60405180910390fd5b610bb583610b35565b15610bf5576040517f08c379a0000000000000000000000000000000000000000000000000000000008152600401610bec90613a24565b60405180910390fd5b60026000848152602001908152602001600020600401604051602001610c1b9190613ae7565b6040516020818303038152906040528051906020012082604051602001610c429190613b2f565b6040516020818303038152906040528051906020012014610c98576040517f08c379a0000000000000000000000000000000000000000000000000000000008152600401610c8f90613b92565b60405180910390fd5b60016002600085815260200190815260200160002060050160006101000a81548160ff0219169083151502179055905092915050565b6006602052806000526040600020600091509050806000015490806001018054610cf79061393b565b80601f0160208091040260200160405190810160405280929190818152602001828054610d239061393b565b8015610d705780601f10610d4557610100808354040283529160200191610d70565b820191906000526020600020905b815481529060010190602001808311610d5357829003601f168201915b5050505050905082565b610d8384610b35565b610dc2576040517f08c379a0000000000000000000000000000000000000000000000000000000008152600401610db9906138ec565b60405180910390fd5b610dcb83611d3b565b610e0a576040517f08c379a0000000000000000000000000000000000000000000000000000000008152600401610e0190613c24565b60405180910390fd5b60011515610e18858561237a565b151514610e5a576040517f08c379a0000000000000000000000000000000000000000000000000000000008152600401610e5190613cb6565b60405180910390fd5b6000610e668585612a66565b90506000604051806060016040528087815260200142815260200185858080601f016020809104026020016040519081016040528093929190818152602001838380828437600081840152601f19601f8201169050808301925050505050505081525090506004600083815260200190815260200160002081908060018154018082558091505060019003906000526020600020906003020160009091909190915060008201518160000155602082015181600101556040820151816002019081610f319190613e6d565b5050507fd96231ef676e3e8799b3f576a020cb0fbe997efd03802226119b87674b11c1c286868686604051610f699493929190613f6c565b60405180910390a1505050505050565b6060610f8482611d3b565b610fc3576040517f08c379a0000000000000000000000000000000000000000000000000000000008152600401610fba90613ff8565b60405180910390fd5b610fcc82610b35565b61100b576040517f08c379a0000000000000000000000000000000000000000000000000000000008152600401611002906138ec565b60405180910390fd5b60026000838152602001908152602001600020600601805480602002602001604051908101604052809291908181526020016000905b8282101561110f57838290600052602060002090600202016040518060400160405290816000820154815260200160018201805461107e9061393b565b80601f01602080910402602001604051908101604052809291908181526020018280546110aa9061393b565b80156110f75780601f106110cc576101008083540402835291602001916110f7565b820191906000526020600020905b8154815290600101906020018083116110da57829003601f168201915b50505050508152505081526020019060010190611041565b505050509050919050565b600061112586611d3b565b15611165576040517f08c379a000000000000000000000000000000000000000000000000000000000815260040161115c90614064565b60405180910390fd5b856002600088815260200190815260200160002060000181905550846002600088815260200190815260200160002060010190816111a39190613e6d565b50836002600088815260200190815260200160002060020190816111c79190613e6d565b50826002600088815260200190815260200160002060030190816111eb9190613e6d565b508160026000888152602001908152602001600020600401908161120f9190613e6d565b5060016002600088815260200190815260200160002060050160006101000a81548160ff021916908315150217905550600080815480929190611251906140b3565b91905055506040518060400160405280600054815260200187815250600160008054815260200190815260200160002060008201518160000155602082015181600101559050507ff4f62c47f24224b311017882c675231104f94c03da61192ac4312d300a799639858786856040516112cd94939291906140fb565b60405180910390a16001905095945050505050565b60006112ed87610b35565b61132c576040517f08c379a0000000000000000000000000000000000000000000000000000000008152600401611323906138ec565b60405180910390fd5b61133586611583565b15611375576040517f08c379a000000000000000000000000000000000000000000000000000000000815260040161136c906141a1565b60405180910390fd5b856007876040516113869190613b2f565b908152602001604051809103902060000190816113a39190613e6d565b50846007876040516113b59190613b2f565b908152602001604051809103902060010190816113d29190613e6d565b50836007876040516113e49190613b2f565b908152602001604051809103902060020190816114019190613e6d565b50826007876040516114139190613b2f565b908152602001604051809103902060030190816114309190613e6d565b50816007876040516114429190613b2f565b9081526020016040518091039020600401908161145f9190613e6d565b50866007876040516114719190613b2f565b90815260200160405180910390206005018190555060016007876040516114989190613b2f565b908152602001604051809103902060060160006101000a81548160ff021916908315150217905550600560008154809291906114d3906140b3565b919050555060405180604001604052806005548152602001878152506006600060055481526020019081526020016000206000820151816000015560208201518160010190816115239190613e6d565b509050507fcffcfe9c611d548f2a90bba136f5ae1dbfc1388cbd0d0bebad971e7f967d4c2b86868686868c600160405161156397969594939291906136db565b60405180910390a16115758787611ff2565b600190509695505050505050565b60006007826040516115959190613b2f565b908152602001604051809103902060060160009054906101000a900460ff169050919050565b60006115c682610b35565b611605576040517f08c379a00000000000000000000000000000000000000000000000000000000081526004016115fc906138ec565b60405180910390fd5b7f63ec3f4df310cbea2a7bef14e7983a49708f46e93064cfbc28087a44a6ea24f46000604051611635919061302c565b60405180910390a160006002600084815260200190815260200160002060050160006101000a81548160ff02191690831515021790559050919050565b60086020528060005260406000206000915090508060000154905081565b60026020528060005260406000206000915090508060000154908060010180546116b99061393b565b80601f01602080910402602001604051908101604052809291908181526020018280546116e59061393b565b80156117325780601f1061170757610100808354040283529160200191611732565b820191906000526020600020905b81548152906001019060200180831161171557829003601f168201915b5050505050908060020180546117479061393b565b80601f01602080910402602001604051908101604052809291908181526020018280546117739061393b565b80156117c05780601f10611795576101008083540402835291602001916117c0565b820191906000526020600020905b8154815290600101906020018083116117a357829003601f168201915b5050505050908060030180546117d59061393b565b80601f01602080910402602001604051908101604052809291908181526020018280546118019061393b565b801561184e5780601f106118235761010080835404028352916020019161184e565b820191906000526020600020905b81548152906001019060200180831161183157829003601f168201915b5050505050908060040180546118639061393b565b80601f016020809104026020016040519081016040528092919081815260200182805461188f9061393b565b80156118dc5780601f106118b1576101008083540402835291602001916118dc565b820191906000526020600020905b8154815290600101906020018083116118bf57829003601f168201915b5050505050908060050160009054906101000a900460ff16905086565b60016020528060005260406000206000915090508060000154908060010154905082565b606080606080606060008061193188611583565b611970576040517f08c379a00000000000000000000000000000000000000000000000000000000081526004016119679061420d565b60405180910390fd5b6007886040516119809190613b2f565b90815260200160405180910390206000016007896040516119a19190613b2f565b908152602001604051809103902060010160078a6040516119c29190613b2f565b908152602001604051809103902060020160078b6040516119e39190613b2f565b908152602001604051809103902060030160078c604051611a049190613b2f565b908152602001604051809103902060040160078d604051611a259190613b2f565b90815260200160405180910390206005015460078e604051611a479190613b2f565b908152602001604051809103902060060160009054906101000a900460ff16868054611a729061393b565b80601f0160208091040260200160405190810160405280929190818152602001828054611a9e9061393b565b8015611aeb5780601f10611ac057610100808354040283529160200191611aeb565b820191906000526020600020905b815481529060010190602001808311611ace57829003601f168201915b50505050509650858054611afe9061393b565b80601f0160208091040260200160405190810160405280929190818152602001828054611b2a9061393b565b8015611b775780601f10611b4c57610100808354040283529160200191611b77565b820191906000526020600020905b815481529060010190602001808311611b5a57829003601f168201915b50505050509550848054611b8a9061393b565b80601f0160208091040260200160405190810160405280929190818152602001828054611bb69061393b565b8015611c035780601f10611bd857610100808354040283529160200191611c03565b820191906000526020600020905b815481529060010190602001808311611be657829003601f168201915b50505050509450838054611c169061393b565b80601f0160208091040260200160405190810160405280929190818152602001828054611c429061393b565b8015611c8f5780601f10611c6457610100808354040283529160200191611c8f565b820191906000526020600020905b815481529060010190602001808311611c7257829003601f168201915b50505050509350828054611ca29061393b565b80601f0160208091040260200160405190810160405280929190818152602001828054611cce9061393b565b8015611d1b5780601f10611cf057610100808354040283529160200191611d1b565b820191906000526020600020905b815481529060010190602001808311611cfe57829003601f168201915b505050505092509650965096509650965096509650919395979092949650565b600080600260008481526020019081526020016000206001018054611d5f9061393b565b9050119050919050565b611d7284610b35565b611db1576040517f08c379a0000000000000000000000000000000000000000000000000000000008152600401611da8906138ec565b60405180910390fd5b611dba83611d3b565b611df9576040517f08c379a0000000000000000000000000000000000000000000000000000000008152600401611df090613c24565b60405180910390fd5b828403611e3b576040517f08c379a0000000000000000000000000000000000000000000000000000000008152600401611e329061429f565b60405180910390fd5b60001515611e49858561237a565b151514611e8b576040517f08c379a0000000000000000000000000000000000000000000000000000000008152600401611e829061430b565b60405180910390fd5b611eda848484848080601f016020809104026020016040519081016040528093929190818152602001838380828437600081840152601f19601f82011690508083019250505050505050612ad2565b611f838385600260008881526020019081526020016000206001018054611f009061393b565b80601f0160208091040260200160405190810160405280929190818152602001828054611f2c9061393b565b8015611f795780601f10611f4e57610100808354040283529160200191611f79565b820191906000526020600020905b815481529060010190602001808311611f5c57829003601f168201915b5050505050612ad2565b7fe514c4afa30880e1ca9b0dc7a1cb62a81ff9cab2e30c36cea191354f50ff66b2838383604051611fb69392919061432b565b60405180910390a150505050565b600081600784604051611fd79190613b2f565b90815260200160405180910390206005015414905092915050565b600860008381526020019081526020016000206001016007826040516120189190613b2f565b90815260200160405180910390209080600181540180825580915050600190039060005260206000209060070201600090919091909150600082018160000190816120639190614373565b50600182018160010190816120789190614373565b506002820181600201908161208d9190614373565b50600382018160030190816120a29190614373565b50600482018160040190816120b79190614373565b50600582015481600501556006820160009054906101000a900460ff168160060160006101000a81548160ff02191690831515021790555050505050565b60006060806060600061210786611d3b565b612146576040517f08c379a000000000000000000000000000000000000000000000000000000000815260040161213d906139b8565b60405180910390fd5b60026000878152602001908152602001600020600001546002600088815260200190815260200160002060010160026000898152602001908152602001600020600201600260008a8152602001908152602001600020600301600260008b815260200190815260200160002060050160009054906101000a900460ff168380546121cf9061393b565b80601f01602080910402602001604051908101604052809291908181526020018280546121fb9061393b565b80156122485780601f1061221d57610100808354040283529160200191612248565b820191906000526020600020905b81548152906001019060200180831161222b57829003601f168201915b5050505050935082805461225b9061393b565b80601f01602080910402602001604051908101604052809291908181526020018280546122879061393b565b80156122d45780601f106122a9576101008083540402835291602001916122d4565b820191906000526020600020905b8154815290600101906020018083116122b757829003601f168201915b505050505092508180546122e79061393b565b80601f01602080910402602001604051908101604052809291908181526020018280546123139061393b565b80156123605780601f1061233557610100808354040283529160200191612360565b820191906000526020600020905b81548152906001019060200180831161234357829003601f168201915b505050505091509450945094509450945091939590929450565b60006002600083815260200190815260200160002060060180549050600260008581526020019081526020016000206006018054905011156123c3576000839050829350809250505b60005b600260008581526020019081526020016000206006018054905081101561244457826002600086815260200190815260200160002060060182815481106124105761240f61445b565b5b9060005260206000209060020201600001540361243157600191505061244a565b808061243c906140b3565b9150506123c6565b50600090505b92915050565b6007818051602081018201805184825260208301602085012081835280955050505050506000915090508060000180546124899061393b565b80601f01602080910402602001604051908101604052809291908181526020018280546124b59061393b565b80156125025780601f106124d757610100808354040283529160200191612502565b820191906000526020600020905b8154815290600101906020018083116124e557829003601f168201915b5050505050908060010180546125179061393b565b80601f01602080910402602001604051908101604052809291908181526020018280546125439061393b565b80156125905780601f1061256557610100808354040283529160200191612590565b820191906000526020600020905b81548152906001019060200180831161257357829003601f168201915b5050505050908060020180546125a59061393b565b80601f01602080910402602001604051908101604052809291908181526020018280546125d19061393b565b801561261e5780601f106125f35761010080835404028352916020019161261e565b820191906000526020600020905b81548152906001019060200180831161260157829003601f168201915b5050505050908060030180546126339061393b565b80601f016020809104026020016040519081016040528092919081815260200182805461265f9061393b565b80156126ac5780601f10612681576101008083540402835291602001916126ac565b820191906000526020600020905b81548152906001019060200180831161268f57829003601f168201915b5050505050908060040180546126c19061393b565b80601f01602080910402602001604051908101604052809291908181526020018280546126ed9061393b565b801561273a5780601f1061270f5761010080835404028352916020019161273a565b820191906000526020600020905b81548152906001019060200180831161271d57829003601f168201915b5050505050908060050154908060060160009054906101000a900460ff16905087565b61276683610b35565b6127a5576040517f08c379a000000000000000000000000000000000000000000000000000000000815260040161279c906138ec565b60405180910390fd5b8183036127e7576040517f08c379a00000000000000000000000000000000000000000000000000000000081526004016127de906144fc565b60405180910390fd5b6127f082611d3b565b61282f576040517f08c379a000000000000000000000000000000000000000000000000000000000815260040161282690614568565b60405180910390fd5b61283881611583565b612877576040517f08c379a000000000000000000000000000000000000000000000000000000000815260040161286e906145fa565b60405180910390fd5b6128818184611fc4565b6128c0576040517f08c379a00000000000000000000000000000000000000000000000000000000081526004016128b79061468c565b60405180910390fd5b6128ca8282611ff2565b60005b6008600085815260200190815260200160002060010180549050811015612a6057816040516020016128ff9190613b2f565b6040516020818303038152906040528051906020012060086000868152602001908152602001600020600101828154811061293d5761293c61445b565b5b906000526020600020906007020160000160405160200161295e9190613ae7565b604051602081830303815290604052805190602001201480156129cb5750600115156008600086815260200190815260200160002060010182815481106129a8576129a761445b565b5b906000526020600020906007020160060160009054906101000a900460ff161515145b15612a4d5760006008600086815260200190815260200160002060010182815481106129fa576129f961445b565b5b906000526020600020906007020160060160006101000a81548160ff02191690831515021790555082600783604051612a339190613b2f565b908152602001604051809103902060050181905550612a60565b8080612a58906140b3565b9150506128cd565b50505050565b600081831015612aa0578282604051602001612a839291906146cd565b604051602081830303815290604052805190602001209050612acc565b8183604051602001612ab39291906146cd565b6040516020818303038152906040528051906020012090505b92915050565b6000604051806040016040528084815260200183815250905060026000858152602001908152602001600020600601819080600181540180825580915050600190039060005260206000209060020201600090919091909150600082015181600001556020820151816001019081612b4a9190613e6d565b50505050505050565b6000604051905090565b600080fd5b600080fd5b6000819050919050565b612b7a81612b67565b8114612b8557600080fd5b50565b600081359050612b9781612b71565b92915050565b600060208284031215612bb357612bb2612b5d565b5b6000612bc184828501612b88565b91505092915050565b600081519050919050565b600082825260208201905092915050565b6000819050602082019050919050565b600081519050919050565b600082825260208201905092915050565b60005b83811015612c30578082015181840152602081019050612c15565b60008484015250505050565b6000601f19601f8301169050919050565b6000612c5882612bf6565b612c628185612c01565b9350612c72818560208601612c12565b612c7b81612c3c565b840191505092915050565b612c8f81612b67565b82525050565b60008115159050919050565b612caa81612c95565b82525050565b600060e0830160008301518482036000860152612ccd8282612c4d565b91505060208301518482036020860152612ce78282612c4d565b91505060408301518482036040860152612d018282612c4d565b91505060608301518482036060860152612d1b8282612c4d565b91505060808301518482036080860152612d358282612c4d565b91505060a0830151612d4a60a0860182612c86565b5060c0830151612d5d60c0860182612ca1565b508091505092915050565b6000612d748383612cb0565b905092915050565b6000602082019050919050565b6000612d9482612bca565b612d9e8185612bd5565b935083602082028501612db085612be6565b8060005b85811015612dec5784840389528151612dcd8582612d68565b9450612dd883612d7c565b925060208a01995050600181019050612db4565b50829750879550505050505092915050565b60006020820190508181036000830152612e188184612d89565b905092915050565b612e2981612b67565b82525050565b600082825260208201905092915050565b6000612e4b82612bf6565b612e558185612e2f565b9350612e65818560208601612c12565b612e6e81612c3c565b840191505092915050565b6000604082019050612e8e6000830185612e20565b8181036020830152612ea08184612e40565b90509392505050565b60008060408385031215612ec057612ebf612b5d565b5b6000612ece85828601612b88565b9250506020612edf85828601612b88565b9150509250929050565b600081519050919050565b600082825260208201905092915050565b6000819050602082019050919050565b6000606083016000830151612f2d6000860182612c86565b506020830151612f406020860182612c86565b5060408301518482036040860152612f588282612c4d565b9150508091505092915050565b6000612f718383612f15565b905092915050565b6000602082019050919050565b6000612f9182612ee9565b612f9b8185612ef4565b935083602082028501612fad85612f05565b8060005b85811015612fe95784840389528151612fca8582612f65565b9450612fd583612f79565b925060208a01995050600181019050612fb1565b50829750879550505050505092915050565b600060208201905081810360008301526130158184612f86565b905092915050565b61302681612c95565b82525050565b6000602082019050613041600083018461301d565b92915050565b600080fd5b600080fd5b7f4e487b7100000000000000000000000000000000000000000000000000000000600052604160045260246000fd5b61308982612c3c565b810181811067ffffffffffffffff821117156130a8576130a7613051565b5b80604052505050565b60006130bb612b53565b90506130c78282613080565b919050565b600067ffffffffffffffff8211156130e7576130e6613051565b5b6130f082612c3c565b9050602081019050919050565b82818337600083830152505050565b600061311f61311a846130cc565b6130b1565b90508281526020810184848401111561313b5761313a61304c565b5b6131468482856130fd565b509392505050565b600082601f83011261316357613162613047565b5b813561317384826020860161310c565b91505092915050565b6000806040838503121561319357613192612b5d565b5b60006131a185828601612b88565b925050602083013567ffffffffffffffff8111156131c2576131c1612b62565b5b6131ce8582860161314e565b9150509250929050565b600080fd5b600080fd5b60008083601f8401126131f8576131f7613047565b5b8235905067ffffffffffffffff811115613215576132146131d8565b5b602083019150836001820283011115613231576132306131dd565b5b9250929050565b6000806000806060858703121561325257613251612b5d565b5b600061326087828801612b88565b945050602061327187828801612b88565b935050604085013567ffffffffffffffff81111561329257613291612b62565b5b61329e878288016131e2565b925092505092959194509250565b600081519050919050565b600082825260208201905092915050565b6000819050602082019050919050565b60006040830160008301516132f06000860182612c86565b50602083015184820360208601526133088282612c4d565b9150508091505092915050565b600061332183836132d8565b905092915050565b6000602082019050919050565b6000613341826132ac565b61334b81856132b7565b93508360208202850161335d856132c8565b8060005b85811015613399578484038952815161337a8582613315565b945061338583613329565b925060208a01995050600181019050613361565b50829750879550505050505092915050565b600060208201905081810360008301526133c58184613336565b905092915050565b600080600080600060a086880312156133e9576133e8612b5d565b5b60006133f788828901612b88565b955050602086013567ffffffffffffffff81111561341857613417612b62565b5b6134248882890161314e565b945050604086013567ffffffffffffffff81111561344557613444612b62565b5b6134518882890161314e565b935050606086013567ffffffffffffffff81111561347257613471612b62565b5b61347e8882890161314e565b925050608086013567ffffffffffffffff81111561349f5761349e612b62565b5b6134ab8882890161314e565b9150509295509295909350565b60008060008060008060c087890312156134d5576134d4612b5d565b5b60006134e389828a01612b88565b965050602087013567ffffffffffffffff81111561350457613503612b62565b5b61351089828a0161314e565b955050604087013567ffffffffffffffff81111561353157613530612b62565b5b61353d89828a0161314e565b945050606087013567ffffffffffffffff81111561355e5761355d612b62565b5b61356a89828a0161314e565b935050608087013567ffffffffffffffff81111561358b5761358a612b62565b5b61359789828a0161314e565b92505060a087013567ffffffffffffffff8111156135b8576135b7612b62565b5b6135c489828a0161314e565b9150509295509295509295565b6000602082840312156135e7576135e6612b5d565b5b600082013567ffffffffffffffff81111561360557613604612b62565b5b6136118482850161314e565b91505092915050565b600060208201905061362f6000830184612e20565b92915050565b600060c08201905061364a6000830189612e20565b818103602083015261365c8188612e40565b905081810360408301526136708187612e40565b905081810360608301526136848186612e40565b905081810360808301526136988185612e40565b90506136a760a083018461301d565b979650505050505050565b60006040820190506136c76000830185612e20565b6136d46020830184612e20565b9392505050565b600060e08201905081810360008301526136f5818a612e40565b905081810360208301526137098189612e40565b9050818103604083015261371d8188612e40565b905081810360608301526137318187612e40565b905081810360808301526137458186612e40565b905061375460a0830185612e20565b61376160c083018461301d565b98975050505050505050565b6000806040838503121561378457613783612b5d565b5b600083013567ffffffffffffffff8111156137a2576137a1612b62565b5b6137ae8582860161314e565b92505060206137bf85828601612b88565b9150509250929050565b600060a0820190506137de6000830188612e20565b81810360208301526137f08187612e40565b905081810360408301526138048186612e40565b905081810360608301526138188185612e40565b9050613827608083018461301d565b9695505050505050565b60008060006060848603121561384a57613849612b5d565b5b600061385886828701612b88565b935050602061386986828701612b88565b925050604084013567ffffffffffffffff81111561388a57613889612b62565b5b6138968682870161314e565b9150509250925092565b7f596f75204e65656420546f204c6f6720496e2046697273742100000000000000600082015250565b60006138d6601983612e2f565b91506138e1826138a0565b602082019050919050565b60006020820190508181036000830152613905816138c9565b9050919050565b7f4e487b7100000000000000000000000000000000000000000000000000000000600052602260045260246000fd5b6000600282049050600182168061395357607f821691505b6020821081036139665761396561390c565b5b50919050565b7f5573657220646f6573206e6f7420657869737473210000000000000000000000600082015250565b60006139a2601583612e2f565b91506139ad8261396c565b602082019050919050565b600060208201905081810360008301526139d181613995565b9050919050565b7f596f752061726520416c7265616479204c6f6767656420496e21000000000000600082015250565b6000613a0e601a83612e2f565b9150613a19826139d8565b602082019050919050565b60006020820190508181036000830152613a3d81613a01565b9050919050565b600081905092915050565b60008190508160005260206000209050919050565b60008154613a718161393b565b613a7b8186613a44565b94506001821660008114613a965760018114613aab57613ade565b60ff1983168652811515820286019350613ade565b613ab485613a4f565b60005b83811015613ad657815481890152600182019150602081019050613ab7565b838801955050505b50505092915050565b6000613af38284613a64565b915081905092915050565b6000613b0982612bf6565b613b138185613a44565b9350613b23818560208601612c12565b80840191505092915050565b6000613b3b8284613afe565b915081905092915050565b7f50617373776f7220446f6573204e6f74204d6174636865642100000000000000600082015250565b6000613b7c601983612e2f565b9150613b8782613b46565b602082019050919050565b60006020820190508181036000830152613bab81613b6f565b9050919050565b7f596f757220466972656e6420446f6573204e6f7420526567697374657265642060008201527f57697468205468652053797374656d2100000000000000000000000000000000602082015250565b6000613c0e603083612e2f565b9150613c1982613bb2565b604082019050919050565b60006020820190508181036000830152613c3d81613c01565b9050919050565b7f596f7520617265206e6f7420667269656e64732077697468207468652067697660008201527f656e207573657221000000000000000000000000000000000000000000000000602082015250565b6000613ca0602883612e2f565b9150613cab82613c44565b604082019050919050565b60006020820190508181036000830152613ccf81613c93565b9050919050565b60006020601f8301049050919050565b600082821b905092915050565b600060088302613d237fffffffffffffffffffffffffffffffffffffffffffffffffffffffffffffffff82613ce6565b613d2d8683613ce6565b95508019841693508086168417925050509392505050565b6000819050919050565b6000613d6a613d65613d6084612b67565b613d45565b612b67565b9050919050565b6000819050919050565b613d8483613d4f565b613d98613d9082613d71565b848454613cf3565b825550505050565b600090565b613dad613da0565b613db8818484613d7b565b505050565b5b81811015613ddc57613dd1600082613da5565b600181019050613dbe565b5050565b601f821115613e2157613df281613a4f565b613dfb84613cd6565b81016020851015613e0a578190505b613e1e613e1685613cd6565b830182613dbd565b50505b505050565b600082821c905092915050565b6000613e4460001984600802613e26565b1980831691505092915050565b6000613e5d8383613e33565b9150826002028217905092915050565b613e7682612bf6565b67ffffffffffffffff811115613e8f57613e8e613051565b5b613e99825461393b565b613ea4828285613de0565b600060209050601f831160018114613ed75760008415613ec5578287015190505b613ecf8582613e51565b865550613f37565b601f198416613ee586613a4f565b60005b82811015613f0d57848901518255600182019150602085019450602081019050613ee8565b86831015613f2a5784890151613f26601f891682613e33565b8355505b6001600288020188555050505b505050505050565b6000613f4b8385612e2f565b9350613f588385846130fd565b613f6183612c3c565b840190509392505050565b6000606082019050613f816000830187612e20565b613f8e6020830186612e20565b8181036040830152613fa1818486613f3f565b905095945050505050565b7f5573657220657869737473210000000000000000000000000000000000000000600082015250565b6000613fe2600c83612e2f565b9150613fed82613fac565b602082019050919050565b6000602082019050818103600083015261401181613fd5565b9050919050565b7f5573657220616c72656164792065786973747321000000000000000000000000600082015250565b600061404e601483612e2f565b915061405982614018565b602082019050919050565b6000602082019050818103600083015261407d81614041565b9050919050565b7f4e487b7100000000000000000000000000000000000000000000000000000000600052601160045260246000fd5b60006140be82612b67565b91507fffffffffffffffffffffffffffffffffffffffffffffffffffffffffffffffff82036140f0576140ef614084565b5b600182019050919050565b600060808201905081810360008301526141158187612e40565b90506141246020830186612e20565b81810360408301526141368185612e40565b9050818103606083015261414a8184612e40565b905095945050505050565b7f56656869636c6520416c72656164792052646769737465726564000000000000600082015250565b600061418b601a83612e2f565b915061419682614155565b602082019050919050565b600060208201905081810360008301526141ba8161417e565b9050919050565b7f56656869636c65206973206e6f74205265676973746572656400000000000000600082015250565b60006141f7601983612e2f565b9150614202826141c1565b602082019050919050565b60006020820190508181036000830152614226816141ea565b9050919050565b7f557365722063616e6e6f74206164642068696d2f6865722073656c662061732060008201527f667269656e642100000000000000000000000000000000000000000000000000602082015250565b6000614289602783612e2f565b91506142948261422d565b604082019050919050565b600060208201905081810360008301526142b88161427c565b9050919050565b7f54686573652075736572732061726520616c726561647920667269656e647321600082015250565b60006142f5602083612e2f565b9150614300826142bf565b602082019050919050565b60006020820190508181036000830152614324816142e8565b9050919050565b60006040820190506143406000830186612e20565b8181036020830152614353818486613f3f565b9050949350505050565b60008154905061436c8161393b565b9050919050565b818103614381575050614459565b61438a8261435d565b67ffffffffffffffff8111156143a3576143a2613051565b5b6143ad825461393b565b6143b8828285613de0565b6000601f8311600181146143e757600084156143d5578287015490505b6143df8582613e51565b865550614452565b601f1984166143f587613a4f565b965061440086613a4f565b60005b8281101561442857848901548255600182019150600185019450602081019050614403565b868310156144455784890154614441601f891682613e33565b8355505b6001600288020188555050505b5050505050505b565b7f4e487b7100000000000000000000000000000000000000000000000000000000600052603260045260246000fd5b7f557365722063616e6e6f74207472616e73666572207468652076656869636c6560008201527f2064617461206f6e206869732f686572206163636f756e742100000000000000602082015250565b60006144e6603983612e2f565b91506144f18261448a565b604082019050919050565b60006020820190508181036000830152614515816144d9565b9050919050565b7f4f746865722055736572204973204e6f74205265676973746572656421000000600082015250565b6000614552601d83612e2f565b915061455d8261451c565b602082019050919050565b6000602082019050818103600083015261458181614545565b9050919050565b7f56656869636c6520596f752041726520547279696e6720546f205472616e736660008201527f6572206973204e6f742052656769737465726564210000000000000000000000602082015250565b60006145e4603583612e2f565b91506145ef82614588565b604082019050919050565b60006020820190508181036000830152614613816145d7565b9050919050565b7f56656869636c6520596f752041726520547279696e6720546f205472616e736660008201527f6572206973204e6f742052656769737465726564205769746820596f75210000602082015250565b6000614676603e83612e2f565b91506146818261461a565b604082019050919050565b600060208201905081810360008301526146a581614669565b9050919050565b6000819050919050565b6146c76146c282612b67565b6146ac565b82525050565b60006146d982856146b6565b6020820191506146e982846146b6565b602082019150819050939250505056fea2646970667358221220593b66ba287d3ba52462db7ff6a7f830591e92523ee2e27c03afac188ff8ea4864736f6c63430008110033",
  "immutableReferences": {},
  "source": "// SPDX-License-Identifier: MIT\r\npragma solidity >=0.7.0 <0.9.0;\r\n\r\ncontract BCar {\r\n    /**\r\n     * ! I might need to add public Key 'ACCOUNT ADDRESS' of users\r\n     */\r\n\r\n    // Chat Module /, Vehicle Moduel\r\n    /**\r\n     *? User=> :SignUp /, :LogIn/, :LogOut /, :getUserInfo, :getFriendsList /\r\n     */\r\n\r\n    struct User {\r\n        uint256 u_nic;\r\n        string u_name;\r\n        string u_contact;\r\n        string u_address;\r\n        string u_password;\r\n        bool isLoggedIn;\r\n        Friend[] friendList;\r\n    }\r\n\r\n    // ALL USERS\r\n    uint256 userCounts = 0;\r\n    struct AllUsers {\r\n        uint256 u_count;\r\n        uint256 user_nic;\r\n    }\r\n    mapping(uint256 => AllUsers) public allUsers;\r\n\r\n    //  event is a log creates on trigger.\r\n    event userSignedUp(string _nam, uint256 _nic, string u_cont, string u_pass);\r\n    event LogoutUser(bool isUserLoggedIn);\r\n\r\n    mapping(uint256 => User) public userList;\r\n\r\n    function signUp(\r\n        uint256 _nic,\r\n        string memory _nam,\r\n        string memory _cont,\r\n        string memory _addr,\r\n        string memory _pass\r\n    ) public returns (bool) {\r\n        require(!isUserExist(_nic), \"User already exists!\");\r\n\r\n        userList[_nic].u_nic = _nic;\r\n        userList[_nic].u_name = _nam;\r\n        userList[_nic].u_contact = _cont;\r\n        userList[_nic].u_address = _addr;\r\n        userList[_nic].u_password = _pass;\r\n        userList[_nic].isLoggedIn = true;\r\n\r\n        userCounts++;\r\n        allUsers[userCounts] = AllUsers(userCounts, _nic);\r\n\r\n        emit userSignedUp(_nam, _nic, _cont, _pass);\r\n\r\n        return true;\r\n    }\r\n\r\n    function LogIn(uint256 _nic, string memory _pass) public returns (bool) {\r\n        require(isUserExist(_nic), \"User does not exists!\");\r\n        require(!isLoggedIn(_nic), \"You are Already Logged In!\");\r\n        require(\r\n            keccak256(abi.encodePacked(_pass)) ==\r\n                keccak256(abi.encodePacked(userList[_nic].u_password)),\r\n            \"Passwor Does Not Matched!\"\r\n        );\r\n        return userList[_nic].isLoggedIn = true;\r\n    }\r\n\r\n    function LogOut(uint256 _nic) public returns (bool) {\r\n        require(isLoggedIn(_nic), \"You Need To Log In First!\");\r\n        emit LogoutUser(false);\r\n        return userList[_nic].isLoggedIn = false;\r\n    }\r\n\r\n    function getUserInfo(uint256 _nic)\r\n        public\r\n        view\r\n        returns (\r\n            uint256,\r\n            string memory,\r\n            string memory,\r\n            string memory,\r\n            bool\r\n        )\r\n    {\r\n        require(isUserExist(_nic), \"User does not exists!\");\r\n        return (\r\n            userList[_nic].u_nic,\r\n            userList[_nic].u_name,\r\n            userList[_nic].u_contact,\r\n            userList[_nic].u_address,\r\n            userList[_nic].isLoggedIn\r\n        );\r\n    }\r\n\r\n    function getFriendsList(uint256 _nic)\r\n        external\r\n        view\r\n        returns (Friend[] memory)\r\n    {\r\n        require(isUserExist(_nic), \"User exists!\");\r\n        require(isLoggedIn(_nic), \"You Need To Log In First!\");\r\n\r\n        return userList[_nic].friendList;\r\n    }\r\n\r\n    /**\r\n     *? Friends=> :addNewFriend /, :checkAlreadyFriends /, :LoopOnFriend /\r\n     */\r\n\r\n    // Each friend is identified by its address and name assigned by the second party\r\n    struct Friend {\r\n        uint256 f_nic;\r\n        string f_name;\r\n    }\r\n\r\n    event AddFriend(uint256 friend_key, string name);\r\n\r\n    mapping(uint256 => Friend) public friendList;\r\n\r\n    function addNewFriend(\r\n        uint256 _nic,\r\n        uint256 f_nic,\r\n        string calldata f_name\r\n    ) external {\r\n        require(isLoggedIn(_nic), \"You Need To Log In First!\");\r\n        require(\r\n            isUserExist(f_nic),\r\n            \"Your Firend Does Not Registered With The System!\"\r\n        );\r\n        require(_nic != f_nic, \"User cannot add him/her self as friend!\");\r\n        require(\r\n            areFriends(_nic, f_nic) == false,\r\n            \"These users are already friends!\"\r\n        );\r\n\r\n        _addFriend(_nic, f_nic, f_name);\r\n        _addFriend(f_nic, _nic, userList[_nic].u_name);\r\n        emit AddFriend(f_nic, f_name);\r\n    }\r\n\r\n    function areFriends(uint256 _nic, uint256 f_nic)\r\n        public\r\n        view\r\n        returns (bool)\r\n    {\r\n        // if the list of user is greater then the list of friend\r\n        if (\r\n            userList[_nic].friendList.length > userList[f_nic].friendList.length\r\n        ) {\r\n            uint256 tmp = _nic;\r\n            _nic = f_nic;\r\n            f_nic = tmp;\r\n        }\r\n        // the loop will run on bigger list\r\n        for (uint256 i = 0; i < userList[_nic].friendList.length; i++) {\r\n            if (userList[_nic].friendList[i].f_nic == f_nic) return true;\r\n        }\r\n        return false;\r\n    }\r\n\r\n    // A helper function to update the friendList\r\n    function _addFriend(\r\n        uint256 me,\r\n        uint256 friend_key,\r\n        string memory name\r\n    ) internal {\r\n        // create new object of type friend\r\n        Friend memory newFriend = Friend(friend_key, name);\r\n        // add newly created obj to friend list of user\r\n        userList[me].friendList.push(newFriend);\r\n    }\r\n\r\n    /**\r\n     *? Messages' Funcions=> :\r\n     */\r\n\r\n    // message construct stores the single chat message and its metadata\r\n    struct message {\r\n        // address sender;\r\n        uint256 sender_nic;\r\n        uint256 timestamp;\r\n        string msg;\r\n    }\r\n\r\n    event SendMessage(uint256 sender_key, uint256 friend_key, string msg);\r\n\r\n    // Collection of messages communicated in a channel between two users\r\n    mapping(bytes32 => message[]) allMessages; // key : Hash(user1,user2)\r\n\r\n    // Returns a unique code for the channel created between the two users\r\n    // Hash(key1,key2) where key1 is lexicographically smaller than key2\r\n    // function _getChatCode(address pubkey1, address pubkey2) internal pure returns(bytes32) {\r\n    function _getChatCode(uint256 _nic, uint256 f_nic)\r\n        internal\r\n        pure\r\n        returns (bytes32)\r\n    {\r\n        if (_nic < f_nic) return keccak256(abi.encodePacked(_nic, f_nic));\r\n        else return keccak256(abi.encodePacked(f_nic, _nic));\r\n    }\r\n\r\n    // Sends a new message to a given friend\r\n    function sendMessage(\r\n        uint256 _nic,\r\n        uint256 f_nic,\r\n        string calldata _msg\r\n    ) external {\r\n        require(isLoggedIn(_nic), \"You Need To Log In First!\");\r\n        require(\r\n            isUserExist(f_nic),\r\n            \"Your Firend Does Not Registered With The System!\"\r\n        );\r\n        require(\r\n            areFriends(_nic, f_nic) == true,\r\n            \"You are not friends with the given user!\"\r\n        );\r\n        bytes32 chatCode = _getChatCode(_nic, f_nic);\r\n        message memory newMsg = message(_nic, block.timestamp, _msg);\r\n        allMessages[chatCode].push(newMsg);\r\n        emit SendMessage(_nic, f_nic, _msg);\r\n    }\r\n\r\n    // Returns all the chat messages communicated in a channel\r\n    function readMessage(uint256 _nic, uint256 f_nic)\r\n        external\r\n        view\r\n        returns (message[] memory)\r\n    {\r\n        bytes32 chatCode = _getChatCode(_nic, f_nic);\r\n        return allMessages[chatCode];\r\n    }\r\n\r\n    /**\r\n     *? Vehicles => :addNewVehicle /, :isVehicleRegistered /, :getVehicleInfo /, :_addVehicle /\r\n     * *_addVehicle is used to link vehicle with user\r\n     *! vehilce will be tracked through engin no.\r\n     *! I have been triying to track a vehicle both on its engin and vehicle no. But don't know why code was misbehaving.\r\n     */\r\n\r\n    // ALL VEHICLES\r\n    uint256 vehiclesCounts = 0;\r\n    struct AllVehicles {\r\n        uint256 v_count;\r\n        string v_e_no;\r\n    }\r\n    mapping(uint256 => AllVehicles) public allVehicles;\r\n\r\n    struct Vehicle {\r\n        string e_no;\r\n        string v_no;\r\n        string company;\r\n        string modal;\r\n        string year;\r\n        uint256 owner_id;\r\n        bool reg_with_owner;\r\n    }\r\n\r\n    mapping(string => Vehicle) public vehicleList;\r\n\r\n    event newVehicleAdded(\r\n        string e_no,\r\n        string v_no,\r\n        string company,\r\n        string modal,\r\n        string year,\r\n        uint256 owner_id,\r\n        bool reg_with_owner\r\n    );\r\n\r\n    function addNewVehicle(\r\n        uint256 _nic,\r\n        string memory e_no,\r\n        string memory v_no,\r\n        string memory company,\r\n        string memory modal,\r\n        string memory year\r\n    ) public returns (bool) {\r\n        require(isLoggedIn(_nic), \"You Need To Log In First!\");\r\n        require(!isVehicleRegistered(e_no), \"Vehicle Already Rdgistered\");\r\n\r\n        vehicleList[e_no].e_no = e_no;\r\n        vehicleList[e_no].v_no = v_no;\r\n        vehicleList[e_no].company = company;\r\n        vehicleList[e_no].modal = modal;\r\n        vehicleList[e_no].year = year;\r\n        vehicleList[e_no].owner_id = _nic;\r\n        vehicleList[e_no].reg_with_owner = true;\r\n\r\n        vehiclesCounts++;\r\n        allVehicles[vehiclesCounts] = AllVehicles(vehiclesCounts, e_no);\r\n\r\n        emit newVehicleAdded(e_no, v_no, company, modal, year, _nic, true);\r\n        _addVehicle(_nic, e_no);\r\n\r\n        return true;\r\n    }\r\n\r\n    function getVehicleInfo(string memory e_no)\r\n        public\r\n        view\r\n        returns (\r\n            string memory,\r\n            string memory,\r\n            string memory,\r\n            string memory,\r\n            string memory,\r\n            uint256,\r\n            bool\r\n        )\r\n    {\r\n        require(isVehicleRegistered(e_no), \"Vehicle is not Registered\");\r\n        return (\r\n            vehicleList[e_no].e_no,\r\n            vehicleList[e_no].v_no,\r\n            vehicleList[e_no].company,\r\n            vehicleList[e_no].modal,\r\n            vehicleList[e_no].year,\r\n            vehicleList[e_no].owner_id,\r\n            vehicleList[e_no].reg_with_owner\r\n        );\r\n    }\r\n\r\n    /**\r\n     *? userVehicles functions =>  :_addVehicle /, :getUserVehicles /, :transferVehicle /\r\n     ** _addVehicle is a helper funtion to add vehilce to the user.\r\n     */\r\n\r\n    struct UserVehicles {\r\n        uint256 user_id;\r\n        Vehicle[] vehicles_data;\r\n    }\r\n\r\n    mapping(uint256 => UserVehicles) public userVehicles;\r\n\r\n    function _addVehicle(uint256 _nic, string memory e_no) public {\r\n        userVehicles[_nic].vehicles_data.push(vehicleList[e_no]);\r\n    }\r\n\r\n    function getUserVehicles(uint256 _nic)\r\n        external\r\n        view\r\n        returns (Vehicle[] memory)\r\n    {\r\n        require(isLoggedIn(_nic), \"You Need To Log In First!\");\r\n\r\n        return userVehicles[_nic].vehicles_data;\r\n    }\r\n\r\n    function transferVehicle(\r\n        uint256 _nic,\r\n        uint256 n_nic,\r\n        string memory e_no\r\n    ) public {\r\n        require(isLoggedIn(_nic), \"You Need To Log In First!\");\r\n        require(\r\n            _nic != n_nic,\r\n            \"User cannot transfer the vehicle data on his/her account!\"\r\n        );\r\n        require(isUserExist(n_nic), \"Other User Is Not Registered!\");\r\n        require(\r\n            isVehicleRegistered(e_no),\r\n            \"Vehicle You Are Trying To Transfer is Not Registered!\"\r\n        );\r\n        require(\r\n            isVehicleRegisteredWithTheUser(e_no, _nic),\r\n            \"Vehicle You Are Trying To Transfer is Not Registered With You!\"\r\n        );\r\n\r\n        // complex code\r\n        // on following line vehicle will be transfered to new user.\r\n        _addVehicle(n_nic, e_no);\r\n        // turn current user's status to false\r\n        for (uint256 i = 0; i < userVehicles[_nic].vehicles_data.length; i++) {\r\n            if (\r\n                keccak256(\r\n                    abi.encodePacked(userVehicles[_nic].vehicles_data[i].e_no)\r\n                ) ==\r\n                keccak256(abi.encodePacked(e_no)) &&\r\n                userVehicles[_nic].vehicles_data[i].reg_with_owner == true\r\n            ) {\r\n                userVehicles[_nic].vehicles_data[i].reg_with_owner = false;\r\n                vehicleList[e_no].owner_id = n_nic;\r\n                break;\r\n            }\r\n        }\r\n    }\r\n\r\n    /**\r\n     *? general purpose functions =>  :Loop, :isUserExists/, :isLoggedIn/, :isVehicleExists /\r\n     */\r\n\r\n    function isUserExist(uint256 _nic) public view returns (bool) {\r\n        return bytes(userList[_nic].u_name).length > 0;\r\n    }\r\n\r\n    function isLoggedIn(uint256 _nic) public view returns (bool) {\r\n        return userList[_nic].isLoggedIn;\r\n    }\r\n\r\n    function isVehicleRegistered(string memory e_no)\r\n        public\r\n        view\r\n        returns (bool)\r\n    {\r\n        return vehicleList[e_no].reg_with_owner;\r\n    }\r\n\r\n    function isVehicleRegisteredWithTheUser(string memory e_no, uint256 _nic)\r\n        public\r\n        view\r\n        returns (bool)\r\n    {\r\n        return vehicleList[e_no].owner_id == _nic;\r\n    }\r\n}\r\n",
  "sourcePath": "C:\\xampp\\htdocs\\my_working_dir\\block-chain\\bcar1.0\\contracts\\BCar.sol",
  "compiler": {
    "name": "solc",
    "version": "0.8.17+commit.8df45f5f.Emscripten.clang"
  },
  "schemaVersion": "3.4.10",
  "updatedAt": "2022-12-27T17:49:39.722Z",
  "networkType": "ethereum",
  "devdoc": {
    "kind": "dev",
    "methods": {},
    "version": 1
  },
  "userdoc": {
    "kind": "user",
    "methods": {
      "isUserExist(uint256)": {
        "notice": "? general purpose functions =>  :Loop, :isUserExists/, :isLoggedIn/, :isVehicleExists /"
      }
    },
    "version": 1
  }
}