{
  "contractName": "BCar",
  "abi": [
    {
      "anonymous": false,
      "inputs": [
        {
          "indexed": false,
          "internalType": "string",
          "name": "_nam",
          "type": "string"
        },
        {
          "indexed": false,
          "internalType": "uint256",
          "name": "_nic",
          "type": "uint256"
        },
        {
          "indexed": false,
          "internalType": "string",
          "name": "u_cont",
          "type": "string"
        },
        {
          "indexed": false,
          "internalType": "string",
          "name": "u_pass",
          "type": "string"
        }
      ],
      "name": "userSignedUp",
      "type": "event"
    },
    {
      "constant": true,
      "inputs": [
        {
          "internalType": "uint256",
          "name": "",
          "type": "uint256"
        }
      ],
      "name": "userList",
      "outputs": [
        {
          "internalType": "uint256",
          "name": "u_nic",
          "type": "uint256"
        },
        {
          "internalType": "string",
          "name": "u_name",
          "type": "string"
        },
        {
          "internalType": "string",
          "name": "u_contact",
          "type": "string"
        },
        {
          "internalType": "string",
          "name": "u_address",
          "type": "string"
        },
        {
          "internalType": "string",
          "name": "u_password",
          "type": "string"
        },
        {
          "internalType": "bool",
          "name": "isLoggedIn",
          "type": "bool"
        }
      ],
      "payable": false,
      "stateMutability": "view",
      "type": "function"
    },
    {
      "constant": false,
      "inputs": [
        {
          "internalType": "uint256",
          "name": "_nic",
          "type": "uint256"
        },
        {
          "internalType": "string",
          "name": "_nam",
          "type": "string"
        },
        {
          "internalType": "string",
          "name": "_cont",
          "type": "string"
        },
        {
          "internalType": "string",
          "name": "_addr",
          "type": "string"
        },
        {
          "internalType": "string",
          "name": "_pass",
          "type": "string"
        }
      ],
      "name": "signUp",
      "outputs": [
        {
          "internalType": "bool",
          "name": "",
          "type": "bool"
        }
      ],
      "payable": false,
      "stateMutability": "nonpayable",
      "type": "function"
    },
    {
      "constant": true,
      "inputs": [
        {
          "internalType": "uint256",
          "name": "_nic",
          "type": "uint256"
        }
      ],
      "name": "isUserExist",
      "outputs": [
        {
          "internalType": "bool",
          "name": "",
          "type": "bool"
        }
      ],
      "payable": false,
      "stateMutability": "view",
      "type": "function"
    }
  ],
  "bytecode": "0x608060405234801561001057600080fd5b50610bae806100206000396000f3fe608060405234801561001057600080fd5b50600436106100415760003560e01c80635724d5d3146100465780639f4216e8146102e8578063ac56730f146104e5575b600080fd5b6102ce600480360360a081101561005c57600080fd5b81019080803590602001909291908035906020019064010000000081111561008357600080fd5b82018360208201111561009557600080fd5b803590602001918460018302840111640100000000831117156100b757600080fd5b91908080601f016020809104026020016040519081016040528093929190818152602001838380828437600081840152601f19601f8201169050808301925050505050505091929192908035906020019064010000000081111561011a57600080fd5b82018360208201111561012c57600080fd5b8035906020019184600183028401116401000000008311171561014e57600080fd5b91908080601f016020809104026020016040519081016040528093929190818152602001838380828437600081840152601f19601f820116905080830192505050505050509192919290803590602001906401000000008111156101b157600080fd5b8201836020820111156101c357600080fd5b803590602001918460018302840111640100000000831117156101e557600080fd5b91908080601f016020809104026020016040519081016040528093929190818152602001838380828437600081840152601f19601f8201169050808301925050505050505091929192908035906020019064010000000081111561024857600080fd5b82018360208201111561025a57600080fd5b8035906020019184600183028401116401000000008311171561027c57600080fd5b91908080601f016020809104026020016040519081016040528093929190818152602001838380828437600081840152601f19601f82011690508083019250505050505050919291929050505061052b565b604051808215151515815260200191505060405180910390f35b610314600480360360208110156102fe57600080fd5b81019080803590602001909291905050506107f6565b60405180878152602001806020018060200180602001806020018615151515815260200185810385528a818151815260200191508051906020019080838360005b83811015610370578082015181840152602081019050610355565b50505050905090810190601f16801561039d5780820380516001836020036101000a031916815260200191505b50858103845289818151815260200191508051906020019080838360005b838110156103d65780820151818401526020810190506103bb565b50505050905090810190601f1680156104035780820380516001836020036101000a031916815260200191505b50858103835288818151815260200191508051906020019080838360005b8381101561043c578082015181840152602081019050610421565b50505050905090810190601f1680156104695780820380516001836020036101000a031916815260200191505b50858103825287818151815260200191508051906020019080838360005b838110156104a2578082015181840152602081019050610487565b50505050905090810190601f1680156104cf5780820380516001836020036101000a031916815260200191505b509a505050505050505050505060405180910390f35b610511600480360360208110156104fb57600080fd5b8101908080359060200190929190505050610a9f565b604051808215151515815260200191505060405180910390f35b600061053686610a9f565b156105a9576040517f08c379a00000000000000000000000000000000000000000000000000000000081526004018080602001828103825260148152602001807f5573657220616c7265616479206578697374732100000000000000000000000081525060200191505060405180910390fd5b85600080888152602001908152602001600020600001819055508460008088815260200190815260200160002060010190805190602001906105ec929190610ad4565b50836000808881526020019081526020016000206002019080519060200190610616929190610ad4565b50826000808881526020019081526020016000206003019080519060200190610640929190610ad4565b5081600080888152602001908152602001600020600401908051906020019061066a929190610ad4565b507ff4f62c47f24224b311017882c675231104f94c03da61192ac4312d300a7996398587868560405180806020018581526020018060200180602001848103845288818151815260200191508051906020019080838360005b838110156106de5780820151818401526020810190506106c3565b50505050905090810190601f16801561070b5780820380516001836020036101000a031916815260200191505b50848103835286818151815260200191508051906020019080838360005b83811015610744578082015181840152602081019050610729565b50505050905090810190601f1680156107715780820380516001836020036101000a031916815260200191505b50848103825285818151815260200191508051906020019080838360005b838110156107aa57808201518184015260208101905061078f565b50505050905090810190601f1680156107d75780820380516001836020036101000a031916815260200191505b5097505050505050505060405180910390a16001905095945050505050565b6000602052806000526040600020600091509050806000015490806001018054600181600116156101000203166002900480601f0160208091040260200160405190810160405280929190818152602001828054600181600116156101000203166002900480156108a85780601f1061087d576101008083540402835291602001916108a8565b820191906000526020600020905b81548152906001019060200180831161088b57829003601f168201915b505050505090806002018054600181600116156101000203166002900480601f0160208091040260200160405190810160405280929190818152602001828054600181600116156101000203166002900480156109465780601f1061091b57610100808354040283529160200191610946565b820191906000526020600020905b81548152906001019060200180831161092957829003601f168201915b505050505090806003018054600181600116156101000203166002900480601f0160208091040260200160405190810160405280929190818152602001828054600181600116156101000203166002900480156109e45780601f106109b9576101008083540402835291602001916109e4565b820191906000526020600020905b8154815290600101906020018083116109c757829003601f168201915b505050505090806004018054600181600116156101000203166002900480601f016020809104026020016040519081016040528092919081815260200182805460018160011615610100020316600290048015610a825780601f10610a5757610100808354040283529160200191610a82565b820191906000526020600020905b815481529060010190602001808311610a6557829003601f168201915b5050505050908060050160009054906101000a900460ff16905086565b600080600080848152602001908152602001600020600101805460018160011615610100020316600290049050119050919050565b828054600181600116156101000203166002900490600052602060002090601f016020900481019282601f10610b1557805160ff1916838001178555610b43565b82800160010185558215610b43579182015b82811115610b42578251825591602001919060010190610b27565b5b509050610b509190610b54565b5090565b610b7691905b80821115610b72576000816000905550600101610b5a565b5090565b9056fea265627a7a7231582005b79341d1179e10d599cf54a5b3fc4328d0a6c273322c8b0b34bbd32444954264736f6c63430005100032",
  "source": "// SPDX-License-Identifier: MIT\npragma solidity >=0.4.22 <0.9.0;\n\ncontract BCar {\n  // Chat Module\n  /**\n  *? User=> :SignUp, :LogIn, :Loop, :isExists, :isLoggedIn\n   */\n  \n   struct User {\n    uint u_nic;\n    string u_name;\n    string u_contact;\n    string u_address;\n    string u_password;\n    bool isLoggedIn;\n    // friend[] friendList;\n    // vehicle[] vehicleList;\n   }\n   \n  //  event is a log creates on trigger. \n   event userSignedUp(string _nam, uint _nic, string u_cont, string u_pass);\n   \n   mapping (uint=>User) public userList;\n\n   function signUp(uint _nic, string memory _nam, string memory _cont, string memory _addr, string memory _pass) public returns (bool) {\n    require(!isUserExist(_nic),  \"User already exists!\");\n    \n    userList[_nic].u_nic = _nic;\n    userList[_nic].u_name = _nam;\n    userList[_nic].u_contact = _cont;\n    userList[_nic].u_address = _addr;\n    userList[_nic].u_password = _pass;\n\n    emit userSignedUp(_nam, _nic, _cont, _pass);\n\n    return true;\n   }\n\n   function isUserExist(uint _nic) public view returns (bool) {\n    return bytes(userList[_nic].u_name).length > 0;\n   }\n\n}\n",
  "sourcePath": "C:\\xampp\\htdocs\\my_working_dir\\block-chain\\bcar1.0\\contracts\\BCar.sol",
  "compiler": {
    "name": "solc",
    "version": "0.5.16+commit.9c3226ce.Emscripten.clang"
  },
  "schemaVersion": "3.4.10",
  "updatedAt": "2022-12-11T10:44:10.245Z",
  "networkType": "ethereum",
  "devdoc": {
    "methods": {}
  },
  "userdoc": {
    "methods": {}
  }
}