{
  "contractName": "BCar",
  "abi": [
    {
      "anonymous": false,
      "inputs": [
        {
          "indexed": false,
          "internalType": "uint256",
          "name": "friend_key",
          "type": "uint256"
        },
        {
          "indexed": false,
          "internalType": "string",
          "name": "name",
          "type": "string"
        }
      ],
      "name": "AddFriend",
      "type": "event"
    },
    {
      "anonymous": false,
      "inputs": [
        {
          "indexed": false,
          "internalType": "string",
          "name": "_nam",
          "type": "string"
        },
        {
          "indexed": false,
          "internalType": "uint256",
          "name": "_nic",
          "type": "uint256"
        },
        {
          "indexed": false,
          "internalType": "string",
          "name": "u_cont",
          "type": "string"
        },
        {
          "indexed": false,
          "internalType": "string",
          "name": "u_pass",
          "type": "string"
        }
      ],
      "name": "userSignedUp",
      "type": "event"
    },
    {
      "constant": true,
      "inputs": [
        {
          "internalType": "uint256",
          "name": "",
          "type": "uint256"
        }
      ],
      "name": "friendList",
      "outputs": [
        {
          "internalType": "uint256",
          "name": "f_nic",
          "type": "uint256"
        },
        {
          "internalType": "string",
          "name": "f_name",
          "type": "string"
        }
      ],
      "payable": false,
      "stateMutability": "view",
      "type": "function"
    },
    {
      "constant": true,
      "inputs": [
        {
          "internalType": "uint256",
          "name": "",
          "type": "uint256"
        }
      ],
      "name": "userList",
      "outputs": [
        {
          "internalType": "uint256",
          "name": "u_nic",
          "type": "uint256"
        },
        {
          "internalType": "string",
          "name": "u_name",
          "type": "string"
        },
        {
          "internalType": "string",
          "name": "u_contact",
          "type": "string"
        },
        {
          "internalType": "string",
          "name": "u_address",
          "type": "string"
        },
        {
          "internalType": "string",
          "name": "u_password",
          "type": "string"
        },
        {
          "internalType": "bool",
          "name": "isLoggedIn",
          "type": "bool"
        }
      ],
      "payable": false,
      "stateMutability": "view",
      "type": "function"
    },
    {
      "constant": false,
      "inputs": [
        {
          "internalType": "uint256",
          "name": "_nic",
          "type": "uint256"
        },
        {
          "internalType": "string",
          "name": "_nam",
          "type": "string"
        },
        {
          "internalType": "string",
          "name": "_cont",
          "type": "string"
        },
        {
          "internalType": "string",
          "name": "_addr",
          "type": "string"
        },
        {
          "internalType": "string",
          "name": "_pass",
          "type": "string"
        }
      ],
      "name": "signUp",
      "outputs": [
        {
          "internalType": "bool",
          "name": "",
          "type": "bool"
        }
      ],
      "payable": false,
      "stateMutability": "nonpayable",
      "type": "function"
    },
    {
      "constant": false,
      "inputs": [
        {
          "internalType": "uint256",
          "name": "_nic",
          "type": "uint256"
        },
        {
          "internalType": "string",
          "name": "_pass",
          "type": "string"
        }
      ],
      "name": "LogIn",
      "outputs": [
        {
          "internalType": "string",
          "name": "",
          "type": "string"
        }
      ],
      "payable": false,
      "stateMutability": "nonpayable",
      "type": "function"
    },
    {
      "constant": false,
      "inputs": [
        {
          "internalType": "uint256",
          "name": "_nic",
          "type": "uint256"
        },
        {
          "internalType": "uint256",
          "name": "f_nic",
          "type": "uint256"
        },
        {
          "internalType": "string",
          "name": "f_name",
          "type": "string"
        }
      ],
      "name": "addNewFriend",
      "outputs": [],
      "payable": false,
      "stateMutability": "nonpayable",
      "type": "function"
    },
    {
      "constant": true,
      "inputs": [
        {
          "internalType": "uint256",
          "name": "_nic",
          "type": "uint256"
        },
        {
          "internalType": "uint256",
          "name": "f_nic",
          "type": "uint256"
        }
      ],
      "name": "areFriends",
      "outputs": [
        {
          "internalType": "bool",
          "name": "",
          "type": "bool"
        }
      ],
      "payable": false,
      "stateMutability": "view",
      "type": "function"
    },
    {
      "constant": true,
      "inputs": [
        {
          "internalType": "uint256",
          "name": "_nic",
          "type": "uint256"
        }
      ],
      "name": "isUserExist",
      "outputs": [
        {
          "internalType": "bool",
          "name": "",
          "type": "bool"
        }
      ],
      "payable": false,
      "stateMutability": "view",
      "type": "function"
    },
    {
      "constant": true,
      "inputs": [
        {
          "internalType": "uint256",
          "name": "_nic",
          "type": "uint256"
        }
      ],
      "name": "isLoggedIn",
      "outputs": [
        {
          "internalType": "bool",
          "name": "",
          "type": "bool"
        }
      ],
      "payable": false,
      "stateMutability": "view",
      "type": "function"
    }
  ],
  "bytecode": "0x608060405234801561001057600080fd5b506117be806100206000396000f3fe608060405234801561001057600080fd5b50600436106100885760003560e01c80639f4216e81161005b5780639f4216e814610561578063ac56730f1461075e578063b312b5bc146107a4578063edf6a3d41461083157610088565b806321668a011461008d57806326344c8b1461013b578063314c4ff9146101815780635724d5d3146102bf575b600080fd5b6100b9600480360360208110156100a357600080fd5b8101908080359060200190929190505050610881565b6040518083815260200180602001828103825283818151815260200191508051906020019080838360005b838110156100ff5780820151818401526020810190506100e4565b50505050905090810190601f16801561012c5780820380516001836020036101000a031916815260200191505b50935050505060405180910390f35b6101676004803603602081101561015157600080fd5b810190808035906020019092919050505061093d565b604051808215151515815260200191505060405180910390f35b6102446004803603604081101561019757600080fd5b8101908080359060200190929190803590602001906401000000008111156101be57600080fd5b8201836020820111156101d057600080fd5b803590602001918460018302840111640100000000831117156101f257600080fd5b91908080601f016020809104026020016040519081016040528093929190818152602001838380828437600081840152601f19601f820116905080830192505050505050509192919290505050610969565b6040518080602001828103825283818151815260200191508051906020019080838360005b83811015610284578082015181840152602081019050610269565b50505050905090810190601f1680156102b15780820380516001836020036101000a031916815260200191505b509250505060405180910390f35b610547600480360360a08110156102d557600080fd5b8101908080359060200190929190803590602001906401000000008111156102fc57600080fd5b82018360208201111561030e57600080fd5b8035906020019184600183028401116401000000008311171561033057600080fd5b91908080601f016020809104026020016040519081016040528093929190818152602001838380828437600081840152601f19601f8201169050808301925050505050505091929192908035906020019064010000000081111561039357600080fd5b8201836020820111156103a557600080fd5b803590602001918460018302840111640100000000831117156103c757600080fd5b91908080601f016020809104026020016040519081016040528093929190818152602001838380828437600081840152601f19601f8201169050808301925050505050505091929192908035906020019064010000000081111561042a57600080fd5b82018360208201111561043c57600080fd5b8035906020019184600183028401116401000000008311171561045e57600080fd5b91908080601f016020809104026020016040519081016040528093929190818152602001838380828437600081840152601f19601f820116905080830192505050505050509192919290803590602001906401000000008111156104c157600080fd5b8201836020820111156104d357600080fd5b803590602001918460018302840111640100000000831117156104f557600080fd5b91908080601f016020809104026020016040519081016040528093929190818152602001838380828437600081840152601f19601f820116905080830192505050505050509192919290505050610b96565b604051808215151515815260200191505060405180910390f35b61058d6004803603602081101561057757600080fd5b8101908080359060200190929190505050610e8f565b60405180878152602001806020018060200180602001806020018615151515815260200185810385528a818151815260200191508051906020019080838360005b838110156105e95780820151818401526020810190506105ce565b50505050905090810190601f1680156106165780820380516001836020036101000a031916815260200191505b50858103845289818151815260200191508051906020019080838360005b8381101561064f578082015181840152602081019050610634565b50505050905090810190601f16801561067c5780820380516001836020036101000a031916815260200191505b50858103835288818151815260200191508051906020019080838360005b838110156106b557808201518184015260208101905061069a565b50505050905090810190601f1680156106e25780820380516001836020036101000a031916815260200191505b50858103825287818151815260200191508051906020019080838360005b8381101561071b578082015181840152602081019050610700565b50505050905090810190601f1680156107485780820380516001836020036101000a031916815260200191505b509a505050505050505050505060405180910390f35b61078a6004803603602081101561077457600080fd5b8101908080359060200190929190505050611138565b604051808215151515815260200191505060405180910390f35b61082f600480360360608110156107ba57600080fd5b810190808035906020019092919080359060200190929190803590602001906401000000008111156107eb57600080fd5b8201836020820111156107fd57600080fd5b8035906020019184600183028401116401000000008311171561081f57600080fd5b909192939192939050505061116d565b005b6108676004803603604081101561084757600080fd5b81019080803590602001909291908035906020019092919050505061149a565b604051808215151515815260200191505060405180910390f35b6001602052806000526040600020600091509050806000015490806001018054600181600116156101000203166002900480601f0160208091040260200160405190810160405280929190818152602001828054600181600116156101000203166002900480156109335780601f1061090857610100808354040283529160200191610933565b820191906000526020600020905b81548152906001019060200180831161091657829003601f168201915b5050505050905082565b600080600083815260200190815260200160002060050160009054906101000a900460ff169050919050565b606061097483611138565b6109e6576040517f08c379a000000000000000000000000000000000000000000000000000000000815260040180806020018281038252600c8152602001807f557365722065786973747321000000000000000000000000000000000000000081525060200191505060405180910390fd5b6000808481526020019081526020016000206004016040516020018082805460018160011615610100020316600290048015610a595780601f10610a37576101008083540402835291820191610a59565b820191906000526020600020905b815481529060010190602001808311610a45575b505091505060405160208183030381529060405280519060200120826040516020018082805190602001908083835b60208310610aab5780518252602082019150602081019050602083039250610a88565b6001836020036101000a038019825116818451168082178552505050505050905001915050604051602081830303815290604052805190602001201415610b5757600160008085815260200190815260200160002060050160006101000a81548160ff0219169083151502179055506040518060400160405280600781526020017f53756363657373000000000000000000000000000000000000000000000000008152509050610b90565b6040518060400160405280600681526020017f4661696c6564000000000000000000000000000000000000000000000000000081525090505b92915050565b6000610ba186611138565b15610c14576040517f08c379a00000000000000000000000000000000000000000000000000000000081526004018080602001828103825260148152602001807f5573657220616c7265616479206578697374732100000000000000000000000081525060200191505060405180910390fd5b8560008088815260200190815260200160002060000181905550846000808881526020019081526020016000206001019080519060200190610c579291906115f3565b50836000808881526020019081526020016000206002019080519060200190610c819291906115f3565b50826000808881526020019081526020016000206003019080519060200190610cab9291906115f3565b50816000808881526020019081526020016000206004019080519060200190610cd59291906115f3565b50600160008088815260200190815260200160002060050160006101000a81548160ff0219169083151502179055507ff4f62c47f24224b311017882c675231104f94c03da61192ac4312d300a7996398587868560405180806020018581526020018060200180602001848103845288818151815260200191508051906020019080838360005b83811015610d77578082015181840152602081019050610d5c565b50505050905090810190601f168015610da45780820380516001836020036101000a031916815260200191505b50848103835286818151815260200191508051906020019080838360005b83811015610ddd578082015181840152602081019050610dc2565b50505050905090810190601f168015610e0a5780820380516001836020036101000a031916815260200191505b50848103825285818151815260200191508051906020019080838360005b83811015610e43578082015181840152602081019050610e28565b50505050905090810190601f168015610e705780820380516001836020036101000a031916815260200191505b5097505050505050505060405180910390a16001905095945050505050565b6000602052806000526040600020600091509050806000015490806001018054600181600116156101000203166002900480601f016020809104026020016040519081016040528092919081815260200182805460018160011615610100020316600290048015610f415780601f10610f1657610100808354040283529160200191610f41565b820191906000526020600020905b815481529060010190602001808311610f2457829003601f168201915b505050505090806002018054600181600116156101000203166002900480601f016020809104026020016040519081016040528092919081815260200182805460018160011615610100020316600290048015610fdf5780601f10610fb457610100808354040283529160200191610fdf565b820191906000526020600020905b815481529060010190602001808311610fc257829003601f168201915b505050505090806003018054600181600116156101000203166002900480601f01602080910402602001604051908101604052809291908181526020018280546001816001161561010002031660029004801561107d5780601f106110525761010080835404028352916020019161107d565b820191906000526020600020905b81548152906001019060200180831161106057829003601f168201915b505050505090806004018054600181600116156101000203166002900480601f01602080910402602001604051908101604052809291908181526020018280546001816001161561010002031660029004801561111b5780601f106110f05761010080835404028352916020019161111b565b820191906000526020600020905b8154815290600101906020018083116110fe57829003601f168201915b5050505050908060050160009054906101000a900460ff16905086565b600080600080848152602001908152602001600020600101805460018160011615610100020316600290049050119050919050565b6111768461093d565b6111e8576040517f08c379a00000000000000000000000000000000000000000000000000000000081526004018080602001828103825260198152602001807f596f75204e65656420546f204c6f6720496e204669727374210000000000000081525060200191505060405180910390fd5b6111f183611138565b611246576040517f08c379a00000000000000000000000000000000000000000000000000000000081526004018080602001828103825260308152602001806117336030913960400191505060405180910390fd5b8284141561129f576040517f08c379a00000000000000000000000000000000000000000000000000000000081526004018080602001828103825260278152602001806117636027913960400191505060405180910390fd5b600015156112ad858561149a565b151514611322576040517f08c379a00000000000000000000000000000000000000000000000000000000081526004018080602001828103825260208152602001807f54686573652075736572732061726520616c726561647920667269656e64732181525060200191505060405180910390fd5b611371848484848080601f016020809104026020016040519081016040528093929190818152602001838380828437600081840152601f19601f82011690508083019250505050505050611563565b61142983856000808881526020019081526020016000206001018054600181600116156101000203166002900480601f01602080910402602001604051908101604052809291908181526020018280546001816001161561010002031660029004801561141f5780601f106113f45761010080835404028352916020019161141f565b820191906000526020600020905b81548152906001019060200180831161140257829003601f168201915b5050505050611563565b7fe514c4afa30880e1ca9b0dc7a1cb62a81ff9cab2e30c36cea191354f50ff66b283838360405180848152602001806020018281038252848482818152602001925080828437600081840152601f19601f82011690508083019250505094505050505060405180910390a150505050565b6000806000838152602001908152602001600020600601805490506000808581526020019081526020016000206006018054905011156114e1576000839050829350809250505b60008090505b600080858152602001908152602001600020600601805490508110156115575782600080868152602001908152602001600020600601828154811061152857fe5b906000526020600020906002020160000154141561154a57600191505061155d565b80806001019150506114e7565b50600090505b92915050565b61156b611673565b604051806040016040528084815260200183815250905060008085815260200190815260200160002060060181908060018154018082558091505090600182039060005260206000209060020201600090919290919091506000820151816000015560208201518160010190805190602001906115e992919061168d565b5050505050505050565b828054600181600116156101000203166002900490600052602060002090601f016020900481019282601f1061163457805160ff1916838001178555611662565b82800160010185558215611662579182015b82811115611661578251825591602001919060010190611646565b5b50905061166f919061170d565b5090565b604051806040016040528060008152602001606081525090565b828054600181600116156101000203166002900490600052602060002090601f016020900481019282601f106116ce57805160ff19168380011785556116fc565b828001600101855582156116fc579182015b828111156116fb5782518255916020019190600101906116e0565b5b509050611709919061170d565b5090565b61172f91905b8082111561172b576000816000905550600101611713565b5090565b9056fe596f757220466972656e6420446f6573204e6f7420526567697374657265642057697468205468652053797374656d2155736572732063616e6e6f7420616464207468656d73656c76657320617320667269656e647321a265627a7a723158207a0d6e50cba5042befd430a5396229279058ae6b1f1e28fb80181ba78c10d20264736f6c63430005100032",
  "source": "// SPDX-License-Identifier: MIT\npragma solidity >=0.4.22 <0.9.0;\n\ncontract BCar {\n  // Chat Module\n  /**\n  *? User=> :SignUp /, :LogIn/, :LogOut\n   */\n  \n   struct User {\n    uint u_nic;\n    string u_name;\n    string u_contact;\n    string u_address;\n    string u_password;\n    bool isLoggedIn;\n    Friend[] friendList;\n    // vehicle[] vehicleList;\n   }\n   \n  //  event is a log creates on trigger. \n   event userSignedUp(string _nam, uint _nic, string u_cont, string u_pass);\n   \n   mapping (uint=>User) public userList;\n\n   function signUp(uint _nic, string memory _nam, string memory _cont, string memory _addr, string memory _pass) public returns (bool) {\n    require(!isUserExist(_nic),  \"User already exists!\");\n    \n    userList[_nic].u_nic = _nic;\n    userList[_nic].u_name = _nam;\n    userList[_nic].u_contact = _cont;\n    userList[_nic].u_address = _addr;\n    userList[_nic].u_password = _pass;\n    userList[_nic].isLoggedIn = true;\n\n    emit userSignedUp(_nam, _nic, _cont, _pass);\n\n    return true;\n   }\n\n   function LogIn(uint _nic, string memory _pass) public returns (string memory) {\n    require(isUserExist(_nic),  \"User exists!\");\n    if (keccak256(abi.encodePacked(_pass)) ==\n                keccak256(abi.encodePacked(userList[_nic].u_password))) {\n                  // if user exists and password is correct\n                  userList[_nic].isLoggedIn = true;\n      return 'Success';\n    }    \n    // if user exists and password is incorrect\n    return 'Failed';\n   }\n\n    /**\n  *? Friends=> :addNewFriend , :checkAlreadyFriends , :LoopOnFriend \n   */\n\n    // Each friend is identified by its address and name assigned by the second party\n    struct Friend {\n        uint f_nic;\n        string f_name;\n    }\n\n    event AddFriend(uint friend_key, string name);\n\n    mapping (uint=>Friend) public friendList;\n  \n   function addNewFriend(uint _nic, uint f_nic, string calldata f_name) external {\n    require(isLoggedIn(_nic), \"You Need To Log In First!\");\n    require(isUserExist(f_nic),  \"Your Firend Does Not Registered With The System!\");\n    require(_nic!=f_nic, \"Users cannot add themselves as friends!\");\n    require(areFriends(_nic,f_nic)==false, \"These users are already friends!\");\n\n    _addFriend(_nic, f_nic, f_name);\n    _addFriend(f_nic, _nic, userList[_nic].u_name);\n    emit AddFriend(f_nic, f_name);\n   }\n\n  function areFriends(uint _nic, uint f_nic) public view returns (bool) {\n    // if the list of user is greater then the list of friend\n    if(userList[_nic].friendList.length > userList[f_nic].friendList.length){\n      uint tmp = _nic;\n      _nic = f_nic;\n      f_nic = tmp;\n    }\n    // the loop will run on bigger list\n    for (uint256 i = 0; i < userList[_nic].friendList.length; i++) {\n      if(userList[_nic].friendList[i].f_nic == f_nic)\n      return true;\n    }\n    return false;\n  }\n   \n  // A helper function to update the friendList\n  function _addFriend(uint me, uint friend_key, string memory name) internal {\n    // create new object of type friend\n      Friend memory newFriend = Friend(friend_key,name);\n      // add newly created obj to friend list of user\n      userList[me].friendList.push(newFriend);\n  }\n   \n/** \n *? general purpose functions =>  :Loop, :isExists/, :isLoggedIn/\n */\n\n   function isUserExist(uint _nic) public view returns (bool) {\n    return bytes(userList[_nic].u_name).length > 0;\n   }\n\n   function isLoggedIn(uint _nic) public view returns (bool) {\n    return userList[_nic].isLoggedIn;\n   }\n\n\n}\n",
  "sourcePath": "C:\\xampp\\htdocs\\my_working_dir\\block-chain\\bcar1.0\\contracts\\BCar.sol",
  "compiler": {
    "name": "solc",
    "version": "0.5.16+commit.9c3226ce.Emscripten.clang"
  },
  "schemaVersion": "3.4.10",
  "updatedAt": "2022-12-11T13:17:37.234Z",
  "networkType": "ethereum",
  "devdoc": {
    "methods": {}
  },
  "userdoc": {
    "methods": {
      "isUserExist(uint256)": {
        "notice": "general purpose functions =>  :Loop, :isExists/, :isLoggedIn/"
      }
    }
  }
}