{
  "contractName": "BCar",
  "abi": [
    {
      "anonymous": false,
      "inputs": [
        {
          "indexed": false,
          "internalType": "uint256",
          "name": "friend_key",
          "type": "uint256"
        },
        {
          "indexed": false,
          "internalType": "string",
          "name": "name",
          "type": "string"
        }
      ],
      "name": "AddFriend",
      "type": "event"
    },
    {
      "anonymous": false,
      "inputs": [
        {
          "indexed": false,
          "internalType": "bool",
          "name": "isUserLoggedIn",
          "type": "bool"
        }
      ],
      "name": "LogoutUser",
      "type": "event"
    },
    {
      "anonymous": false,
      "inputs": [
        {
          "indexed": false,
          "internalType": "uint256",
          "name": "sender_key",
          "type": "uint256"
        },
        {
          "indexed": false,
          "internalType": "uint256",
          "name": "friend_key",
          "type": "uint256"
        },
        {
          "indexed": false,
          "internalType": "string",
          "name": "msg",
          "type": "string"
        }
      ],
      "name": "SendMessage",
      "type": "event"
    },
    {
      "anonymous": false,
      "inputs": [
        {
          "indexed": false,
          "internalType": "string",
          "name": "e_no",
          "type": "string"
        },
        {
          "indexed": false,
          "internalType": "string",
          "name": "v_no",
          "type": "string"
        },
        {
          "indexed": false,
          "internalType": "string",
          "name": "company",
          "type": "string"
        },
        {
          "indexed": false,
          "internalType": "string",
          "name": "modal",
          "type": "string"
        },
        {
          "indexed": false,
          "internalType": "string",
          "name": "year",
          "type": "string"
        },
        {
          "indexed": false,
          "internalType": "uint256",
          "name": "owner_id",
          "type": "uint256"
        },
        {
          "indexed": false,
          "internalType": "bool",
          "name": "reg_with_owner",
          "type": "bool"
        }
      ],
      "name": "newVehicleAdded",
      "type": "event"
    },
    {
      "anonymous": false,
      "inputs": [
        {
          "indexed": false,
          "internalType": "string",
          "name": "_nam",
          "type": "string"
        },
        {
          "indexed": false,
          "internalType": "uint256",
          "name": "_nic",
          "type": "uint256"
        },
        {
          "indexed": false,
          "internalType": "string",
          "name": "u_cont",
          "type": "string"
        },
        {
          "indexed": false,
          "internalType": "string",
          "name": "u_pass",
          "type": "string"
        }
      ],
      "name": "userSignedUp",
      "type": "event"
    },
    {
      "inputs": [
        {
          "internalType": "uint256",
          "name": "",
          "type": "uint256"
        }
      ],
      "name": "friendList",
      "outputs": [
        {
          "internalType": "uint256",
          "name": "f_nic",
          "type": "uint256"
        },
        {
          "internalType": "string",
          "name": "f_name",
          "type": "string"
        }
      ],
      "stateMutability": "view",
      "type": "function",
      "constant": true
    },
    {
      "inputs": [
        {
          "internalType": "uint256",
          "name": "",
          "type": "uint256"
        }
      ],
      "name": "userList",
      "outputs": [
        {
          "internalType": "uint256",
          "name": "u_nic",
          "type": "uint256"
        },
        {
          "internalType": "string",
          "name": "u_name",
          "type": "string"
        },
        {
          "internalType": "string",
          "name": "u_contact",
          "type": "string"
        },
        {
          "internalType": "string",
          "name": "u_address",
          "type": "string"
        },
        {
          "internalType": "string",
          "name": "u_password",
          "type": "string"
        },
        {
          "internalType": "bool",
          "name": "isLoggedIn",
          "type": "bool"
        }
      ],
      "stateMutability": "view",
      "type": "function",
      "constant": true
    },
    {
      "inputs": [
        {
          "internalType": "uint256",
          "name": "",
          "type": "uint256"
        }
      ],
      "name": "userVehicles",
      "outputs": [
        {
          "internalType": "uint256",
          "name": "user_id",
          "type": "uint256"
        }
      ],
      "stateMutability": "view",
      "type": "function",
      "constant": true
    },
    {
      "inputs": [
        {
          "internalType": "string",
          "name": "",
          "type": "string"
        }
      ],
      "name": "vehicleList",
      "outputs": [
        {
          "internalType": "string",
          "name": "e_no",
          "type": "string"
        },
        {
          "internalType": "string",
          "name": "v_no",
          "type": "string"
        },
        {
          "internalType": "string",
          "name": "company",
          "type": "string"
        },
        {
          "internalType": "string",
          "name": "modal",
          "type": "string"
        },
        {
          "internalType": "string",
          "name": "year",
          "type": "string"
        },
        {
          "internalType": "uint256",
          "name": "owner_id",
          "type": "uint256"
        },
        {
          "internalType": "bool",
          "name": "reg_with_owner",
          "type": "bool"
        }
      ],
      "stateMutability": "view",
      "type": "function",
      "constant": true
    },
    {
      "inputs": [
        {
          "internalType": "uint256",
          "name": "_nic",
          "type": "uint256"
        },
        {
          "internalType": "string",
          "name": "_nam",
          "type": "string"
        },
        {
          "internalType": "string",
          "name": "_cont",
          "type": "string"
        },
        {
          "internalType": "string",
          "name": "_addr",
          "type": "string"
        },
        {
          "internalType": "string",
          "name": "_pass",
          "type": "string"
        }
      ],
      "name": "signUp",
      "outputs": [
        {
          "internalType": "bool",
          "name": "",
          "type": "bool"
        }
      ],
      "stateMutability": "nonpayable",
      "type": "function"
    },
    {
      "inputs": [
        {
          "internalType": "uint256",
          "name": "_nic",
          "type": "uint256"
        },
        {
          "internalType": "string",
          "name": "_pass",
          "type": "string"
        }
      ],
      "name": "LogIn",
      "outputs": [
        {
          "internalType": "bool",
          "name": "",
          "type": "bool"
        }
      ],
      "stateMutability": "nonpayable",
      "type": "function"
    },
    {
      "inputs": [
        {
          "internalType": "uint256",
          "name": "_nic",
          "type": "uint256"
        }
      ],
      "name": "LogOut",
      "outputs": [
        {
          "internalType": "bool",
          "name": "",
          "type": "bool"
        }
      ],
      "stateMutability": "nonpayable",
      "type": "function"
    },
    {
      "inputs": [
        {
          "internalType": "uint256",
          "name": "_nic",
          "type": "uint256"
        }
      ],
      "name": "getFriendsList",
      "outputs": [
        {
          "components": [
            {
              "internalType": "uint256",
              "name": "f_nic",
              "type": "uint256"
            },
            {
              "internalType": "string",
              "name": "f_name",
              "type": "string"
            }
          ],
          "internalType": "struct BCar.Friend[]",
          "name": "",
          "type": "tuple[]"
        }
      ],
      "stateMutability": "view",
      "type": "function",
      "constant": true
    },
    {
      "inputs": [
        {
          "internalType": "uint256",
          "name": "_nic",
          "type": "uint256"
        },
        {
          "internalType": "uint256",
          "name": "f_nic",
          "type": "uint256"
        },
        {
          "internalType": "string",
          "name": "f_name",
          "type": "string"
        }
      ],
      "name": "addNewFriend",
      "outputs": [],
      "stateMutability": "nonpayable",
      "type": "function"
    },
    {
      "inputs": [
        {
          "internalType": "uint256",
          "name": "_nic",
          "type": "uint256"
        },
        {
          "internalType": "uint256",
          "name": "f_nic",
          "type": "uint256"
        }
      ],
      "name": "areFriends",
      "outputs": [
        {
          "internalType": "bool",
          "name": "",
          "type": "bool"
        }
      ],
      "stateMutability": "view",
      "type": "function",
      "constant": true
    },
    {
      "inputs": [
        {
          "internalType": "uint256",
          "name": "_nic",
          "type": "uint256"
        },
        {
          "internalType": "uint256",
          "name": "f_nic",
          "type": "uint256"
        },
        {
          "internalType": "string",
          "name": "_msg",
          "type": "string"
        }
      ],
      "name": "sendMessage",
      "outputs": [],
      "stateMutability": "nonpayable",
      "type": "function"
    },
    {
      "inputs": [
        {
          "internalType": "uint256",
          "name": "_nic",
          "type": "uint256"
        },
        {
          "internalType": "uint256",
          "name": "f_nic",
          "type": "uint256"
        }
      ],
      "name": "readMessage",
      "outputs": [
        {
          "components": [
            {
              "internalType": "uint256",
              "name": "sender_nic",
              "type": "uint256"
            },
            {
              "internalType": "uint256",
              "name": "timestamp",
              "type": "uint256"
            },
            {
              "internalType": "string",
              "name": "msg",
              "type": "string"
            }
          ],
          "internalType": "struct BCar.message[]",
          "name": "",
          "type": "tuple[]"
        }
      ],
      "stateMutability": "view",
      "type": "function",
      "constant": true
    },
    {
      "inputs": [
        {
          "internalType": "uint256",
          "name": "_nic",
          "type": "uint256"
        },
        {
          "internalType": "string",
          "name": "e_no",
          "type": "string"
        },
        {
          "internalType": "string",
          "name": "v_no",
          "type": "string"
        },
        {
          "internalType": "string",
          "name": "company",
          "type": "string"
        },
        {
          "internalType": "string",
          "name": "modal",
          "type": "string"
        },
        {
          "internalType": "string",
          "name": "year",
          "type": "string"
        }
      ],
      "name": "addNewVehicle",
      "outputs": [
        {
          "internalType": "bool",
          "name": "",
          "type": "bool"
        }
      ],
      "stateMutability": "nonpayable",
      "type": "function"
    },
    {
      "inputs": [
        {
          "internalType": "string",
          "name": "e_no",
          "type": "string"
        }
      ],
      "name": "getVehicleInfo",
      "outputs": [
        {
          "internalType": "string",
          "name": "",
          "type": "string"
        },
        {
          "internalType": "string",
          "name": "",
          "type": "string"
        },
        {
          "internalType": "string",
          "name": "",
          "type": "string"
        },
        {
          "internalType": "string",
          "name": "",
          "type": "string"
        },
        {
          "internalType": "string",
          "name": "",
          "type": "string"
        },
        {
          "internalType": "uint256",
          "name": "",
          "type": "uint256"
        },
        {
          "internalType": "bool",
          "name": "",
          "type": "bool"
        }
      ],
      "stateMutability": "view",
      "type": "function",
      "constant": true
    },
    {
      "inputs": [
        {
          "internalType": "uint256",
          "name": "_nic",
          "type": "uint256"
        },
        {
          "internalType": "string",
          "name": "e_no",
          "type": "string"
        }
      ],
      "name": "_addVehicle",
      "outputs": [],
      "stateMutability": "nonpayable",
      "type": "function"
    },
    {
      "inputs": [
        {
          "internalType": "uint256",
          "name": "_nic",
          "type": "uint256"
        }
      ],
      "name": "getUserVehicles",
      "outputs": [
        {
          "components": [
            {
              "internalType": "string",
              "name": "e_no",
              "type": "string"
            },
            {
              "internalType": "string",
              "name": "v_no",
              "type": "string"
            },
            {
              "internalType": "string",
              "name": "company",
              "type": "string"
            },
            {
              "internalType": "string",
              "name": "modal",
              "type": "string"
            },
            {
              "internalType": "string",
              "name": "year",
              "type": "string"
            },
            {
              "internalType": "uint256",
              "name": "owner_id",
              "type": "uint256"
            },
            {
              "internalType": "bool",
              "name": "reg_with_owner",
              "type": "bool"
            }
          ],
          "internalType": "struct BCar.Vehicle[]",
          "name": "",
          "type": "tuple[]"
        }
      ],
      "stateMutability": "view",
      "type": "function",
      "constant": true
    },
    {
      "inputs": [
        {
          "internalType": "uint256",
          "name": "_nic",
          "type": "uint256"
        },
        {
          "internalType": "uint256",
          "name": "n_nic",
          "type": "uint256"
        },
        {
          "internalType": "string",
          "name": "e_no",
          "type": "string"
        }
      ],
      "name": "transferVehicle",
      "outputs": [],
      "stateMutability": "nonpayable",
      "type": "function"
    },
    {
      "inputs": [
        {
          "internalType": "uint256",
          "name": "_nic",
          "type": "uint256"
        }
      ],
      "name": "isUserExist",
      "outputs": [
        {
          "internalType": "bool",
          "name": "",
          "type": "bool"
        }
      ],
      "stateMutability": "view",
      "type": "function",
      "constant": true
    },
    {
      "inputs": [
        {
          "internalType": "uint256",
          "name": "_nic",
          "type": "uint256"
        }
      ],
      "name": "isLoggedIn",
      "outputs": [
        {
          "internalType": "bool",
          "name": "",
          "type": "bool"
        }
      ],
      "stateMutability": "view",
      "type": "function",
      "constant": true
    },
    {
      "inputs": [
        {
          "internalType": "string",
          "name": "e_no",
          "type": "string"
        }
      ],
      "name": "isVehicleRegistered",
      "outputs": [
        {
          "internalType": "bool",
          "name": "",
          "type": "bool"
        }
      ],
      "stateMutability": "view",
      "type": "function",
      "constant": true
    },
    {
      "inputs": [
        {
          "internalType": "string",
          "name": "e_no",
          "type": "string"
        },
        {
          "internalType": "uint256",
          "name": "_nic",
          "type": "uint256"
        }
      ],
      "name": "isVehicleRegisteredWithTheUser",
      "outputs": [
        {
          "internalType": "bool",
          "name": "",
          "type": "bool"
        }
      ],
      "stateMutability": "view",
      "type": "function",
      "constant": true
    }
  ],
  "bytecode": "0x608060405234801561001057600080fd5b506141c0806100206000396000f3fe608060405234801561001057600080fd5b50600436106101375760003560e01c80636e7a7a74116100b8578063b312b5bc1161007c578063b312b5bc14610404578063c6c8816114610420578063cd81399014610450578063edf6a3d41461046c578063f10eee231461049c578063f7a094e1146104d257610137565b80636e7a7a74146103095780637b4ea148146103395780639f4216e814610369578063ab32c5081461039e578063ac56730f146103d457610137565b806339561dba116100ff57806339561dba1461022d578063449a34ba146102495780635724d5d3146102795780635b3d8bd1146102a957806369f943da146102d957610137565b80631a11cc441461013c57806321668a011461016c578063259b3f631461019d57806326344c8b146101cd578063314c4ff9146101fd575b600080fd5b610156600480360381019061015191906126bf565b6104ee565b6040516101639190612920565b60405180910390f35b610186600480360381019061018191906126bf565b6108aa565b60405161019492919061299b565b60405180910390f35b6101b760048036038101906101b291906129cb565b610956565b6040516101c49190612b1d565b60405180910390f35b6101e760048036038101906101e291906126bf565b610a7e565b6040516101f49190612b4e565b60405180910390f35b61021760048036038101906102129190612c9e565b610aaa565b6040516102249190612b4e565b60405180910390f35b61024760048036038101906102429190612d5a565b610c14565b005b610263600480360381019061025e91906126bf565b610e13565b6040516102709190612ecd565b60405180910390f35b610293600480360381019061028e9190612eef565b610fb3565b6040516102a09190612b4e565b60405180910390f35b6102c360048036038101906102be9190612fda565b61111c565b6040516102d09190612b4e565b60405180910390f35b6102f360048036038101906102ee91906130f3565b611356565b6040516103009190612b4e565b60405180910390f35b610323600480360381019061031e91906126bf565b61138e565b6040516103309190612b4e565b60405180910390f35b610353600480360381019061034e91906126bf565b611444565b604051610360919061313c565b60405180910390f35b610383600480360381019061037e91906126bf565b611462565b60405161039596959493929190613157565b60405180910390f35b6103b860048036038101906103b391906130f3565b6116cb565b6040516103cb97969594939291906131d4565b60405180910390f35b6103ee60048036038101906103e991906126bf565b611ae9565b6040516103fb9190612b4e565b60405180910390f35b61041e60048036038101906104199190612d5a565b611b16565b005b61043a60048036038101906104359190613266565b611d70565b6040516104479190612b4e565b60405180910390f35b61046a60048036038101906104659190612c9e565b611d9e565b005b610486600480360381019061048191906129cb565b611ea1565b6040516104939190612b4e565b60405180910390f35b6104b660048036038101906104b191906130f3565b611f73565b6040516104c997969594939291906131d4565b60405180910390f35b6104ec60048036038101906104e791906132c2565b612280565b005b60606104f982610a7e565b610538576040517f08c379a000000000000000000000000000000000000000000000000000000000815260040161052f9061337d565b60405180910390fd5b60046000838152602001908152602001600020600101805480602002602001604051908101604052809291908181526020016000905b8282101561089f57838290600052602060002090600702016040518060e00160405290816000820180546105a1906133cc565b80601f01602080910402602001604051908101604052809291908181526020018280546105cd906133cc565b801561061a5780601f106105ef5761010080835404028352916020019161061a565b820191906000526020600020905b8154815290600101906020018083116105fd57829003601f168201915b50505050508152602001600182018054610633906133cc565b80601f016020809104026020016040519081016040528092919081815260200182805461065f906133cc565b80156106ac5780601f10610681576101008083540402835291602001916106ac565b820191906000526020600020905b81548152906001019060200180831161068f57829003601f168201915b505050505081526020016002820180546106c5906133cc565b80601f01602080910402602001604051908101604052809291908181526020018280546106f1906133cc565b801561073e5780601f106107135761010080835404028352916020019161073e565b820191906000526020600020905b81548152906001019060200180831161072157829003601f168201915b50505050508152602001600382018054610757906133cc565b80601f0160208091040260200160405190810160405280929190818152602001828054610783906133cc565b80156107d05780601f106107a5576101008083540402835291602001916107d0565b820191906000526020600020905b8154815290600101906020018083116107b357829003601f168201915b505050505081526020016004820180546107e9906133cc565b80601f0160208091040260200160405190810160405280929190818152602001828054610815906133cc565b80156108625780601f1061083757610100808354040283529160200191610862565b820191906000526020600020905b81548152906001019060200180831161084557829003601f168201915b50505050508152602001600582015481526020016006820160009054906101000a900460ff1615151515815250508152602001906001019061056e565b505050509050919050565b60016020528060005260406000206000915090508060000154908060010180546108d3906133cc565b80601f01602080910402602001604051908101604052809291908181526020018280546108ff906133cc565b801561094c5780601f106109215761010080835404028352916020019161094c565b820191906000526020600020905b81548152906001019060200180831161092f57829003601f168201915b5050505050905082565b606060006109648484612589565b905060026000828152602001908152602001600020805480602002602001604051908101604052809291908181526020016000905b82821015610a71578382906000526020600020906003020160405180606001604052908160008201548152602001600182015481526020016002820180546109e0906133cc565b80601f0160208091040260200160405190810160405280929190818152602001828054610a0c906133cc565b8015610a595780601f10610a2e57610100808354040283529160200191610a59565b820191906000526020600020905b815481529060010190602001808311610a3c57829003601f168201915b50505050508152505081526020019060010190610999565b5050505091505092915050565b600080600083815260200190815260200160002060050160009054906101000a900460ff169050919050565b6000610ab583611ae9565b610af4576040517f08c379a0000000000000000000000000000000000000000000000000000000008152600401610aeb90613449565b60405180910390fd5b610afd83610a7e565b15610b3d576040517f08c379a0000000000000000000000000000000000000000000000000000000008152600401610b34906134b5565b60405180910390fd5b600080848152602001908152602001600020600401604051602001610b629190613578565b6040516020818303038152906040528051906020012082604051602001610b8991906135c0565b6040516020818303038152906040528051906020012014610bdf576040517f08c379a0000000000000000000000000000000000000000000000000000000008152600401610bd690613623565b60405180910390fd5b600160008085815260200190815260200160002060050160006101000a81548160ff0219169083151502179055905092915050565b610c1d84610a7e565b610c5c576040517f08c379a0000000000000000000000000000000000000000000000000000000008152600401610c539061337d565b60405180910390fd5b610c6583611ae9565b610ca4576040517f08c379a0000000000000000000000000000000000000000000000000000000008152600401610c9b906136b5565b60405180910390fd5b60011515610cb28585611ea1565b151514610cf4576040517f08c379a0000000000000000000000000000000000000000000000000000000008152600401610ceb90613747565b60405180910390fd5b6000610d008585612589565b90506000604051806060016040528087815260200142815260200185858080601f016020809104026020016040519081016040528093929190818152602001838380828437600081840152601f19601f8201169050808301925050505050505081525090506002600083815260200190815260200160002081908060018154018082558091505060019003906000526020600020906003020160009091909190915060008201518160000155602082015181600101556040820151816002019081610dcb91906138fe565b5050507fd96231ef676e3e8799b3f576a020cb0fbe997efd03802226119b87674b11c1c286868686604051610e0394939291906139fd565b60405180910390a1505050505050565b6060610e1e82611ae9565b610e5d576040517f08c379a0000000000000000000000000000000000000000000000000000000008152600401610e5490613a89565b60405180910390fd5b610e6682610a7e565b610ea5576040517f08c379a0000000000000000000000000000000000000000000000000000000008152600401610e9c9061337d565b60405180910390fd5b600080838152602001908152602001600020600601805480602002602001604051908101604052809291908181526020016000905b82821015610fa8578382906000526020600020906002020160405180604001604052908160008201548152602001600182018054610f17906133cc565b80601f0160208091040260200160405190810160405280929190818152602001828054610f43906133cc565b8015610f905780601f10610f6557610100808354040283529160200191610f90565b820191906000526020600020905b815481529060010190602001808311610f7357829003601f168201915b50505050508152505081526020019060010190610eda565b505050509050919050565b6000610fbe86611ae9565b15610ffe576040517f08c379a0000000000000000000000000000000000000000000000000000000008152600401610ff590613af5565b60405180910390fd5b856000808881526020019081526020016000206000018190555084600080888152602001908152602001600020600101908161103a91906138fe565b5083600080888152602001908152602001600020600201908161105d91906138fe565b5082600080888152602001908152602001600020600301908161108091906138fe565b508160008088815260200190815260200160002060040190816110a391906138fe565b50600160008088815260200190815260200160002060050160006101000a81548160ff0219169083151502179055507ff4f62c47f24224b311017882c675231104f94c03da61192ac4312d300a799639858786856040516111079493929190613b15565b60405180910390a16001905095945050505050565b600061112787610a7e565b611166576040517f08c379a000000000000000000000000000000000000000000000000000000000815260040161115d9061337d565b60405180910390fd5b61116f86611356565b156111af576040517f08c379a00000000000000000000000000000000000000000000000000000000081526004016111a690613bbb565b60405180910390fd5b856003876040516111c091906135c0565b908152602001604051809103902060000190816111dd91906138fe565b50846003876040516111ef91906135c0565b9081526020016040518091039020600101908161120c91906138fe565b508360038760405161121e91906135c0565b9081526020016040518091039020600201908161123b91906138fe565b508260038760405161124d91906135c0565b9081526020016040518091039020600301908161126a91906138fe565b508160038760405161127c91906135c0565b9081526020016040518091039020600401908161129991906138fe565b50866003876040516112ab91906135c0565b90815260200160405180910390206005018190555060016003876040516112d291906135c0565b908152602001604051809103902060060160006101000a81548160ff0219169083151502179055507fcffcfe9c611d548f2a90bba136f5ae1dbfc1388cbd0d0bebad971e7f967d4c2b86868686868c600160405161133697969594939291906131d4565b60405180910390a16113488787611d9e565b600190509695505050505050565b600060038260405161136891906135c0565b908152602001604051809103902060060160009054906101000a900460ff169050919050565b600061139982610a7e565b6113d8576040517f08c379a00000000000000000000000000000000000000000000000000000000081526004016113cf9061337d565b60405180910390fd5b7f63ec3f4df310cbea2a7bef14e7983a49708f46e93064cfbc28087a44a6ea24f460006040516114089190612b4e565b60405180910390a1600080600084815260200190815260200160002060050160006101000a81548160ff02191690831515021790559050919050565b60046020528060005260406000206000915090508060000154905081565b600060205280600052604060002060009150905080600001549080600101805461148b906133cc565b80601f01602080910402602001604051908101604052809291908181526020018280546114b7906133cc565b80156115045780601f106114d957610100808354040283529160200191611504565b820191906000526020600020905b8154815290600101906020018083116114e757829003601f168201915b505050505090806002018054611519906133cc565b80601f0160208091040260200160405190810160405280929190818152602001828054611545906133cc565b80156115925780601f1061156757610100808354040283529160200191611592565b820191906000526020600020905b81548152906001019060200180831161157557829003601f168201915b5050505050908060030180546115a7906133cc565b80601f01602080910402602001604051908101604052809291908181526020018280546115d3906133cc565b80156116205780601f106115f557610100808354040283529160200191611620565b820191906000526020600020905b81548152906001019060200180831161160357829003601f168201915b505050505090806004018054611635906133cc565b80601f0160208091040260200160405190810160405280929190818152602001828054611661906133cc565b80156116ae5780601f10611683576101008083540402835291602001916116ae565b820191906000526020600020905b81548152906001019060200180831161169157829003601f168201915b5050505050908060050160009054906101000a900460ff16905086565b60608060608060606000806116df88611356565b61171e576040517f08c379a000000000000000000000000000000000000000000000000000000000815260040161171590613c27565b60405180910390fd5b60038860405161172e91906135c0565b908152602001604051809103902060000160038960405161174f91906135c0565b908152602001604051809103902060010160038a60405161177091906135c0565b908152602001604051809103902060020160038b60405161179191906135c0565b908152602001604051809103902060030160038c6040516117b291906135c0565b908152602001604051809103902060040160038d6040516117d391906135c0565b90815260200160405180910390206005015460038e6040516117f591906135c0565b908152602001604051809103902060060160009054906101000a900460ff16868054611820906133cc565b80601f016020809104026020016040519081016040528092919081815260200182805461184c906133cc565b80156118995780601f1061186e57610100808354040283529160200191611899565b820191906000526020600020905b81548152906001019060200180831161187c57829003601f168201915b505050505096508580546118ac906133cc565b80601f01602080910402602001604051908101604052809291908181526020018280546118d8906133cc565b80156119255780601f106118fa57610100808354040283529160200191611925565b820191906000526020600020905b81548152906001019060200180831161190857829003601f168201915b50505050509550848054611938906133cc565b80601f0160208091040260200160405190810160405280929190818152602001828054611964906133cc565b80156119b15780601f10611986576101008083540402835291602001916119b1565b820191906000526020600020905b81548152906001019060200180831161199457829003601f168201915b505050505094508380546119c4906133cc565b80601f01602080910402602001604051908101604052809291908181526020018280546119f0906133cc565b8015611a3d5780601f10611a1257610100808354040283529160200191611a3d565b820191906000526020600020905b815481529060010190602001808311611a2057829003601f168201915b50505050509350828054611a50906133cc565b80601f0160208091040260200160405190810160405280929190818152602001828054611a7c906133cc565b8015611ac95780601f10611a9e57610100808354040283529160200191611ac9565b820191906000526020600020905b815481529060010190602001808311611aac57829003601f168201915b505050505092509650965096509650965096509650919395979092949650565b6000806000808481526020019081526020016000206001018054611b0c906133cc565b9050119050919050565b611b1f84610a7e565b611b5e576040517f08c379a0000000000000000000000000000000000000000000000000000000008152600401611b559061337d565b60405180910390fd5b611b6783611ae9565b611ba6576040517f08c379a0000000000000000000000000000000000000000000000000000000008152600401611b9d906136b5565b60405180910390fd5b828403611be8576040517f08c379a0000000000000000000000000000000000000000000000000000000008152600401611bdf90613cb9565b60405180910390fd5b60001515611bf68585611ea1565b151514611c38576040517f08c379a0000000000000000000000000000000000000000000000000000000008152600401611c2f90613d25565b60405180910390fd5b611c87848484848080601f016020809104026020016040519081016040528093929190818152602001838380828437600081840152601f19601f820116905080830192505050505050506125f5565b611d2f83856000808881526020019081526020016000206001018054611cac906133cc565b80601f0160208091040260200160405190810160405280929190818152602001828054611cd8906133cc565b8015611d255780601f10611cfa57610100808354040283529160200191611d25565b820191906000526020600020905b815481529060010190602001808311611d0857829003601f168201915b50505050506125f5565b7fe514c4afa30880e1ca9b0dc7a1cb62a81ff9cab2e30c36cea191354f50ff66b2838383604051611d6293929190613d45565b60405180910390a150505050565b600081600384604051611d8391906135c0565b90815260200160405180910390206005015414905092915050565b60046000838152602001908152602001600020600101600382604051611dc491906135c0565b9081526020016040518091039020908060018154018082558091505060019003906000526020600020906007020160009091909190915060008201816000019081611e0f9190613d8d565b5060018201816001019081611e249190613d8d565b5060028201816002019081611e399190613d8d565b5060038201816003019081611e4e9190613d8d565b5060048201816004019081611e639190613d8d565b50600582015481600501556006820160009054906101000a900460ff168160060160006101000a81548160ff02191690831515021790555050505050565b600080600083815260200190815260200160002060060180549050600080858152602001908152602001600020600601805490501115611ee8576000839050829350809250505b60005b60008085815260200190815260200160002060060180549050811015611f6757826000808681526020019081526020016000206006018281548110611f3357611f32613e75565b5b90600052602060002090600202016000015403611f54576001915050611f6d565b8080611f5f90613ed3565b915050611eeb565b50600090505b92915050565b600381805160208101820180518482526020830160208501208183528095505050505050600091509050806000018054611fac906133cc565b80601f0160208091040260200160405190810160405280929190818152602001828054611fd8906133cc565b80156120255780601f10611ffa57610100808354040283529160200191612025565b820191906000526020600020905b81548152906001019060200180831161200857829003601f168201915b50505050509080600101805461203a906133cc565b80601f0160208091040260200160405190810160405280929190818152602001828054612066906133cc565b80156120b35780601f10612088576101008083540402835291602001916120b3565b820191906000526020600020905b81548152906001019060200180831161209657829003601f168201915b5050505050908060020180546120c8906133cc565b80601f01602080910402602001604051908101604052809291908181526020018280546120f4906133cc565b80156121415780601f1061211657610100808354040283529160200191612141565b820191906000526020600020905b81548152906001019060200180831161212457829003601f168201915b505050505090806003018054612156906133cc565b80601f0160208091040260200160405190810160405280929190818152602001828054612182906133cc565b80156121cf5780601f106121a4576101008083540402835291602001916121cf565b820191906000526020600020905b8154815290600101906020018083116121b257829003601f168201915b5050505050908060040180546121e4906133cc565b80601f0160208091040260200160405190810160405280929190818152602001828054612210906133cc565b801561225d5780601f106122325761010080835404028352916020019161225d565b820191906000526020600020905b81548152906001019060200180831161224057829003601f168201915b5050505050908060050154908060060160009054906101000a900460ff16905087565b61228983610a7e565b6122c8576040517f08c379a00000000000000000000000000000000000000000000000000000000081526004016122bf9061337d565b60405180910390fd5b81830361230a576040517f08c379a000000000000000000000000000000000000000000000000000000000815260040161230190613f8d565b60405180910390fd5b61231382611ae9565b612352576040517f08c379a000000000000000000000000000000000000000000000000000000000815260040161234990613ff9565b60405180910390fd5b61235b81611356565b61239a576040517f08c379a00000000000000000000000000000000000000000000000000000000081526004016123919061408b565b60405180910390fd5b6123a48184611d70565b6123e3576040517f08c379a00000000000000000000000000000000000000000000000000000000081526004016123da9061411d565b60405180910390fd5b6123ed8282611d9e565b60005b6004600085815260200190815260200160002060010180549050811015612583578160405160200161242291906135c0565b604051602081830303815290604052805190602001206004600086815260200190815260200160002060010182815481106124605761245f613e75565b5b90600052602060002090600702016000016040516020016124819190613578565b604051602081830303815290604052805190602001201480156124ee5750600115156004600086815260200190815260200160002060010182815481106124cb576124ca613e75565b5b906000526020600020906007020160060160009054906101000a900460ff161515145b1561257057600060046000868152602001908152602001600020600101828154811061251d5761251c613e75565b5b906000526020600020906007020160060160006101000a81548160ff0219169083151502179055508260038360405161255691906135c0565b908152602001604051809103902060050181905550612583565b808061257b90613ed3565b9150506123f0565b50505050565b6000818310156125c35782826040516020016125a692919061415e565b6040516020818303038152906040528051906020012090506125ef565b81836040516020016125d692919061415e565b6040516020818303038152906040528051906020012090505b92915050565b6000604051806040016040528084815260200183815250905060008085815260200190815260200160002060060181908060018154018082558091505060019003906000526020600020906002020160009091909190915060008201518160000155602082015181600101908161266c91906138fe565b50505050505050565b6000604051905090565b600080fd5b600080fd5b6000819050919050565b61269c81612689565b81146126a757600080fd5b50565b6000813590506126b981612693565b92915050565b6000602082840312156126d5576126d461267f565b5b60006126e3848285016126aa565b91505092915050565b600081519050919050565b600082825260208201905092915050565b6000819050602082019050919050565b600081519050919050565b600082825260208201905092915050565b60005b83811015612752578082015181840152602081019050612737565b60008484015250505050565b6000601f19601f8301169050919050565b600061277a82612718565b6127848185612723565b9350612794818560208601612734565b61279d8161275e565b840191505092915050565b6127b181612689565b82525050565b60008115159050919050565b6127cc816127b7565b82525050565b600060e08301600083015184820360008601526127ef828261276f565b91505060208301518482036020860152612809828261276f565b91505060408301518482036040860152612823828261276f565b9150506060830151848203606086015261283d828261276f565b91505060808301518482036080860152612857828261276f565b91505060a083015161286c60a08601826127a8565b5060c083015161287f60c08601826127c3565b508091505092915050565b600061289683836127d2565b905092915050565b6000602082019050919050565b60006128b6826126ec565b6128c081856126f7565b9350836020820285016128d285612708565b8060005b8581101561290e57848403895281516128ef858261288a565b94506128fa8361289e565b925060208a019950506001810190506128d6565b50829750879550505050505092915050565b6000602082019050818103600083015261293a81846128ab565b905092915050565b61294b81612689565b82525050565b600082825260208201905092915050565b600061296d82612718565b6129778185612951565b9350612987818560208601612734565b6129908161275e565b840191505092915050565b60006040820190506129b06000830185612942565b81810360208301526129c28184612962565b90509392505050565b600080604083850312156129e2576129e161267f565b5b60006129f0858286016126aa565b9250506020612a01858286016126aa565b9150509250929050565b600081519050919050565b600082825260208201905092915050565b6000819050602082019050919050565b6000606083016000830151612a4f60008601826127a8565b506020830151612a6260208601826127a8565b5060408301518482036040860152612a7a828261276f565b9150508091505092915050565b6000612a938383612a37565b905092915050565b6000602082019050919050565b6000612ab382612a0b565b612abd8185612a16565b935083602082028501612acf85612a27565b8060005b85811015612b0b5784840389528151612aec8582612a87565b9450612af783612a9b565b925060208a01995050600181019050612ad3565b50829750879550505050505092915050565b60006020820190508181036000830152612b378184612aa8565b905092915050565b612b48816127b7565b82525050565b6000602082019050612b636000830184612b3f565b92915050565b600080fd5b600080fd5b7f4e487b7100000000000000000000000000000000000000000000000000000000600052604160045260246000fd5b612bab8261275e565b810181811067ffffffffffffffff82111715612bca57612bc9612b73565b5b80604052505050565b6000612bdd612675565b9050612be98282612ba2565b919050565b600067ffffffffffffffff821115612c0957612c08612b73565b5b612c128261275e565b9050602081019050919050565b82818337600083830152505050565b6000612c41612c3c84612bee565b612bd3565b905082815260208101848484011115612c5d57612c5c612b6e565b5b612c68848285612c1f565b509392505050565b600082601f830112612c8557612c84612b69565b5b8135612c95848260208601612c2e565b91505092915050565b60008060408385031215612cb557612cb461267f565b5b6000612cc3858286016126aa565b925050602083013567ffffffffffffffff811115612ce457612ce3612684565b5b612cf085828601612c70565b9150509250929050565b600080fd5b600080fd5b60008083601f840112612d1a57612d19612b69565b5b8235905067ffffffffffffffff811115612d3757612d36612cfa565b5b602083019150836001820283011115612d5357612d52612cff565b5b9250929050565b60008060008060608587031215612d7457612d7361267f565b5b6000612d82878288016126aa565b9450506020612d93878288016126aa565b935050604085013567ffffffffffffffff811115612db457612db3612684565b5b612dc087828801612d04565b925092505092959194509250565b600081519050919050565b600082825260208201905092915050565b6000819050602082019050919050565b6000604083016000830151612e1260008601826127a8565b5060208301518482036020860152612e2a828261276f565b9150508091505092915050565b6000612e438383612dfa565b905092915050565b6000602082019050919050565b6000612e6382612dce565b612e6d8185612dd9565b935083602082028501612e7f85612dea565b8060005b85811015612ebb5784840389528151612e9c8582612e37565b9450612ea783612e4b565b925060208a01995050600181019050612e83565b50829750879550505050505092915050565b60006020820190508181036000830152612ee78184612e58565b905092915050565b600080600080600060a08688031215612f0b57612f0a61267f565b5b6000612f19888289016126aa565b955050602086013567ffffffffffffffff811115612f3a57612f39612684565b5b612f4688828901612c70565b945050604086013567ffffffffffffffff811115612f6757612f66612684565b5b612f7388828901612c70565b935050606086013567ffffffffffffffff811115612f9457612f93612684565b5b612fa088828901612c70565b925050608086013567ffffffffffffffff811115612fc157612fc0612684565b5b612fcd88828901612c70565b9150509295509295909350565b60008060008060008060c08789031215612ff757612ff661267f565b5b600061300589828a016126aa565b965050602087013567ffffffffffffffff81111561302657613025612684565b5b61303289828a01612c70565b955050604087013567ffffffffffffffff81111561305357613052612684565b5b61305f89828a01612c70565b945050606087013567ffffffffffffffff8111156130805761307f612684565b5b61308c89828a01612c70565b935050608087013567ffffffffffffffff8111156130ad576130ac612684565b5b6130b989828a01612c70565b92505060a087013567ffffffffffffffff8111156130da576130d9612684565b5b6130e689828a01612c70565b9150509295509295509295565b6000602082840312156131095761310861267f565b5b600082013567ffffffffffffffff81111561312757613126612684565b5b61313384828501612c70565b91505092915050565b60006020820190506131516000830184612942565b92915050565b600060c08201905061316c6000830189612942565b818103602083015261317e8188612962565b905081810360408301526131928187612962565b905081810360608301526131a68186612962565b905081810360808301526131ba8185612962565b90506131c960a0830184612b3f565b979650505050505050565b600060e08201905081810360008301526131ee818a612962565b905081810360208301526132028189612962565b905081810360408301526132168188612962565b9050818103606083015261322a8187612962565b9050818103608083015261323e8186612962565b905061324d60a0830185612942565b61325a60c0830184612b3f565b98975050505050505050565b6000806040838503121561327d5761327c61267f565b5b600083013567ffffffffffffffff81111561329b5761329a612684565b5b6132a785828601612c70565b92505060206132b8858286016126aa565b9150509250929050565b6000806000606084860312156132db576132da61267f565b5b60006132e9868287016126aa565b93505060206132fa868287016126aa565b925050604084013567ffffffffffffffff81111561331b5761331a612684565b5b61332786828701612c70565b9150509250925092565b7f596f75204e65656420546f204c6f6720496e2046697273742100000000000000600082015250565b6000613367601983612951565b915061337282613331565b602082019050919050565b600060208201905081810360008301526133968161335a565b9050919050565b7f4e487b7100000000000000000000000000000000000000000000000000000000600052602260045260246000fd5b600060028204905060018216806133e457607f821691505b6020821081036133f7576133f661339d565b5b50919050565b7f5573657220646f6573206e6f7420657869737473210000000000000000000000600082015250565b6000613433601583612951565b915061343e826133fd565b602082019050919050565b6000602082019050818103600083015261346281613426565b9050919050565b7f596f752061726520416c7265616479204c6f6767656420496e21000000000000600082015250565b600061349f601a83612951565b91506134aa82613469565b602082019050919050565b600060208201905081810360008301526134ce81613492565b9050919050565b600081905092915050565b60008190508160005260206000209050919050565b60008154613502816133cc565b61350c81866134d5565b94506001821660008114613527576001811461353c5761356f565b60ff198316865281151582028601935061356f565b613545856134e0565b60005b8381101561356757815481890152600182019150602081019050613548565b838801955050505b50505092915050565b600061358482846134f5565b915081905092915050565b600061359a82612718565b6135a481856134d5565b93506135b4818560208601612734565b80840191505092915050565b60006135cc828461358f565b915081905092915050565b7f50617373776f7220446f6573204e6f74204d6174636865642100000000000000600082015250565b600061360d601983612951565b9150613618826135d7565b602082019050919050565b6000602082019050818103600083015261363c81613600565b9050919050565b7f596f757220466972656e6420446f6573204e6f7420526567697374657265642060008201527f57697468205468652053797374656d2100000000000000000000000000000000602082015250565b600061369f603083612951565b91506136aa82613643565b604082019050919050565b600060208201905081810360008301526136ce81613692565b9050919050565b7f596f7520617265206e6f7420667269656e64732077697468207468652067697660008201527f656e207573657221000000000000000000000000000000000000000000000000602082015250565b6000613731602883612951565b915061373c826136d5565b604082019050919050565b6000602082019050818103600083015261376081613724565b9050919050565b60006020601f8301049050919050565b600082821b905092915050565b6000600883026137b47fffffffffffffffffffffffffffffffffffffffffffffffffffffffffffffffff82613777565b6137be8683613777565b95508019841693508086168417925050509392505050565b6000819050919050565b60006137fb6137f66137f184612689565b6137d6565b612689565b9050919050565b6000819050919050565b613815836137e0565b61382961382182613802565b848454613784565b825550505050565b600090565b61383e613831565b61384981848461380c565b505050565b5b8181101561386d57613862600082613836565b60018101905061384f565b5050565b601f8211156138b257613883816134e0565b61388c84613767565b8101602085101561389b578190505b6138af6138a785613767565b83018261384e565b50505b505050565b600082821c905092915050565b60006138d5600019846008026138b7565b1980831691505092915050565b60006138ee83836138c4565b9150826002028217905092915050565b61390782612718565b67ffffffffffffffff8111156139205761391f612b73565b5b61392a82546133cc565b613935828285613871565b600060209050601f8311600181146139685760008415613956578287015190505b61396085826138e2565b8655506139c8565b601f198416613976866134e0565b60005b8281101561399e57848901518255600182019150602085019450602081019050613979565b868310156139bb57848901516139b7601f8916826138c4565b8355505b6001600288020188555050505b505050505050565b60006139dc8385612951565b93506139e9838584612c1f565b6139f28361275e565b840190509392505050565b6000606082019050613a126000830187612942565b613a1f6020830186612942565b8181036040830152613a328184866139d0565b905095945050505050565b7f5573657220657869737473210000000000000000000000000000000000000000600082015250565b6000613a73600c83612951565b9150613a7e82613a3d565b602082019050919050565b60006020820190508181036000830152613aa281613a66565b9050919050565b7f5573657220616c72656164792065786973747321000000000000000000000000600082015250565b6000613adf601483612951565b9150613aea82613aa9565b602082019050919050565b60006020820190508181036000830152613b0e81613ad2565b9050919050565b60006080820190508181036000830152613b2f8187612962565b9050613b3e6020830186612942565b8181036040830152613b508185612962565b90508181036060830152613b648184612962565b905095945050505050565b7f56656869636c6520416c72656164792052646769737465726564000000000000600082015250565b6000613ba5601a83612951565b9150613bb082613b6f565b602082019050919050565b60006020820190508181036000830152613bd481613b98565b9050919050565b7f56656869636c65206973206e6f74205265676973746572656400000000000000600082015250565b6000613c11601983612951565b9150613c1c82613bdb565b602082019050919050565b60006020820190508181036000830152613c4081613c04565b9050919050565b7f557365722063616e6e6f74206164642068696d2f6865722073656c662061732060008201527f667269656e642100000000000000000000000000000000000000000000000000602082015250565b6000613ca3602783612951565b9150613cae82613c47565b604082019050919050565b60006020820190508181036000830152613cd281613c96565b9050919050565b7f54686573652075736572732061726520616c726561647920667269656e647321600082015250565b6000613d0f602083612951565b9150613d1a82613cd9565b602082019050919050565b60006020820190508181036000830152613d3e81613d02565b9050919050565b6000604082019050613d5a6000830186612942565b8181036020830152613d6d8184866139d0565b9050949350505050565b600081549050613d86816133cc565b9050919050565b818103613d9b575050613e73565b613da482613d77565b67ffffffffffffffff811115613dbd57613dbc612b73565b5b613dc782546133cc565b613dd2828285613871565b6000601f831160018114613e015760008415613def578287015490505b613df985826138e2565b865550613e6c565b601f198416613e0f876134e0565b9650613e1a866134e0565b60005b82811015613e4257848901548255600182019150600185019450602081019050613e1d565b86831015613e5f5784890154613e5b601f8916826138c4565b8355505b6001600288020188555050505b5050505050505b565b7f4e487b7100000000000000000000000000000000000000000000000000000000600052603260045260246000fd5b7f4e487b7100000000000000000000000000000000000000000000000000000000600052601160045260246000fd5b6000613ede82612689565b91507fffffffffffffffffffffffffffffffffffffffffffffffffffffffffffffffff8203613f1057613f0f613ea4565b5b600182019050919050565b7f557365722063616e6e6f74207472616e73666572207468652076656869636c6560008201527f2064617461206f6e206869732f686572206163636f756e742100000000000000602082015250565b6000613f77603983612951565b9150613f8282613f1b565b604082019050919050565b60006020820190508181036000830152613fa681613f6a565b9050919050565b7f4f746865722055736572204973204e6f74205265676973746572656421000000600082015250565b6000613fe3601d83612951565b9150613fee82613fad565b602082019050919050565b6000602082019050818103600083015261401281613fd6565b9050919050565b7f56656869636c6520596f752041726520547279696e6720546f205472616e736660008201527f6572206973204e6f742052656769737465726564210000000000000000000000602082015250565b6000614075603583612951565b915061408082614019565b604082019050919050565b600060208201905081810360008301526140a481614068565b9050919050565b7f56656869636c6520596f752041726520547279696e6720546f205472616e736660008201527f6572206973204e6f742052656769737465726564205769746820596f75210000602082015250565b6000614107603e83612951565b9150614112826140ab565b604082019050919050565b60006020820190508181036000830152614136816140fa565b9050919050565b6000819050919050565b61415861415382612689565b61413d565b82525050565b600061416a8285614147565b60208201915061417a8284614147565b602082019150819050939250505056fea26469706673582212206150c3f90284ce39a1b20bee90bbb200d4a4d2d607d7ea85e81d105e95533dcc64736f6c63430008110033",
  "immutableReferences": {},
  "source": "// SPDX-License-Identifier: MIT\r\npragma solidity >=0.7.0 <0.9.0;\r\n\r\ncontract BCar {\r\n    /**\r\n     * ! I might need to add public Key 'ACCOUNT ADDRESS' of users\r\n     */\r\n\r\n    // Chat Module /, Vehicle Moduel\r\n    /**\r\n     *? User=> :SignUp /, :LogIn/, :LogOut /, :getFriendsList /\r\n     */\r\n\r\n    struct User {\r\n        uint256 u_nic;\r\n        string u_name;\r\n        string u_contact;\r\n        string u_address;\r\n        string u_password;\r\n        bool isLoggedIn;\r\n        Friend[] friendList;\r\n    }\r\n\r\n    //  event is a log creates on trigger.\r\n    event userSignedUp(string _nam, uint256 _nic, string u_cont, string u_pass);\r\n    event LogoutUser(bool isUserLoggedIn);\r\n\r\n    mapping(uint256 => User) public userList;\r\n\r\n    function signUp(\r\n        uint256 _nic,\r\n        string memory _nam,\r\n        string memory _cont,\r\n        string memory _addr,\r\n        string memory _pass\r\n    ) public returns (bool) {\r\n        require(!isUserExist(_nic), \"User already exists!\");\r\n\r\n        userList[_nic].u_nic = _nic;\r\n        userList[_nic].u_name = _nam;\r\n        userList[_nic].u_contact = _cont;\r\n        userList[_nic].u_address = _addr;\r\n        userList[_nic].u_password = _pass;\r\n        userList[_nic].isLoggedIn = true;\r\n\r\n        emit userSignedUp(_nam, _nic, _cont, _pass);\r\n\r\n        return true;\r\n    }\r\n\r\n    function LogIn(uint256 _nic, string memory _pass) public returns (bool) {\r\n        require(isUserExist(_nic), \"User does not exists!\");\r\n        require(!isLoggedIn(_nic), \"You are Already Logged In!\");\r\n        require(\r\n            keccak256(abi.encodePacked(_pass)) ==\r\n                keccak256(abi.encodePacked(userList[_nic].u_password)),\r\n            \"Passwor Does Not Matched!\"\r\n        );\r\n        return userList[_nic].isLoggedIn = true;\r\n    }\r\n\r\n    function LogOut(uint256 _nic) public returns (bool) {\r\n        require(isLoggedIn(_nic), \"You Need To Log In First!\");\r\n        emit LogoutUser(false);\r\n        return userList[_nic].isLoggedIn = false;\r\n    }\r\n\r\n    function getFriendsList(uint256 _nic)\r\n        external\r\n        view\r\n        returns (Friend[] memory)\r\n    {\r\n        require(isUserExist(_nic), \"User exists!\");\r\n        require(isLoggedIn(_nic), \"You Need To Log In First!\");\r\n\r\n        return userList[_nic].friendList;\r\n    }\r\n\r\n    /**\r\n     *? Friends=> :addNewFriend /, :checkAlreadyFriends /, :LoopOnFriend /\r\n     */\r\n\r\n    // Each friend is identified by its address and name assigned by the second party\r\n    struct Friend {\r\n        uint256 f_nic;\r\n        string f_name;\r\n    }\r\n\r\n    event AddFriend(uint256 friend_key, string name);\r\n\r\n    mapping(uint256 => Friend) public friendList;\r\n\r\n    function addNewFriend(\r\n        uint256 _nic,\r\n        uint256 f_nic,\r\n        string calldata f_name\r\n    ) external {\r\n        require(isLoggedIn(_nic), \"You Need To Log In First!\");\r\n        require(isUserExist(f_nic), \"Your Firend Does Not Registered With The System!\");\r\n        require(_nic != f_nic, \"User cannot add him/her self as friend!\");\r\n        require(\r\n            areFriends(_nic, f_nic) == false,\r\n            \"These users are already friends!\"\r\n        );\r\n\r\n        _addFriend(_nic, f_nic, f_name);\r\n        _addFriend(f_nic, _nic, userList[_nic].u_name);\r\n        emit AddFriend(f_nic, f_name);\r\n    }\r\n\r\n    function areFriends(uint256 _nic, uint256 f_nic)\r\n        public\r\n        view\r\n        returns (bool)\r\n    {\r\n        // if the list of user is greater then the list of friend\r\n        if (\r\n            userList[_nic].friendList.length > userList[f_nic].friendList.length\r\n        ) {\r\n            uint256 tmp = _nic;\r\n            _nic = f_nic;\r\n            f_nic = tmp;\r\n        }\r\n        // the loop will run on bigger list\r\n        for (uint256 i = 0; i < userList[_nic].friendList.length; i++) {\r\n            if (userList[_nic].friendList[i].f_nic == f_nic) return true;\r\n        }\r\n        return false;\r\n    }\r\n\r\n    // A helper function to update the friendList\r\n    function _addFriend(\r\n        uint256 me,\r\n        uint256 friend_key,\r\n        string memory name\r\n    ) internal {\r\n        // create new object of type friend\r\n        Friend memory newFriend = Friend(friend_key, name);\r\n        // add newly created obj to friend list of user\r\n        userList[me].friendList.push(newFriend);\r\n    }\r\n\r\n    /**\r\n     *? Messages' Funcions=> :\r\n     */\r\n\r\n    // message construct stores the single chat message and its metadata\r\n    struct message {\r\n        // address sender;\r\n        uint256 sender_nic;\r\n        uint256 timestamp;\r\n        string msg;\r\n    }\r\n\r\n    event SendMessage(uint256 sender_key, uint256 friend_key, string msg);\r\n\r\n    // Collection of messages communicated in a channel between two users\r\n    mapping(bytes32 => message[]) allMessages; // key : Hash(user1,user2)\r\n\r\n    // Returns a unique code for the channel created between the two users\r\n    // Hash(key1,key2) where key1 is lexicographically smaller than key2\r\n    // function _getChatCode(address pubkey1, address pubkey2) internal pure returns(bytes32) {\r\n    function _getChatCode(uint256 _nic, uint256 f_nic)\r\n        internal\r\n        pure\r\n        returns (bytes32)\r\n    {\r\n        if (_nic < f_nic) return keccak256(abi.encodePacked(_nic, f_nic));\r\n        else return keccak256(abi.encodePacked(f_nic, _nic));\r\n    }\r\n\r\n    // Sends a new message to a given friend\r\n    function sendMessage(\r\n        uint256 _nic,\r\n        uint256 f_nic,\r\n        string calldata _msg\r\n    ) external {\r\n        require(isLoggedIn(_nic), \"You Need To Log In First!\");\r\n        require(\r\n            isUserExist(f_nic),\r\n            \"Your Firend Does Not Registered With The System!\"\r\n        );\r\n        require(\r\n            areFriends(_nic, f_nic) == true,\r\n            \"You are not friends with the given user!\"\r\n        );\r\n        bytes32 chatCode = _getChatCode(_nic, f_nic);\r\n        message memory newMsg = message(_nic, block.timestamp, _msg);\r\n        allMessages[chatCode].push(newMsg);\r\n        emit SendMessage(_nic, f_nic, _msg);\r\n    }\r\n\r\n    // Returns all the chat messages communicated in a channel\r\n    function readMessage(uint256 _nic, uint256 f_nic)\r\n        external\r\n        view\r\n        returns (message[] memory)\r\n    {\r\n        bytes32 chatCode = _getChatCode(_nic, f_nic);\r\n        return allMessages[chatCode];\r\n    }\r\n\r\n    /**\r\n    *? Vehicles => :addNewVehicle /, :isVehicleRegistered /, :getVehicleInfo /, :_addVehicle\r\n    * *_addVehicle is used to link vehicle with user\r\n    *! vehilce will be tracked through engin no. \r\n    *! I have been triying to track a vehicle both on its engin and vehicle no. But don't know why code was misbehaving. \r\n     */\r\n\r\n    struct Vehicle{\r\n        string e_no;\r\n        string v_no;\r\n        string company;\r\n        string modal;\r\n        string year;\r\n        uint256 owner_id;\r\n        bool reg_with_owner;\r\n    }\r\n\r\n    mapping(string => Vehicle) public vehicleList;\r\n\r\n    event newVehicleAdded(string e_no, string v_no, string company, string modal, string year, uint256 owner_id, bool reg_with_owner);\r\n    \r\n    function addNewVehicle(uint256 _nic, string memory e_no, string memory v_no, string memory company, string memory modal, string memory year) public returns(bool){\r\n        require(isLoggedIn(_nic), \"You Need To Log In First!\");\r\n        require(!isVehicleRegistered(e_no), \"Vehicle Already Rdgistered\");\r\n  \r\n        vehicleList[e_no].e_no = e_no;\r\n        vehicleList[e_no].v_no = v_no;\r\n        vehicleList[e_no].company = company;\r\n        vehicleList[e_no].modal = modal;\r\n        vehicleList[e_no].year = year;\r\n        vehicleList[e_no].owner_id = _nic;\r\n        vehicleList[e_no].reg_with_owner = true;\r\n\r\n        \r\n        emit newVehicleAdded(e_no, v_no, company, modal, year, _nic, true);\r\n        _addVehicle(_nic, e_no);\r\n\r\n        return true;\r\n\r\n    }\r\n\r\n    function getVehicleInfo(string memory e_no) public view returns (string memory, string memory, string memory, string memory, string memory, uint256, bool) {\r\n        require(isVehicleRegistered(e_no), \"Vehicle is not Registered\");\r\n        return (\r\n            vehicleList[e_no].e_no,\r\n            vehicleList[e_no].v_no,\r\n            vehicleList[e_no].company,\r\n            vehicleList[e_no].modal,\r\n            vehicleList[e_no].year,\r\n            vehicleList[e_no].owner_id,\r\n            vehicleList[e_no].reg_with_owner\r\n        );\r\n    }\r\n\r\n    /**\r\n     *? userVehicles functions =>  :_addVehicle /, :getUserVehicles /, :transferVehicle\r\n     ** _addVehicle is a helper funtion to add vehilce to the user. \r\n     */\r\n\r\n    struct UserVehicles {\r\n        uint256 user_id;\r\n        Vehicle[] vehicles_data;\r\n    }\r\n\r\n    mapping (uint256=>UserVehicles) public userVehicles;\r\n\r\n    function _addVehicle(uint256 _nic, string memory e_no) public {\r\n        userVehicles[_nic].vehicles_data.push(vehicleList[e_no]);\r\n    }\r\n\r\n    function getUserVehicles(uint256 _nic) external view returns (Vehicle[] memory){\r\n        require(isLoggedIn(_nic), \"You Need To Log In First!\");\r\n\r\n        return userVehicles[_nic].vehicles_data;\r\n    }\r\n\r\n    function transferVehicle(uint256 _nic, uint256 n_nic, string memory e_no) public {\r\n        require(isLoggedIn(_nic), \"You Need To Log In First!\");\r\n        require(_nic != n_nic, \"User cannot transfer the vehicle data on his/her account!\");\r\n        require(isUserExist(n_nic), \"Other User Is Not Registered!\");\r\n        require(isVehicleRegistered(e_no), \"Vehicle You Are Trying To Transfer is Not Registered!\");\r\n        require(isVehicleRegisteredWithTheUser(e_no, _nic), \"Vehicle You Are Trying To Transfer is Not Registered With You!\");\r\n\r\n        // complex code\r\n        // on following line vehicle will be transfered to new user. \r\n        _addVehicle(n_nic, e_no);\r\n        // turn current user's status to false\r\n        for (uint256 i = 0; i < userVehicles[_nic].vehicles_data.length; i++) {\r\n            if(keccak256(abi.encodePacked(userVehicles[_nic].vehicles_data[i].e_no)) == keccak256(abi.encodePacked(e_no)) && userVehicles[_nic].vehicles_data[i].reg_with_owner == true){\r\n                userVehicles[_nic].vehicles_data[i].reg_with_owner = false;\r\n                vehicleList[e_no].owner_id = n_nic;\r\n                break;\r\n            }\r\n        }\r\n        \r\n    }\r\n\r\n    /**\r\n     *? general purpose functions =>  :Loop, :isUserExists/, :isLoggedIn/, :isVehicleExists /\r\n     */\r\n\r\n    function isUserExist(uint256 _nic) public view returns (bool) {\r\n        return bytes(userList[_nic].u_name).length > 0;\r\n    }\r\n\r\n    function isLoggedIn(uint256 _nic) public view returns (bool) {\r\n        return userList[_nic].isLoggedIn;\r\n    }\r\n\r\n    function isVehicleRegistered(string memory e_no) public view returns (bool) {\r\n        return vehicleList[e_no].reg_with_owner;\r\n    }\r\n\r\n    function isVehicleRegisteredWithTheUser(string memory e_no, uint256 _nic) public view returns (bool) {\r\n        return vehicleList[e_no].owner_id == _nic;\r\n    }\r\n    \r\n}",
  "sourcePath": "C:\\xampp\\htdocs\\my_working_dir\\block-chain\\bcar1.0\\contracts\\BCar.sol",
  "compiler": {
    "name": "solc",
    "version": "0.8.17+commit.8df45f5f.Emscripten.clang"
  },
  "schemaVersion": "3.4.10",
  "updatedAt": "2022-12-13T10:43:42.081Z",
  "networkType": "ethereum",
  "devdoc": {
    "kind": "dev",
    "methods": {},
    "version": 1
  },
  "userdoc": {
    "kind": "user",
    "methods": {
      "isUserExist(uint256)": {
        "notice": "? general purpose functions =>  :Loop, :isUserExists/, :isLoggedIn/, :isVehicleExists /"
      }
    },
    "version": 1
  }
}