{
  "contractName": "BCar",
  "abi": [
    {
      "anonymous": false,
      "inputs": [
        {
          "indexed": false,
          "internalType": "uint256",
          "name": "friend_key",
          "type": "uint256"
        },
        {
          "indexed": false,
          "internalType": "string",
          "name": "name",
          "type": "string"
        }
      ],
      "name": "AddFriend",
      "type": "event"
    },
    {
      "anonymous": false,
      "inputs": [
        {
          "indexed": false,
          "internalType": "bool",
          "name": "isUserLoggedIn",
          "type": "bool"
        }
      ],
      "name": "LogoutUser",
      "type": "event"
    },
    {
      "anonymous": false,
      "inputs": [
        {
          "indexed": false,
          "internalType": "string",
          "name": "_nam",
          "type": "string"
        },
        {
          "indexed": false,
          "internalType": "uint256",
          "name": "_nic",
          "type": "uint256"
        },
        {
          "indexed": false,
          "internalType": "string",
          "name": "u_cont",
          "type": "string"
        },
        {
          "indexed": false,
          "internalType": "string",
          "name": "u_pass",
          "type": "string"
        }
      ],
      "name": "userSignedUp",
      "type": "event"
    },
    {
      "inputs": [
        {
          "internalType": "uint256",
          "name": "",
          "type": "uint256"
        }
      ],
      "name": "friendList",
      "outputs": [
        {
          "internalType": "uint256",
          "name": "f_nic",
          "type": "uint256"
        },
        {
          "internalType": "string",
          "name": "f_name",
          "type": "string"
        }
      ],
      "stateMutability": "view",
      "type": "function",
      "constant": true
    },
    {
      "inputs": [
        {
          "internalType": "uint256",
          "name": "",
          "type": "uint256"
        }
      ],
      "name": "userList",
      "outputs": [
        {
          "internalType": "uint256",
          "name": "u_nic",
          "type": "uint256"
        },
        {
          "internalType": "string",
          "name": "u_name",
          "type": "string"
        },
        {
          "internalType": "string",
          "name": "u_contact",
          "type": "string"
        },
        {
          "internalType": "string",
          "name": "u_address",
          "type": "string"
        },
        {
          "internalType": "string",
          "name": "u_password",
          "type": "string"
        },
        {
          "internalType": "bool",
          "name": "isLoggedIn",
          "type": "bool"
        }
      ],
      "stateMutability": "view",
      "type": "function",
      "constant": true
    },
    {
      "inputs": [
        {
          "internalType": "uint256",
          "name": "_nic",
          "type": "uint256"
        },
        {
          "internalType": "string",
          "name": "_nam",
          "type": "string"
        },
        {
          "internalType": "string",
          "name": "_cont",
          "type": "string"
        },
        {
          "internalType": "string",
          "name": "_addr",
          "type": "string"
        },
        {
          "internalType": "string",
          "name": "_pass",
          "type": "string"
        }
      ],
      "name": "signUp",
      "outputs": [
        {
          "internalType": "bool",
          "name": "",
          "type": "bool"
        }
      ],
      "stateMutability": "nonpayable",
      "type": "function"
    },
    {
      "inputs": [
        {
          "internalType": "uint256",
          "name": "_nic",
          "type": "uint256"
        },
        {
          "internalType": "string",
          "name": "_pass",
          "type": "string"
        }
      ],
      "name": "LogIn",
      "outputs": [
        {
          "internalType": "bool",
          "name": "",
          "type": "bool"
        }
      ],
      "stateMutability": "nonpayable",
      "type": "function"
    },
    {
      "inputs": [
        {
          "internalType": "uint256",
          "name": "_nic",
          "type": "uint256"
        }
      ],
      "name": "LogOut",
      "outputs": [
        {
          "internalType": "bool",
          "name": "",
          "type": "bool"
        }
      ],
      "stateMutability": "nonpayable",
      "type": "function"
    },
    {
      "inputs": [
        {
          "internalType": "uint256",
          "name": "_nic",
          "type": "uint256"
        }
      ],
      "name": "getFriendsList",
      "outputs": [
        {
          "components": [
            {
              "internalType": "uint256",
              "name": "f_nic",
              "type": "uint256"
            },
            {
              "internalType": "string",
              "name": "f_name",
              "type": "string"
            }
          ],
          "internalType": "struct BCar.Friend[]",
          "name": "",
          "type": "tuple[]"
        }
      ],
      "stateMutability": "view",
      "type": "function",
      "constant": true
    },
    {
      "inputs": [
        {
          "internalType": "uint256",
          "name": "_nic",
          "type": "uint256"
        },
        {
          "internalType": "uint256",
          "name": "f_nic",
          "type": "uint256"
        },
        {
          "internalType": "string",
          "name": "f_name",
          "type": "string"
        }
      ],
      "name": "addNewFriend",
      "outputs": [],
      "stateMutability": "nonpayable",
      "type": "function"
    },
    {
      "inputs": [
        {
          "internalType": "uint256",
          "name": "_nic",
          "type": "uint256"
        },
        {
          "internalType": "uint256",
          "name": "f_nic",
          "type": "uint256"
        }
      ],
      "name": "areFriends",
      "outputs": [
        {
          "internalType": "bool",
          "name": "",
          "type": "bool"
        }
      ],
      "stateMutability": "view",
      "type": "function",
      "constant": true
    },
    {
      "inputs": [
        {
          "internalType": "uint256",
          "name": "_nic",
          "type": "uint256"
        }
      ],
      "name": "isUserExist",
      "outputs": [
        {
          "internalType": "bool",
          "name": "",
          "type": "bool"
        }
      ],
      "stateMutability": "view",
      "type": "function",
      "constant": true
    },
    {
      "inputs": [
        {
          "internalType": "uint256",
          "name": "_nic",
          "type": "uint256"
        }
      ],
      "name": "isLoggedIn",
      "outputs": [
        {
          "internalType": "bool",
          "name": "",
          "type": "bool"
        }
      ],
      "stateMutability": "view",
      "type": "function",
      "constant": true
    }
  ],
  "bytecode": "0x608060405234801561001057600080fd5b50611f33806100206000396000f3fe608060405234801561001057600080fd5b506004361061009e5760003560e01c80636e7a7a74116100665780636e7a7a74146101945780639f4216e8146101c4578063ac56730f146101f9578063b312b5bc14610229578063edf6a3d4146102455761009e565b806321668a01146100a357806326344c8b146100d4578063314c4ff914610104578063449a34ba146101345780635724d5d314610164575b600080fd5b6100bd60048036038101906100b89190610f02565b610275565b6040516100cb929190610fce565b60405180910390f35b6100ee60048036038101906100e99190610f02565b610321565b6040516100fb9190611019565b60405180910390f35b61011e60048036038101906101199190611169565b61034d565b60405161012b9190611019565b60405180910390f35b61014e60048036038101906101499190610f02565b6104b7565b60405161015b919061131d565b60405180910390f35b61017e6004803603810190610179919061133f565b610657565b60405161018b9190611019565b60405180910390f35b6101ae60048036038101906101a99190610f02565b6107c0565b6040516101bb9190611019565b60405180910390f35b6101de60048036038101906101d99190610f02565b610876565b6040516101f09695949392919061142a565b60405180910390f35b610213600480360381019061020e9190610f02565b610adf565b6040516102209190611019565b60405180910390f35b610243600480360381019061023e9190611507565b610b0c565b005b61025f600480360381019061025a919061157b565b610d66565b60405161026c9190611019565b60405180910390f35b600160205280600052604060002060009150905080600001549080600101805461029e906115ea565b80601f01602080910402602001604051908101604052809291908181526020018280546102ca906115ea565b80156103175780601f106102ec57610100808354040283529160200191610317565b820191906000526020600020905b8154815290600101906020018083116102fa57829003601f168201915b5050505050905082565b600080600083815260200190815260200160002060050160009054906101000a900460ff169050919050565b600061035883610adf565b610397576040517f08c379a000000000000000000000000000000000000000000000000000000000815260040161038e90611667565b60405180910390fd5b6103a083610321565b156103e0576040517f08c379a00000000000000000000000000000000000000000000000000000000081526004016103d7906116d3565b60405180910390fd5b6000808481526020019081526020016000206004016040516020016104059190611796565b604051602081830303815290604052805190602001208260405160200161042c91906117de565b6040516020818303038152906040528051906020012014610482576040517f08c379a000000000000000000000000000000000000000000000000000000000815260040161047990611841565b60405180910390fd5b600160008085815260200190815260200160002060050160006101000a81548160ff0219169083151502179055905092915050565b60606104c282610adf565b610501576040517f08c379a00000000000000000000000000000000000000000000000000000000081526004016104f8906118ad565b60405180910390fd5b61050a82610321565b610549576040517f08c379a000000000000000000000000000000000000000000000000000000000815260040161054090611919565b60405180910390fd5b600080838152602001908152602001600020600601805480602002602001604051908101604052809291908181526020016000905b8282101561064c5783829060005260206000209060020201604051806040016040529081600082015481526020016001820180546105bb906115ea565b80601f01602080910402602001604051908101604052809291908181526020018280546105e7906115ea565b80156106345780601f1061060957610100808354040283529160200191610634565b820191906000526020600020905b81548152906001019060200180831161061757829003601f168201915b5050505050815250508152602001906001019061057e565b505050509050919050565b600061066286610adf565b156106a2576040517f08c379a000000000000000000000000000000000000000000000000000000000815260040161069990611985565b60405180910390fd5b85600080888152602001908152602001600020600001819055508460008088815260200190815260200160002060010190816106de9190611b3c565b508360008088815260200190815260200160002060020190816107019190611b3c565b508260008088815260200190815260200160002060030190816107249190611b3c565b508160008088815260200190815260200160002060040190816107479190611b3c565b50600160008088815260200190815260200160002060050160006101000a81548160ff0219169083151502179055507ff4f62c47f24224b311017882c675231104f94c03da61192ac4312d300a799639858786856040516107ab9493929190611c0e565b60405180910390a16001905095945050505050565b60006107cb82610321565b61080a576040517f08c379a000000000000000000000000000000000000000000000000000000000815260040161080190611919565b60405180910390fd5b7f63ec3f4df310cbea2a7bef14e7983a49708f46e93064cfbc28087a44a6ea24f4600060405161083a9190611019565b60405180910390a1600080600084815260200190815260200160002060050160006101000a81548160ff02191690831515021790559050919050565b600060205280600052604060002060009150905080600001549080600101805461089f906115ea565b80601f01602080910402602001604051908101604052809291908181526020018280546108cb906115ea565b80156109185780601f106108ed57610100808354040283529160200191610918565b820191906000526020600020905b8154815290600101906020018083116108fb57829003601f168201915b50505050509080600201805461092d906115ea565b80601f0160208091040260200160405190810160405280929190818152602001828054610959906115ea565b80156109a65780601f1061097b576101008083540402835291602001916109a6565b820191906000526020600020905b81548152906001019060200180831161098957829003601f168201915b5050505050908060030180546109bb906115ea565b80601f01602080910402602001604051908101604052809291908181526020018280546109e7906115ea565b8015610a345780601f10610a0957610100808354040283529160200191610a34565b820191906000526020600020905b815481529060010190602001808311610a1757829003601f168201915b505050505090806004018054610a49906115ea565b80601f0160208091040260200160405190810160405280929190818152602001828054610a75906115ea565b8015610ac25780601f10610a9757610100808354040283529160200191610ac2565b820191906000526020600020905b815481529060010190602001808311610aa557829003601f168201915b5050505050908060050160009054906101000a900460ff16905086565b6000806000808481526020019081526020016000206001018054610b02906115ea565b9050119050919050565b610b1584610321565b610b54576040517f08c379a0000000000000000000000000000000000000000000000000000000008152600401610b4b90611919565b60405180910390fd5b610b5d83610adf565b610b9c576040517f08c379a0000000000000000000000000000000000000000000000000000000008152600401610b9390611cda565b60405180910390fd5b828403610bde576040517f08c379a0000000000000000000000000000000000000000000000000000000008152600401610bd590611d6c565b60405180910390fd5b60001515610bec8585610d66565b151514610c2e576040517f08c379a0000000000000000000000000000000000000000000000000000000008152600401610c2590611dd8565b60405180910390fd5b610c7d848484848080601f016020809104026020016040519081016040528093929190818152602001838380828437600081840152601f19601f82011690508083019250505050505050610e38565b610d2583856000808881526020019081526020016000206001018054610ca2906115ea565b80601f0160208091040260200160405190810160405280929190818152602001828054610cce906115ea565b8015610d1b5780601f10610cf057610100808354040283529160200191610d1b565b820191906000526020600020905b815481529060010190602001808311610cfe57829003601f168201915b5050505050610e38565b7fe514c4afa30880e1ca9b0dc7a1cb62a81ff9cab2e30c36cea191354f50ff66b2838383604051610d5893929190611e25565b60405180910390a150505050565b600080600083815260200190815260200160002060060180549050600080858152602001908152602001600020600601805490501115610dad576000839050829350809250505b60005b60008085815260200190815260200160002060060180549050811015610e2c57826000808681526020019081526020016000206006018281548110610df857610df7611e57565b5b90600052602060002090600202016000015403610e19576001915050610e32565b8080610e2490611eb5565b915050610db0565b50600090505b92915050565b60006040518060400160405280848152602001838152509050600080858152602001908152602001600020600601819080600181540180825580915050600190039060005260206000209060020201600090919091909150600082015181600001556020820151816001019081610eaf9190611b3c565b50505050505050565b6000604051905090565b600080fd5b600080fd5b6000819050919050565b610edf81610ecc565b8114610eea57600080fd5b50565b600081359050610efc81610ed6565b92915050565b600060208284031215610f1857610f17610ec2565b5b6000610f2684828501610eed565b91505092915050565b610f3881610ecc565b82525050565b600081519050919050565b600082825260208201905092915050565b60005b83811015610f78578082015181840152602081019050610f5d565b60008484015250505050565b6000601f19601f8301169050919050565b6000610fa082610f3e565b610faa8185610f49565b9350610fba818560208601610f5a565b610fc381610f84565b840191505092915050565b6000604082019050610fe36000830185610f2f565b8181036020830152610ff58184610f95565b90509392505050565b60008115159050919050565b61101381610ffe565b82525050565b600060208201905061102e600083018461100a565b92915050565b600080fd5b600080fd5b7f4e487b7100000000000000000000000000000000000000000000000000000000600052604160045260246000fd5b61107682610f84565b810181811067ffffffffffffffff821117156110955761109461103e565b5b80604052505050565b60006110a8610eb8565b90506110b4828261106d565b919050565b600067ffffffffffffffff8211156110d4576110d361103e565b5b6110dd82610f84565b9050602081019050919050565b82818337600083830152505050565b600061110c611107846110b9565b61109e565b90508281526020810184848401111561112857611127611039565b5b6111338482856110ea565b509392505050565b600082601f8301126111505761114f611034565b5b81356111608482602086016110f9565b91505092915050565b600080604083850312156111805761117f610ec2565b5b600061118e85828601610eed565b925050602083013567ffffffffffffffff8111156111af576111ae610ec7565b5b6111bb8582860161113b565b9150509250929050565b600081519050919050565b600082825260208201905092915050565b6000819050602082019050919050565b6111fa81610ecc565b82525050565b600082825260208201905092915050565b600061121c82610f3e565b6112268185611200565b9350611236818560208601610f5a565b61123f81610f84565b840191505092915050565b600060408301600083015161126260008601826111f1565b506020830151848203602086015261127a8282611211565b9150508091505092915050565b6000611293838361124a565b905092915050565b6000602082019050919050565b60006112b3826111c5565b6112bd81856111d0565b9350836020820285016112cf856111e1565b8060005b8581101561130b57848403895281516112ec8582611287565b94506112f78361129b565b925060208a019950506001810190506112d3565b50829750879550505050505092915050565b6000602082019050818103600083015261133781846112a8565b905092915050565b600080600080600060a0868803121561135b5761135a610ec2565b5b600061136988828901610eed565b955050602086013567ffffffffffffffff81111561138a57611389610ec7565b5b6113968882890161113b565b945050604086013567ffffffffffffffff8111156113b7576113b6610ec7565b5b6113c38882890161113b565b935050606086013567ffffffffffffffff8111156113e4576113e3610ec7565b5b6113f08882890161113b565b925050608086013567ffffffffffffffff81111561141157611410610ec7565b5b61141d8882890161113b565b9150509295509295909350565b600060c08201905061143f6000830189610f2f565b81810360208301526114518188610f95565b905081810360408301526114658187610f95565b905081810360608301526114798186610f95565b9050818103608083015261148d8185610f95565b905061149c60a083018461100a565b979650505050505050565b600080fd5b600080fd5b60008083601f8401126114c7576114c6611034565b5b8235905067ffffffffffffffff8111156114e4576114e36114a7565b5b602083019150836001820283011115611500576114ff6114ac565b5b9250929050565b6000806000806060858703121561152157611520610ec2565b5b600061152f87828801610eed565b945050602061154087828801610eed565b935050604085013567ffffffffffffffff81111561156157611560610ec7565b5b61156d878288016114b1565b925092505092959194509250565b6000806040838503121561159257611591610ec2565b5b60006115a085828601610eed565b92505060206115b185828601610eed565b9150509250929050565b7f4e487b7100000000000000000000000000000000000000000000000000000000600052602260045260246000fd5b6000600282049050600182168061160257607f821691505b602082108103611615576116146115bb565b5b50919050565b7f5573657220646f6573206e6f7420657869737473210000000000000000000000600082015250565b6000611651601583610f49565b915061165c8261161b565b602082019050919050565b6000602082019050818103600083015261168081611644565b9050919050565b7f596f752061726520416c7265616479204c6f6767656420496e21000000000000600082015250565b60006116bd601a83610f49565b91506116c882611687565b602082019050919050565b600060208201905081810360008301526116ec816116b0565b9050919050565b600081905092915050565b60008190508160005260206000209050919050565b60008154611720816115ea565b61172a81866116f3565b94506001821660008114611745576001811461175a5761178d565b60ff198316865281151582028601935061178d565b611763856116fe565b60005b8381101561178557815481890152600182019150602081019050611766565b838801955050505b50505092915050565b60006117a28284611713565b915081905092915050565b60006117b882610f3e565b6117c281856116f3565b93506117d2818560208601610f5a565b80840191505092915050565b60006117ea82846117ad565b915081905092915050565b7f4f666620746f20676f2100000000000000000000000000000000000000000000600082015250565b600061182b600a83610f49565b9150611836826117f5565b602082019050919050565b6000602082019050818103600083015261185a8161181e565b9050919050565b7f5573657220657869737473210000000000000000000000000000000000000000600082015250565b6000611897600c83610f49565b91506118a282611861565b602082019050919050565b600060208201905081810360008301526118c68161188a565b9050919050565b7f596f75204e65656420546f204c6f6720496e2046697273742100000000000000600082015250565b6000611903601983610f49565b915061190e826118cd565b602082019050919050565b60006020820190508181036000830152611932816118f6565b9050919050565b7f5573657220616c72656164792065786973747321000000000000000000000000600082015250565b600061196f601483610f49565b915061197a82611939565b602082019050919050565b6000602082019050818103600083015261199e81611962565b9050919050565b60006020601f8301049050919050565b600082821b905092915050565b6000600883026119f27fffffffffffffffffffffffffffffffffffffffffffffffffffffffffffffffff826119b5565b6119fc86836119b5565b95508019841693508086168417925050509392505050565b6000819050919050565b6000611a39611a34611a2f84610ecc565b611a14565b610ecc565b9050919050565b6000819050919050565b611a5383611a1e565b611a67611a5f82611a40565b8484546119c2565b825550505050565b600090565b611a7c611a6f565b611a87818484611a4a565b505050565b5b81811015611aab57611aa0600082611a74565b600181019050611a8d565b5050565b601f821115611af057611ac1816116fe565b611aca846119a5565b81016020851015611ad9578190505b611aed611ae5856119a5565b830182611a8c565b50505b505050565b600082821c905092915050565b6000611b1360001984600802611af5565b1980831691505092915050565b6000611b2c8383611b02565b9150826002028217905092915050565b611b4582610f3e565b67ffffffffffffffff811115611b5e57611b5d61103e565b5b611b6882546115ea565b611b73828285611aaf565b600060209050601f831160018114611ba65760008415611b94578287015190505b611b9e8582611b20565b865550611c06565b601f198416611bb4866116fe565b60005b82811015611bdc57848901518255600182019150602085019450602081019050611bb7565b86831015611bf95784890151611bf5601f891682611b02565b8355505b6001600288020188555050505b505050505050565b60006080820190508181036000830152611c288187610f95565b9050611c376020830186610f2f565b8181036040830152611c498185610f95565b90508181036060830152611c5d8184610f95565b905095945050505050565b7f596f757220466972656e6420446f6573204e6f7420526567697374657265642060008201527f57697468205468652053797374656d2100000000000000000000000000000000602082015250565b6000611cc4603083610f49565b9150611ccf82611c68565b604082019050919050565b60006020820190508181036000830152611cf381611cb7565b9050919050565b7f557365722063616e6e6f74206164642068696d2f6865722073656c662061732060008201527f667269656e642100000000000000000000000000000000000000000000000000602082015250565b6000611d56602783610f49565b9150611d6182611cfa565b604082019050919050565b60006020820190508181036000830152611d8581611d49565b9050919050565b7f54686573652075736572732061726520616c726561647920667269656e647321600082015250565b6000611dc2602083610f49565b9150611dcd82611d8c565b602082019050919050565b60006020820190508181036000830152611df181611db5565b9050919050565b6000611e048385610f49565b9350611e118385846110ea565b611e1a83610f84565b840190509392505050565b6000604082019050611e3a6000830186610f2f565b8181036020830152611e4d818486611df8565b9050949350505050565b7f4e487b7100000000000000000000000000000000000000000000000000000000600052603260045260246000fd5b7f4e487b7100000000000000000000000000000000000000000000000000000000600052601160045260246000fd5b6000611ec082610ecc565b91507fffffffffffffffffffffffffffffffffffffffffffffffffffffffffffffffff8203611ef257611ef1611e86565b5b60018201905091905056fea26469706673582212200bcc9becb992d132ca5d8b8490a4f0e89f7eda4b6117eaca9404a05c967d3b1464736f6c63430008110033",
  "immutableReferences": {},
  "source": "// SPDX-License-Identifier: MIT\npragma solidity >=0.7.0 <0.9.0;\n\ncontract BCar {\n  // Chat Module\n  /**\n  *? User=> :SignUp /, :LogIn/, :LogOut /, :getFriendsList\n   */\n  \n   struct User {\n    uint u_nic;\n    string u_name;\n    string u_contact;\n    string u_address;\n    string u_password;\n    bool isLoggedIn;\n    Friend[] friendList;\n    // vehicle[] vehicleList;\n   }\n   \n  //  event is a log creates on trigger. \n   event userSignedUp(string _nam, uint _nic, string u_cont, string u_pass);\n   event LogoutUser(bool isUserLoggedIn);\n\n   mapping (uint=>User) public userList;\n\n   function signUp(uint _nic, string memory _nam, string memory _cont, string memory _addr, string memory _pass) public returns (bool) {\n    require(!isUserExist(_nic),  \"User already exists!\");\n    \n    userList[_nic].u_nic = _nic;\n    userList[_nic].u_name = _nam;\n    userList[_nic].u_contact = _cont;\n    userList[_nic].u_address = _addr;\n    userList[_nic].u_password = _pass;\n    userList[_nic].isLoggedIn = true;\n\n    emit userSignedUp(_nam, _nic, _cont, _pass);\n\n    return true;\n   }\n\n   function LogIn(uint _nic, string memory _pass) public returns (bool) {\n    require(isUserExist(_nic),  \"User does not exists!\");\n    require(!isLoggedIn(_nic), \"You are Already Logged In!\");\n    require(keccak256(abi.encodePacked(_pass)) == keccak256(abi.encodePacked(userList[_nic].u_password)), \"Off to go!\");\n    return userList[_nic].isLoggedIn = true;\n   }\n    \n    function LogOut(uint _nic) public returns (bool) {\n      require(isLoggedIn(_nic), \"You Need To Log In First!\");\n      emit LogoutUser(false);\n      return userList[_nic].isLoggedIn = false;\n    }\n\n    function getFriendsList(uint _nic) external view returns(Friend[] memory) {\n      require(isUserExist(_nic),  \"User exists!\");\n      require(isLoggedIn(_nic), \"You Need To Log In First!\");\n\n      return userList[_nic].friendList;\n    }\n\n    /**\n  *? Friends=> :addNewFriend , :checkAlreadyFriends , :LoopOnFriend \n   */\n\n    // Each friend is identified by its address and name assigned by the second party\n    struct Friend {\n        uint f_nic;\n        string f_name;\n    }\n\n    event AddFriend(uint friend_key, string name);\n\n    mapping (uint=>Friend) public friendList;\n  \n   function addNewFriend(uint _nic, uint f_nic, string calldata f_name) external {\n    require(isLoggedIn(_nic), \"You Need To Log In First!\");\n    require(isUserExist(f_nic),  \"Your Firend Does Not Registered With The System!\");\n    require(_nic!=f_nic, \"User cannot add him/her self as friend!\");\n    require(areFriends(_nic,f_nic)==false, \"These users are already friends!\");\n\n    _addFriend(_nic, f_nic, f_name);\n    _addFriend(f_nic, _nic, userList[_nic].u_name);\n    emit AddFriend(f_nic, f_name);\n   }\n\n  function areFriends(uint _nic, uint f_nic) public view returns (bool) {\n    // if the list of user is greater then the list of friend\n    if(userList[_nic].friendList.length > userList[f_nic].friendList.length){\n      uint tmp = _nic;\n      _nic = f_nic;\n      f_nic = tmp;\n    }\n    // the loop will run on bigger list\n    for (uint256 i = 0; i < userList[_nic].friendList.length; i++) {\n      if(userList[_nic].friendList[i].f_nic == f_nic)\n      return true;\n    }\n    return false;\n  }\n   \n  // A helper function to update the friendList\n  function _addFriend(uint me, uint friend_key, string memory name) internal {\n    // create new object of type friend\n      Friend memory newFriend = Friend(friend_key,name);\n      // add newly created obj to friend list of user\n      userList[me].friendList.push(newFriend);\n  }\n   \n/** \n *? general purpose functions =>  :Loop, :isExists/, :isLoggedIn/\n */\n\n   function isUserExist(uint _nic) public view returns (bool) {\n    return bytes(userList[_nic].u_name).length > 0;\n   }\n\n   function isLoggedIn(uint _nic) public view returns (bool) {\n    return userList[_nic].isLoggedIn;\n   }\n\n}\n",
  "sourcePath": "C:\\xampp\\htdocs\\my_working_dir\\block-chain\\bcar1.0\\contracts\\BCar.sol",
  "compiler": {
    "name": "solc",
    "version": "0.8.17+commit.8df45f5f.Emscripten.clang"
  },
  "schemaVersion": "3.4.10",
  "updatedAt": "2022-12-11T15:16:51.823Z",
  "networkType": "ethereum",
  "devdoc": {
    "kind": "dev",
    "methods": {},
    "version": 1
  },
  "userdoc": {
    "kind": "user",
    "methods": {
      "isUserExist(uint256)": {
        "notice": "? general purpose functions =>  :Loop, :isExists/, :isLoggedIn/"
      }
    },
    "version": 1
  }
}