{
  "contractName": "BCar",
  "abi": [
    {
      "anonymous": false,
      "inputs": [
        {
          "indexed": false,
          "internalType": "uint256",
          "name": "friend_key",
          "type": "uint256"
        },
        {
          "indexed": false,
          "internalType": "string",
          "name": "name",
          "type": "string"
        }
      ],
      "name": "AddFriend",
      "type": "event"
    },
    {
      "anonymous": false,
      "inputs": [
        {
          "indexed": false,
          "internalType": "bool",
          "name": "isUserLoggedIn",
          "type": "bool"
        }
      ],
      "name": "LogoutUser",
      "type": "event"
    },
    {
      "anonymous": false,
      "inputs": [
        {
          "indexed": false,
          "internalType": "uint256",
          "name": "sender_key",
          "type": "uint256"
        },
        {
          "indexed": false,
          "internalType": "uint256",
          "name": "friend_key",
          "type": "uint256"
        },
        {
          "indexed": false,
          "internalType": "string",
          "name": "msg",
          "type": "string"
        }
      ],
      "name": "SendMessage",
      "type": "event"
    },
    {
      "anonymous": false,
      "inputs": [
        {
          "indexed": false,
          "internalType": "string",
          "name": "_nam",
          "type": "string"
        },
        {
          "indexed": false,
          "internalType": "uint256",
          "name": "_nic",
          "type": "uint256"
        },
        {
          "indexed": false,
          "internalType": "string",
          "name": "u_cont",
          "type": "string"
        },
        {
          "indexed": false,
          "internalType": "string",
          "name": "u_pass",
          "type": "string"
        }
      ],
      "name": "userSignedUp",
      "type": "event"
    },
    {
      "inputs": [
        {
          "internalType": "uint256",
          "name": "",
          "type": "uint256"
        }
      ],
      "name": "friendList",
      "outputs": [
        {
          "internalType": "uint256",
          "name": "f_nic",
          "type": "uint256"
        },
        {
          "internalType": "string",
          "name": "f_name",
          "type": "string"
        }
      ],
      "stateMutability": "view",
      "type": "function",
      "constant": true
    },
    {
      "inputs": [
        {
          "internalType": "uint256",
          "name": "",
          "type": "uint256"
        }
      ],
      "name": "userList",
      "outputs": [
        {
          "internalType": "uint256",
          "name": "u_nic",
          "type": "uint256"
        },
        {
          "internalType": "string",
          "name": "u_name",
          "type": "string"
        },
        {
          "internalType": "string",
          "name": "u_contact",
          "type": "string"
        },
        {
          "internalType": "string",
          "name": "u_address",
          "type": "string"
        },
        {
          "internalType": "string",
          "name": "u_password",
          "type": "string"
        },
        {
          "internalType": "bool",
          "name": "isLoggedIn",
          "type": "bool"
        }
      ],
      "stateMutability": "view",
      "type": "function",
      "constant": true
    },
    {
      "inputs": [
        {
          "internalType": "uint256",
          "name": "_nic",
          "type": "uint256"
        },
        {
          "internalType": "string",
          "name": "_nam",
          "type": "string"
        },
        {
          "internalType": "string",
          "name": "_cont",
          "type": "string"
        },
        {
          "internalType": "string",
          "name": "_addr",
          "type": "string"
        },
        {
          "internalType": "string",
          "name": "_pass",
          "type": "string"
        }
      ],
      "name": "signUp",
      "outputs": [
        {
          "internalType": "bool",
          "name": "",
          "type": "bool"
        }
      ],
      "stateMutability": "nonpayable",
      "type": "function"
    },
    {
      "inputs": [
        {
          "internalType": "uint256",
          "name": "_nic",
          "type": "uint256"
        },
        {
          "internalType": "string",
          "name": "_pass",
          "type": "string"
        }
      ],
      "name": "LogIn",
      "outputs": [
        {
          "internalType": "bool",
          "name": "",
          "type": "bool"
        }
      ],
      "stateMutability": "nonpayable",
      "type": "function"
    },
    {
      "inputs": [
        {
          "internalType": "uint256",
          "name": "_nic",
          "type": "uint256"
        }
      ],
      "name": "LogOut",
      "outputs": [
        {
          "internalType": "bool",
          "name": "",
          "type": "bool"
        }
      ],
      "stateMutability": "nonpayable",
      "type": "function"
    },
    {
      "inputs": [
        {
          "internalType": "uint256",
          "name": "_nic",
          "type": "uint256"
        }
      ],
      "name": "getFriendsList",
      "outputs": [
        {
          "components": [
            {
              "internalType": "uint256",
              "name": "f_nic",
              "type": "uint256"
            },
            {
              "internalType": "string",
              "name": "f_name",
              "type": "string"
            }
          ],
          "internalType": "struct BCar.Friend[]",
          "name": "",
          "type": "tuple[]"
        }
      ],
      "stateMutability": "view",
      "type": "function",
      "constant": true
    },
    {
      "inputs": [
        {
          "internalType": "uint256",
          "name": "_nic",
          "type": "uint256"
        },
        {
          "internalType": "uint256",
          "name": "f_nic",
          "type": "uint256"
        },
        {
          "internalType": "string",
          "name": "f_name",
          "type": "string"
        }
      ],
      "name": "addNewFriend",
      "outputs": [],
      "stateMutability": "nonpayable",
      "type": "function"
    },
    {
      "inputs": [
        {
          "internalType": "uint256",
          "name": "_nic",
          "type": "uint256"
        },
        {
          "internalType": "uint256",
          "name": "f_nic",
          "type": "uint256"
        }
      ],
      "name": "areFriends",
      "outputs": [
        {
          "internalType": "bool",
          "name": "",
          "type": "bool"
        }
      ],
      "stateMutability": "view",
      "type": "function",
      "constant": true
    },
    {
      "inputs": [
        {
          "internalType": "uint256",
          "name": "_nic",
          "type": "uint256"
        },
        {
          "internalType": "uint256",
          "name": "f_nic",
          "type": "uint256"
        },
        {
          "internalType": "string",
          "name": "_msg",
          "type": "string"
        }
      ],
      "name": "sendMessage",
      "outputs": [],
      "stateMutability": "nonpayable",
      "type": "function"
    },
    {
      "inputs": [
        {
          "internalType": "uint256",
          "name": "_nic",
          "type": "uint256"
        },
        {
          "internalType": "uint256",
          "name": "f_nic",
          "type": "uint256"
        }
      ],
      "name": "readMessage",
      "outputs": [
        {
          "components": [
            {
              "internalType": "uint256",
              "name": "sender_nic",
              "type": "uint256"
            },
            {
              "internalType": "uint256",
              "name": "timestamp",
              "type": "uint256"
            },
            {
              "internalType": "string",
              "name": "msg",
              "type": "string"
            }
          ],
          "internalType": "struct BCar.message[]",
          "name": "",
          "type": "tuple[]"
        }
      ],
      "stateMutability": "view",
      "type": "function",
      "constant": true
    },
    {
      "inputs": [
        {
          "internalType": "uint256",
          "name": "_nic",
          "type": "uint256"
        }
      ],
      "name": "isUserExist",
      "outputs": [
        {
          "internalType": "bool",
          "name": "",
          "type": "bool"
        }
      ],
      "stateMutability": "view",
      "type": "function",
      "constant": true
    },
    {
      "inputs": [
        {
          "internalType": "uint256",
          "name": "_nic",
          "type": "uint256"
        }
      ],
      "name": "isLoggedIn",
      "outputs": [
        {
          "internalType": "bool",
          "name": "",
          "type": "bool"
        }
      ],
      "stateMutability": "view",
      "type": "function",
      "constant": true
    }
  ],
  "bytecode": "0x608060405234801561001057600080fd5b5061257b806100206000396000f3fe608060405234801561001057600080fd5b50600436106100b45760003560e01c80635724d5d3116100715780635724d5d3146101c65780636e7a7a74146101f65780639f4216e814610226578063ac56730f1461025b578063b312b5bc1461028b578063edf6a3d4146102a7576100b4565b806321668a01146100b9578063259b3f63146100ea57806326344c8b1461011a578063314c4ff91461014a57806339561dba1461017a578063449a34ba14610196575b600080fd5b6100d360048036038101906100ce91906112f7565b6102d7565b6040516100e19291906113c3565b60405180910390f35b61010460048036038101906100ff91906113f3565b610383565b604051610111919061159e565b60405180910390f35b610134600480360381019061012f91906112f7565b6104ab565b60405161014191906115db565b60405180910390f35b610164600480360381019061015f919061172b565b6104d7565b60405161017191906115db565b60405180910390f35b610194600480360381019061018f91906117e7565b610641565b005b6101b060048036038101906101ab91906112f7565b610840565b6040516101bd919061195a565b60405180910390f35b6101e060048036038101906101db919061197c565b6109e0565b6040516101ed91906115db565b60405180910390f35b610210600480360381019061020b91906112f7565b610b49565b60405161021d91906115db565b60405180910390f35b610240600480360381019061023b91906112f7565b610bff565b60405161025296959493929190611a67565b60405180910390f35b610275600480360381019061027091906112f7565b610e68565b60405161028291906115db565b60405180910390f35b6102a560048036038101906102a091906117e7565b610e95565b005b6102c160048036038101906102bc91906113f3565b6110ef565b6040516102ce91906115db565b60405180910390f35b600160205280600052604060002060009150905080600001549080600101805461030090611b13565b80601f016020809104026020016040519081016040528092919081815260200182805461032c90611b13565b80156103795780601f1061034e57610100808354040283529160200191610379565b820191906000526020600020905b81548152906001019060200180831161035c57829003601f168201915b5050505050905082565b6060600061039184846111c1565b905060026000828152602001908152602001600020805480602002602001604051908101604052809291908181526020016000905b8282101561049e5783829060005260206000209060030201604051806060016040529081600082015481526020016001820154815260200160028201805461040d90611b13565b80601f016020809104026020016040519081016040528092919081815260200182805461043990611b13565b80156104865780601f1061045b57610100808354040283529160200191610486565b820191906000526020600020905b81548152906001019060200180831161046957829003601f168201915b505050505081525050815260200190600101906103c6565b5050505091505092915050565b600080600083815260200190815260200160002060050160009054906101000a900460ff169050919050565b60006104e283610e68565b610521576040517f08c379a000000000000000000000000000000000000000000000000000000000815260040161051890611b90565b60405180910390fd5b61052a836104ab565b1561056a576040517f08c379a000000000000000000000000000000000000000000000000000000000815260040161056190611bfc565b60405180910390fd5b60008084815260200190815260200160002060040160405160200161058f9190611cbf565b60405160208183030381529060405280519060200120826040516020016105b69190611d07565b604051602081830303815290604052805190602001201461060c576040517f08c379a000000000000000000000000000000000000000000000000000000000815260040161060390611d6a565b60405180910390fd5b600160008085815260200190815260200160002060050160006101000a81548160ff0219169083151502179055905092915050565b61064a846104ab565b610689576040517f08c379a000000000000000000000000000000000000000000000000000000000815260040161068090611dd6565b60405180910390fd5b61069283610e68565b6106d1576040517f08c379a00000000000000000000000000000000000000000000000000000000081526004016106c890611e68565b60405180910390fd5b600115156106df85856110ef565b151514610721576040517f08c379a000000000000000000000000000000000000000000000000000000000815260040161071890611efa565b60405180910390fd5b600061072d85856111c1565b90506000604051806060016040528087815260200142815260200185858080601f016020809104026020016040519081016040528093929190818152602001838380828437600081840152601f19601f82011690508083019250505050505050815250905060026000838152602001908152602001600020819080600181540180825580915050600190039060005260206000209060030201600090919091909150600082015181600001556020820151816001015560408201518160020190816107f891906120b1565b5050507fd96231ef676e3e8799b3f576a020cb0fbe997efd03802226119b87674b11c1c28686868660405161083094939291906121b0565b60405180910390a1505050505050565b606061084b82610e68565b61088a576040517f08c379a00000000000000000000000000000000000000000000000000000000081526004016108819061223c565b60405180910390fd5b610893826104ab565b6108d2576040517f08c379a00000000000000000000000000000000000000000000000000000000081526004016108c990611dd6565b60405180910390fd5b600080838152602001908152602001600020600601805480602002602001604051908101604052809291908181526020016000905b828210156109d557838290600052602060002090600202016040518060400160405290816000820154815260200160018201805461094490611b13565b80601f016020809104026020016040519081016040528092919081815260200182805461097090611b13565b80156109bd5780601f10610992576101008083540402835291602001916109bd565b820191906000526020600020905b8154815290600101906020018083116109a057829003601f168201915b50505050508152505081526020019060010190610907565b505050509050919050565b60006109eb86610e68565b15610a2b576040517f08c379a0000000000000000000000000000000000000000000000000000000008152600401610a22906122a8565b60405180910390fd5b8560008088815260200190815260200160002060000181905550846000808881526020019081526020016000206001019081610a6791906120b1565b50836000808881526020019081526020016000206002019081610a8a91906120b1565b50826000808881526020019081526020016000206003019081610aad91906120b1565b50816000808881526020019081526020016000206004019081610ad091906120b1565b50600160008088815260200190815260200160002060050160006101000a81548160ff0219169083151502179055507ff4f62c47f24224b311017882c675231104f94c03da61192ac4312d300a79963985878685604051610b3494939291906122c8565b60405180910390a16001905095945050505050565b6000610b54826104ab565b610b93576040517f08c379a0000000000000000000000000000000000000000000000000000000008152600401610b8a90611dd6565b60405180910390fd5b7f63ec3f4df310cbea2a7bef14e7983a49708f46e93064cfbc28087a44a6ea24f46000604051610bc391906115db565b60405180910390a1600080600084815260200190815260200160002060050160006101000a81548160ff02191690831515021790559050919050565b6000602052806000526040600020600091509050806000015490806001018054610c2890611b13565b80601f0160208091040260200160405190810160405280929190818152602001828054610c5490611b13565b8015610ca15780601f10610c7657610100808354040283529160200191610ca1565b820191906000526020600020905b815481529060010190602001808311610c8457829003601f168201915b505050505090806002018054610cb690611b13565b80601f0160208091040260200160405190810160405280929190818152602001828054610ce290611b13565b8015610d2f5780601f10610d0457610100808354040283529160200191610d2f565b820191906000526020600020905b815481529060010190602001808311610d1257829003601f168201915b505050505090806003018054610d4490611b13565b80601f0160208091040260200160405190810160405280929190818152602001828054610d7090611b13565b8015610dbd5780601f10610d9257610100808354040283529160200191610dbd565b820191906000526020600020905b815481529060010190602001808311610da057829003601f168201915b505050505090806004018054610dd290611b13565b80601f0160208091040260200160405190810160405280929190818152602001828054610dfe90611b13565b8015610e4b5780601f10610e2057610100808354040283529160200191610e4b565b820191906000526020600020905b815481529060010190602001808311610e2e57829003601f168201915b5050505050908060050160009054906101000a900460ff16905086565b6000806000808481526020019081526020016000206001018054610e8b90611b13565b9050119050919050565b610e9e846104ab565b610edd576040517f08c379a0000000000000000000000000000000000000000000000000000000008152600401610ed490611dd6565b60405180910390fd5b610ee683610e68565b610f25576040517f08c379a0000000000000000000000000000000000000000000000000000000008152600401610f1c90611e68565b60405180910390fd5b828403610f67576040517f08c379a0000000000000000000000000000000000000000000000000000000008152600401610f5e90612394565b60405180910390fd5b60001515610f7585856110ef565b151514610fb7576040517f08c379a0000000000000000000000000000000000000000000000000000000008152600401610fae90612400565b60405180910390fd5b611006848484848080601f016020809104026020016040519081016040528093929190818152602001838380828437600081840152601f19601f8201169050808301925050505050505061122d565b6110ae8385600080888152602001908152602001600020600101805461102b90611b13565b80601f016020809104026020016040519081016040528092919081815260200182805461105790611b13565b80156110a45780601f10611079576101008083540402835291602001916110a4565b820191906000526020600020905b81548152906001019060200180831161108757829003601f168201915b505050505061122d565b7fe514c4afa30880e1ca9b0dc7a1cb62a81ff9cab2e30c36cea191354f50ff66b28383836040516110e193929190612420565b60405180910390a150505050565b600080600083815260200190815260200160002060060180549050600080858152602001908152602001600020600601805490501115611136576000839050829350809250505b60005b600080858152602001908152602001600020600601805490508110156111b55782600080868152602001908152602001600020600601828154811061118157611180612452565b5b906000526020600020906002020160000154036111a25760019150506111bb565b80806111ad906124b0565b915050611139565b50600090505b92915050565b6000818310156111fb5782826040516020016111de929190612519565b604051602081830303815290604052805190602001209050611227565b818360405160200161120e929190612519565b6040516020818303038152906040528051906020012090505b92915050565b600060405180604001604052808481526020018381525090506000808581526020019081526020016000206006018190806001815401808255809150506001900390600052602060002090600202016000909190919091506000820151816000015560208201518160010190816112a491906120b1565b50505050505050565b6000604051905090565b600080fd5b600080fd5b6000819050919050565b6112d4816112c1565b81146112df57600080fd5b50565b6000813590506112f1816112cb565b92915050565b60006020828403121561130d5761130c6112b7565b5b600061131b848285016112e2565b91505092915050565b61132d816112c1565b82525050565b600081519050919050565b600082825260208201905092915050565b60005b8381101561136d578082015181840152602081019050611352565b60008484015250505050565b6000601f19601f8301169050919050565b600061139582611333565b61139f818561133e565b93506113af81856020860161134f565b6113b881611379565b840191505092915050565b60006040820190506113d86000830185611324565b81810360208301526113ea818461138a565b90509392505050565b6000806040838503121561140a576114096112b7565b5b6000611418858286016112e2565b9250506020611429858286016112e2565b9150509250929050565b600081519050919050565b600082825260208201905092915050565b6000819050602082019050919050565b611468816112c1565b82525050565b600082825260208201905092915050565b600061148a82611333565b611494818561146e565b93506114a481856020860161134f565b6114ad81611379565b840191505092915050565b60006060830160008301516114d0600086018261145f565b5060208301516114e3602086018261145f565b50604083015184820360408601526114fb828261147f565b9150508091505092915050565b600061151483836114b8565b905092915050565b6000602082019050919050565b600061153482611433565b61153e818561143e565b9350836020820285016115508561144f565b8060005b8581101561158c578484038952815161156d8582611508565b94506115788361151c565b925060208a01995050600181019050611554565b50829750879550505050505092915050565b600060208201905081810360008301526115b88184611529565b905092915050565b60008115159050919050565b6115d5816115c0565b82525050565b60006020820190506115f060008301846115cc565b92915050565b600080fd5b600080fd5b7f4e487b7100000000000000000000000000000000000000000000000000000000600052604160045260246000fd5b61163882611379565b810181811067ffffffffffffffff8211171561165757611656611600565b5b80604052505050565b600061166a6112ad565b9050611676828261162f565b919050565b600067ffffffffffffffff82111561169657611695611600565b5b61169f82611379565b9050602081019050919050565b82818337600083830152505050565b60006116ce6116c98461167b565b611660565b9050828152602081018484840111156116ea576116e96115fb565b5b6116f58482856116ac565b509392505050565b600082601f830112611712576117116115f6565b5b81356117228482602086016116bb565b91505092915050565b60008060408385031215611742576117416112b7565b5b6000611750858286016112e2565b925050602083013567ffffffffffffffff811115611771576117706112bc565b5b61177d858286016116fd565b9150509250929050565b600080fd5b600080fd5b60008083601f8401126117a7576117a66115f6565b5b8235905067ffffffffffffffff8111156117c4576117c3611787565b5b6020830191508360018202830111156117e0576117df61178c565b5b9250929050565b60008060008060608587031215611801576118006112b7565b5b600061180f878288016112e2565b9450506020611820878288016112e2565b935050604085013567ffffffffffffffff811115611841576118406112bc565b5b61184d87828801611791565b925092505092959194509250565b600081519050919050565b600082825260208201905092915050565b6000819050602082019050919050565b600060408301600083015161189f600086018261145f565b50602083015184820360208601526118b7828261147f565b9150508091505092915050565b60006118d08383611887565b905092915050565b6000602082019050919050565b60006118f08261185b565b6118fa8185611866565b93508360208202850161190c85611877565b8060005b85811015611948578484038952815161192985826118c4565b9450611934836118d8565b925060208a01995050600181019050611910565b50829750879550505050505092915050565b6000602082019050818103600083015261197481846118e5565b905092915050565b600080600080600060a08688031215611998576119976112b7565b5b60006119a6888289016112e2565b955050602086013567ffffffffffffffff8111156119c7576119c66112bc565b5b6119d3888289016116fd565b945050604086013567ffffffffffffffff8111156119f4576119f36112bc565b5b611a00888289016116fd565b935050606086013567ffffffffffffffff811115611a2157611a206112bc565b5b611a2d888289016116fd565b925050608086013567ffffffffffffffff811115611a4e57611a4d6112bc565b5b611a5a888289016116fd565b9150509295509295909350565b600060c082019050611a7c6000830189611324565b8181036020830152611a8e818861138a565b90508181036040830152611aa2818761138a565b90508181036060830152611ab6818661138a565b90508181036080830152611aca818561138a565b9050611ad960a08301846115cc565b979650505050505050565b7f4e487b7100000000000000000000000000000000000000000000000000000000600052602260045260246000fd5b60006002820490506001821680611b2b57607f821691505b602082108103611b3e57611b3d611ae4565b5b50919050565b7f5573657220646f6573206e6f7420657869737473210000000000000000000000600082015250565b6000611b7a60158361133e565b9150611b8582611b44565b602082019050919050565b60006020820190508181036000830152611ba981611b6d565b9050919050565b7f596f752061726520416c7265616479204c6f6767656420496e21000000000000600082015250565b6000611be6601a8361133e565b9150611bf182611bb0565b602082019050919050565b60006020820190508181036000830152611c1581611bd9565b9050919050565b600081905092915050565b60008190508160005260206000209050919050565b60008154611c4981611b13565b611c538186611c1c565b94506001821660008114611c6e5760018114611c8357611cb6565b60ff1983168652811515820286019350611cb6565b611c8c85611c27565b60005b83811015611cae57815481890152600182019150602081019050611c8f565b838801955050505b50505092915050565b6000611ccb8284611c3c565b915081905092915050565b6000611ce182611333565b611ceb8185611c1c565b9350611cfb81856020860161134f565b80840191505092915050565b6000611d138284611cd6565b915081905092915050565b7f50617373776f7220446f6573204e6f74204d6174636865642100000000000000600082015250565b6000611d5460198361133e565b9150611d5f82611d1e565b602082019050919050565b60006020820190508181036000830152611d8381611d47565b9050919050565b7f596f75204e65656420546f204c6f6720496e2046697273742100000000000000600082015250565b6000611dc060198361133e565b9150611dcb82611d8a565b602082019050919050565b60006020820190508181036000830152611def81611db3565b9050919050565b7f596f757220466972656e6420446f6573204e6f7420526567697374657265642060008201527f57697468205468652053797374656d2100000000000000000000000000000000602082015250565b6000611e5260308361133e565b9150611e5d82611df6565b604082019050919050565b60006020820190508181036000830152611e8181611e45565b9050919050565b7f596f7520617265206e6f7420667269656e64732077697468207468652067697660008201527f656e207573657221000000000000000000000000000000000000000000000000602082015250565b6000611ee460288361133e565b9150611eef82611e88565b604082019050919050565b60006020820190508181036000830152611f1381611ed7565b9050919050565b60006020601f8301049050919050565b600082821b905092915050565b600060088302611f677fffffffffffffffffffffffffffffffffffffffffffffffffffffffffffffffff82611f2a565b611f718683611f2a565b95508019841693508086168417925050509392505050565b6000819050919050565b6000611fae611fa9611fa4846112c1565b611f89565b6112c1565b9050919050565b6000819050919050565b611fc883611f93565b611fdc611fd482611fb5565b848454611f37565b825550505050565b600090565b611ff1611fe4565b611ffc818484611fbf565b505050565b5b8181101561202057612015600082611fe9565b600181019050612002565b5050565b601f8211156120655761203681611c27565b61203f84611f1a565b8101602085101561204e578190505b61206261205a85611f1a565b830182612001565b50505b505050565b600082821c905092915050565b60006120886000198460080261206a565b1980831691505092915050565b60006120a18383612077565b9150826002028217905092915050565b6120ba82611333565b67ffffffffffffffff8111156120d3576120d2611600565b5b6120dd8254611b13565b6120e8828285612024565b600060209050601f83116001811461211b5760008415612109578287015190505b6121138582612095565b86555061217b565b601f19841661212986611c27565b60005b828110156121515784890151825560018201915060208501945060208101905061212c565b8683101561216e578489015161216a601f891682612077565b8355505b6001600288020188555050505b505050505050565b600061218f838561133e565b935061219c8385846116ac565b6121a583611379565b840190509392505050565b60006060820190506121c56000830187611324565b6121d26020830186611324565b81810360408301526121e5818486612183565b905095945050505050565b7f5573657220657869737473210000000000000000000000000000000000000000600082015250565b6000612226600c8361133e565b9150612231826121f0565b602082019050919050565b6000602082019050818103600083015261225581612219565b9050919050565b7f5573657220616c72656164792065786973747321000000000000000000000000600082015250565b600061229260148361133e565b915061229d8261225c565b602082019050919050565b600060208201905081810360008301526122c181612285565b9050919050565b600060808201905081810360008301526122e2818761138a565b90506122f16020830186611324565b8181036040830152612303818561138a565b90508181036060830152612317818461138a565b905095945050505050565b7f557365722063616e6e6f74206164642068696d2f6865722073656c662061732060008201527f667269656e642100000000000000000000000000000000000000000000000000602082015250565b600061237e60278361133e565b915061238982612322565b604082019050919050565b600060208201905081810360008301526123ad81612371565b9050919050565b7f54686573652075736572732061726520616c726561647920667269656e647321600082015250565b60006123ea60208361133e565b91506123f5826123b4565b602082019050919050565b60006020820190508181036000830152612419816123dd565b9050919050565b60006040820190506124356000830186611324565b8181036020830152612448818486612183565b9050949350505050565b7f4e487b7100000000000000000000000000000000000000000000000000000000600052603260045260246000fd5b7f4e487b7100000000000000000000000000000000000000000000000000000000600052601160045260246000fd5b60006124bb826112c1565b91507fffffffffffffffffffffffffffffffffffffffffffffffffffffffffffffffff82036124ed576124ec612481565b5b600182019050919050565b6000819050919050565b61251361250e826112c1565b6124f8565b82525050565b60006125258285612502565b6020820191506125358284612502565b602082019150819050939250505056fea2646970667358221220a4671dbea0130621d0d45d93891187cc91e8fb6509b3ab8e29a7586510ff43e464736f6c63430008110033",
  "immutableReferences": {},
  "source": "// SPDX-License-Identifier: MIT\r\npragma solidity >=0.7.0 <0.9.0;\r\n\r\ncontract BCar {\r\n  /**\r\n   * ! I might need to add public Key 'ACCOUNT ADDRESS' of users\r\n   */\r\n  \r\n  // Chat Module\r\n  /**\r\n  *? User=> :SignUp /, :LogIn/, :LogOut /, :getFriendsList /\r\n   */\r\n  \r\n   struct User {\r\n    uint u_nic;\r\n    string u_name;\r\n    string u_contact;\r\n    string u_address;\r\n    string u_password;\r\n    bool isLoggedIn;\r\n    Friend[] friendList;\r\n    // vehicle[] vehicleList;\r\n   }\r\n   \r\n  //  event is a log creates on trigger. \r\n   event userSignedUp(string _nam, uint _nic, string u_cont, string u_pass);\r\n   event LogoutUser(bool isUserLoggedIn);\r\n\r\n   mapping (uint=>User) public userList;\r\n\r\n   function signUp(uint _nic, string memory _nam, string memory _cont, string memory _addr, string memory _pass) public returns (bool) {\r\n    require(!isUserExist(_nic),  \"User already exists!\");\r\n    \r\n    userList[_nic].u_nic = _nic;\r\n    userList[_nic].u_name = _nam;\r\n    userList[_nic].u_contact = _cont;\r\n    userList[_nic].u_address = _addr;\r\n    userList[_nic].u_password = _pass;\r\n    userList[_nic].isLoggedIn = true;\r\n\r\n    emit userSignedUp(_nam, _nic, _cont, _pass);\r\n\r\n    return true;\r\n   }\r\n\r\n   function LogIn(uint _nic, string memory _pass) public returns (bool) {\r\n    require(isUserExist(_nic),  \"User does not exists!\");\r\n    require(!isLoggedIn(_nic), \"You are Already Logged In!\");\r\n    require(keccak256(abi.encodePacked(_pass)) == keccak256(abi.encodePacked(userList[_nic].u_password)), \"Passwor Does Not Matched!\");\r\n    return userList[_nic].isLoggedIn = true;\r\n   }\r\n    \r\n    function LogOut(uint _nic) public returns (bool) {\r\n      require(isLoggedIn(_nic), \"You Need To Log In First!\");\r\n      emit LogoutUser(false);\r\n      return userList[_nic].isLoggedIn = false;\r\n    }\r\n\r\n    function getFriendsList(uint _nic) external view returns(Friend[] memory) {\r\n      require(isUserExist(_nic),  \"User exists!\");\r\n      require(isLoggedIn(_nic), \"You Need To Log In First!\");\r\n\r\n      return userList[_nic].friendList;\r\n    }\r\n\r\n    /**\r\n  *? Friends=> :addNewFriend /, :checkAlreadyFriends /, :LoopOnFriend /\r\n   */\r\n\r\n    // Each friend is identified by its address and name assigned by the second party\r\n    struct Friend {\r\n        uint f_nic;\r\n        string f_name;\r\n    }\r\n\r\n    event AddFriend(uint friend_key, string name);\r\n\r\n    mapping (uint=>Friend) public friendList;\r\n  \r\n   function addNewFriend(uint _nic, uint f_nic, string calldata f_name) external {\r\n    require(isLoggedIn(_nic), \"You Need To Log In First!\");\r\n    require(isUserExist(f_nic),  \"Your Firend Does Not Registered With The System!\");\r\n    require(_nic!=f_nic, \"User cannot add him/her self as friend!\");\r\n    require(areFriends(_nic,f_nic)==false, \"These users are already friends!\");\r\n\r\n    _addFriend(_nic, f_nic, f_name);\r\n    _addFriend(f_nic, _nic, userList[_nic].u_name);\r\n    emit AddFriend(f_nic, f_name);\r\n   }\r\n\r\n  function areFriends(uint _nic, uint f_nic) public view returns (bool) {\r\n    // if the list of user is greater then the list of friend\r\n    if(userList[_nic].friendList.length > userList[f_nic].friendList.length){\r\n      uint tmp = _nic;\r\n      _nic = f_nic;\r\n      f_nic = tmp;\r\n    }\r\n    // the loop will run on bigger list\r\n    for (uint256 i = 0; i < userList[_nic].friendList.length; i++) {\r\n      if(userList[_nic].friendList[i].f_nic == f_nic)\r\n      return true;\r\n    }\r\n    return false;\r\n  }\r\n   \r\n  // A helper function to update the friendList\r\n  function _addFriend(uint me, uint friend_key, string memory name) internal {\r\n    // create new object of type friend\r\n      Friend memory newFriend = Friend(friend_key,name);\r\n      // add newly created obj to friend list of user\r\n      userList[me].friendList.push(newFriend);\r\n  }\r\n\r\n/**\r\n *? Messages' Funcions=> :\r\n */\r\n\r\n// message construct stores the single chat message and its metadata\r\n    struct message {\r\n        // address sender;\r\n        uint sender_nic;\r\n        uint256 timestamp;\r\n        string msg;\r\n    }\r\n   \r\n   event SendMessage(uint sender_key, uint friend_key, string msg);\r\n   \r\n    // Collection of messages communicated in a channel between two users\r\n    mapping(bytes32 => message[]) allMessages; // key : Hash(user1,user2)\r\n\r\n       // Returns a unique code for the channel created between the two users\r\n    // Hash(key1,key2) where key1 is lexicographically smaller than key2\r\n    // function _getChatCode(address pubkey1, address pubkey2) internal pure returns(bytes32) {\r\n    function _getChatCode(uint _nic, uint f_nic) internal pure returns(bytes32) {\r\n        if(_nic < f_nic)\r\n            return keccak256(abi.encodePacked(_nic, f_nic));\r\n        else\r\n            return keccak256(abi.encodePacked(f_nic, _nic));\r\n    }\r\n   \r\n       // Sends a new message to a given friend\r\n    function sendMessage(uint _nic, uint f_nic, string calldata _msg) external {\r\n      require(isLoggedIn(_nic), \"You Need To Log In First!\");\r\n      require(isUserExist(f_nic),  \"Your Firend Does Not Registered With The System!\");\r\n      require(areFriends(_nic,f_nic)==true, \"You are not friends with the given user!\");\r\n        bytes32 chatCode = _getChatCode(_nic, f_nic);\r\n        message memory newMsg = message(_nic, block.timestamp, _msg);\r\n        allMessages[chatCode].push(newMsg);\r\n        emit SendMessage(_nic, f_nic, _msg);\r\n    }\r\n   \r\n   // Returns all the chat messages communicated in a channel\r\n    function readMessage(uint _nic, uint f_nic) external view returns(message[] memory) {\r\n        bytes32 chatCode = _getChatCode(_nic, f_nic);\r\n        return allMessages[chatCode];\r\n    }\r\n/** \r\n *? general purpose functions =>  :Loop, :isExists/, :isLoggedIn/\r\n */\r\n\r\n   function isUserExist(uint _nic) public view returns (bool) {\r\n    return bytes(userList[_nic].u_name).length > 0;\r\n   }\r\n\r\n   function isLoggedIn(uint _nic) public view returns (bool) {\r\n    return userList[_nic].isLoggedIn;\r\n   }\r\n\r\n\r\n}\r\n",
  "sourcePath": "C:\\xampp\\htdocs\\my_working_dir\\block-chain\\bcar1.0\\contracts\\BCar.sol",
  "compiler": {
    "name": "solc",
    "version": "0.8.17+commit.8df45f5f.Emscripten.clang"
  },
  "schemaVersion": "3.4.10",
  "updatedAt": "2022-12-11T15:58:20.897Z",
  "networkType": "ethereum",
  "devdoc": {
    "kind": "dev",
    "methods": {},
    "version": 1
  },
  "userdoc": {
    "kind": "user",
    "methods": {
      "isUserExist(uint256)": {
        "notice": "? general purpose functions =>  :Loop, :isExists/, :isLoggedIn/"
      }
    },
    "version": 1
  }
}