{
  "contractName": "BCar",
  "abi": [
    {
      "anonymous": false,
      "inputs": [
        {
          "indexed": false,
          "internalType": "uint256",
          "name": "friend_key",
          "type": "uint256"
        },
        {
          "indexed": false,
          "internalType": "string",
          "name": "name",
          "type": "string"
        }
      ],
      "name": "AddFriend",
      "type": "event"
    },
    {
      "anonymous": false,
      "inputs": [
        {
          "indexed": false,
          "internalType": "bool",
          "name": "isUserLoggedIn",
          "type": "bool"
        }
      ],
      "name": "LogoutUser",
      "type": "event"
    },
    {
      "anonymous": false,
      "inputs": [
        {
          "indexed": false,
          "internalType": "uint256",
          "name": "sender_key",
          "type": "uint256"
        },
        {
          "indexed": false,
          "internalType": "uint256",
          "name": "friend_key",
          "type": "uint256"
        },
        {
          "indexed": false,
          "internalType": "string",
          "name": "msg",
          "type": "string"
        }
      ],
      "name": "SendMessage",
      "type": "event"
    },
    {
      "anonymous": false,
      "inputs": [
        {
          "indexed": false,
          "internalType": "string",
          "name": "e_no",
          "type": "string"
        },
        {
          "indexed": false,
          "internalType": "string",
          "name": "v_no",
          "type": "string"
        },
        {
          "indexed": false,
          "internalType": "string",
          "name": "company",
          "type": "string"
        },
        {
          "indexed": false,
          "internalType": "string",
          "name": "modal",
          "type": "string"
        },
        {
          "indexed": false,
          "internalType": "string",
          "name": "year",
          "type": "string"
        },
        {
          "indexed": false,
          "internalType": "uint256",
          "name": "owner_id",
          "type": "uint256"
        },
        {
          "indexed": false,
          "internalType": "bool",
          "name": "reg_with_owner",
          "type": "bool"
        }
      ],
      "name": "newVehicleAdded",
      "type": "event"
    },
    {
      "anonymous": false,
      "inputs": [
        {
          "indexed": false,
          "internalType": "string",
          "name": "_nam",
          "type": "string"
        },
        {
          "indexed": false,
          "internalType": "uint256",
          "name": "_nic",
          "type": "uint256"
        },
        {
          "indexed": false,
          "internalType": "string",
          "name": "u_cont",
          "type": "string"
        },
        {
          "indexed": false,
          "internalType": "string",
          "name": "u_pass",
          "type": "string"
        }
      ],
      "name": "userSignedUp",
      "type": "event"
    },
    {
      "inputs": [
        {
          "internalType": "uint256",
          "name": "",
          "type": "uint256"
        }
      ],
      "name": "friendList",
      "outputs": [
        {
          "internalType": "uint256",
          "name": "f_nic",
          "type": "uint256"
        },
        {
          "internalType": "string",
          "name": "f_name",
          "type": "string"
        }
      ],
      "stateMutability": "view",
      "type": "function",
      "constant": true
    },
    {
      "inputs": [
        {
          "internalType": "uint256",
          "name": "",
          "type": "uint256"
        }
      ],
      "name": "userList",
      "outputs": [
        {
          "internalType": "uint256",
          "name": "u_nic",
          "type": "uint256"
        },
        {
          "internalType": "string",
          "name": "u_name",
          "type": "string"
        },
        {
          "internalType": "string",
          "name": "u_contact",
          "type": "string"
        },
        {
          "internalType": "string",
          "name": "u_address",
          "type": "string"
        },
        {
          "internalType": "string",
          "name": "u_password",
          "type": "string"
        },
        {
          "internalType": "bool",
          "name": "isLoggedIn",
          "type": "bool"
        }
      ],
      "stateMutability": "view",
      "type": "function",
      "constant": true
    },
    {
      "inputs": [
        {
          "internalType": "uint256",
          "name": "",
          "type": "uint256"
        }
      ],
      "name": "userVehicles",
      "outputs": [
        {
          "internalType": "uint256",
          "name": "user_id",
          "type": "uint256"
        }
      ],
      "stateMutability": "view",
      "type": "function",
      "constant": true
    },
    {
      "inputs": [
        {
          "internalType": "string",
          "name": "",
          "type": "string"
        }
      ],
      "name": "vehicleList",
      "outputs": [
        {
          "internalType": "string",
          "name": "e_no",
          "type": "string"
        },
        {
          "internalType": "string",
          "name": "v_no",
          "type": "string"
        },
        {
          "internalType": "string",
          "name": "company",
          "type": "string"
        },
        {
          "internalType": "string",
          "name": "modal",
          "type": "string"
        },
        {
          "internalType": "string",
          "name": "year",
          "type": "string"
        },
        {
          "internalType": "uint256",
          "name": "owner_id",
          "type": "uint256"
        },
        {
          "internalType": "bool",
          "name": "reg_with_owner",
          "type": "bool"
        }
      ],
      "stateMutability": "view",
      "type": "function",
      "constant": true
    },
    {
      "inputs": [
        {
          "internalType": "uint256",
          "name": "_nic",
          "type": "uint256"
        },
        {
          "internalType": "string",
          "name": "_nam",
          "type": "string"
        },
        {
          "internalType": "string",
          "name": "_cont",
          "type": "string"
        },
        {
          "internalType": "string",
          "name": "_addr",
          "type": "string"
        },
        {
          "internalType": "string",
          "name": "_pass",
          "type": "string"
        }
      ],
      "name": "signUp",
      "outputs": [
        {
          "internalType": "bool",
          "name": "",
          "type": "bool"
        }
      ],
      "stateMutability": "nonpayable",
      "type": "function"
    },
    {
      "inputs": [
        {
          "internalType": "uint256",
          "name": "_nic",
          "type": "uint256"
        },
        {
          "internalType": "string",
          "name": "_pass",
          "type": "string"
        }
      ],
      "name": "LogIn",
      "outputs": [
        {
          "internalType": "bool",
          "name": "",
          "type": "bool"
        }
      ],
      "stateMutability": "nonpayable",
      "type": "function"
    },
    {
      "inputs": [
        {
          "internalType": "uint256",
          "name": "_nic",
          "type": "uint256"
        }
      ],
      "name": "LogOut",
      "outputs": [
        {
          "internalType": "bool",
          "name": "",
          "type": "bool"
        }
      ],
      "stateMutability": "nonpayable",
      "type": "function"
    },
    {
      "inputs": [
        {
          "internalType": "uint256",
          "name": "_nic",
          "type": "uint256"
        }
      ],
      "name": "getUserInfo",
      "outputs": [
        {
          "internalType": "uint256",
          "name": "",
          "type": "uint256"
        },
        {
          "internalType": "string",
          "name": "",
          "type": "string"
        },
        {
          "internalType": "string",
          "name": "",
          "type": "string"
        },
        {
          "internalType": "string",
          "name": "",
          "type": "string"
        },
        {
          "internalType": "bool",
          "name": "",
          "type": "bool"
        }
      ],
      "stateMutability": "view",
      "type": "function",
      "constant": true
    },
    {
      "inputs": [
        {
          "internalType": "uint256",
          "name": "_nic",
          "type": "uint256"
        }
      ],
      "name": "getFriendsList",
      "outputs": [
        {
          "components": [
            {
              "internalType": "uint256",
              "name": "f_nic",
              "type": "uint256"
            },
            {
              "internalType": "string",
              "name": "f_name",
              "type": "string"
            }
          ],
          "internalType": "struct BCar.Friend[]",
          "name": "",
          "type": "tuple[]"
        }
      ],
      "stateMutability": "view",
      "type": "function",
      "constant": true
    },
    {
      "inputs": [
        {
          "internalType": "uint256",
          "name": "_nic",
          "type": "uint256"
        },
        {
          "internalType": "uint256",
          "name": "f_nic",
          "type": "uint256"
        },
        {
          "internalType": "string",
          "name": "f_name",
          "type": "string"
        }
      ],
      "name": "addNewFriend",
      "outputs": [],
      "stateMutability": "nonpayable",
      "type": "function"
    },
    {
      "inputs": [
        {
          "internalType": "uint256",
          "name": "_nic",
          "type": "uint256"
        },
        {
          "internalType": "uint256",
          "name": "f_nic",
          "type": "uint256"
        }
      ],
      "name": "areFriends",
      "outputs": [
        {
          "internalType": "bool",
          "name": "",
          "type": "bool"
        }
      ],
      "stateMutability": "view",
      "type": "function",
      "constant": true
    },
    {
      "inputs": [
        {
          "internalType": "uint256",
          "name": "_nic",
          "type": "uint256"
        },
        {
          "internalType": "uint256",
          "name": "f_nic",
          "type": "uint256"
        },
        {
          "internalType": "string",
          "name": "_msg",
          "type": "string"
        }
      ],
      "name": "sendMessage",
      "outputs": [],
      "stateMutability": "nonpayable",
      "type": "function"
    },
    {
      "inputs": [
        {
          "internalType": "uint256",
          "name": "_nic",
          "type": "uint256"
        },
        {
          "internalType": "uint256",
          "name": "f_nic",
          "type": "uint256"
        }
      ],
      "name": "readMessage",
      "outputs": [
        {
          "components": [
            {
              "internalType": "uint256",
              "name": "sender_nic",
              "type": "uint256"
            },
            {
              "internalType": "uint256",
              "name": "timestamp",
              "type": "uint256"
            },
            {
              "internalType": "string",
              "name": "msg",
              "type": "string"
            }
          ],
          "internalType": "struct BCar.message[]",
          "name": "",
          "type": "tuple[]"
        }
      ],
      "stateMutability": "view",
      "type": "function",
      "constant": true
    },
    {
      "inputs": [
        {
          "internalType": "uint256",
          "name": "_nic",
          "type": "uint256"
        },
        {
          "internalType": "string",
          "name": "e_no",
          "type": "string"
        },
        {
          "internalType": "string",
          "name": "v_no",
          "type": "string"
        },
        {
          "internalType": "string",
          "name": "company",
          "type": "string"
        },
        {
          "internalType": "string",
          "name": "modal",
          "type": "string"
        },
        {
          "internalType": "string",
          "name": "year",
          "type": "string"
        }
      ],
      "name": "addNewVehicle",
      "outputs": [
        {
          "internalType": "bool",
          "name": "",
          "type": "bool"
        }
      ],
      "stateMutability": "nonpayable",
      "type": "function"
    },
    {
      "inputs": [
        {
          "internalType": "string",
          "name": "e_no",
          "type": "string"
        }
      ],
      "name": "getVehicleInfo",
      "outputs": [
        {
          "internalType": "string",
          "name": "",
          "type": "string"
        },
        {
          "internalType": "string",
          "name": "",
          "type": "string"
        },
        {
          "internalType": "string",
          "name": "",
          "type": "string"
        },
        {
          "internalType": "string",
          "name": "",
          "type": "string"
        },
        {
          "internalType": "string",
          "name": "",
          "type": "string"
        },
        {
          "internalType": "uint256",
          "name": "",
          "type": "uint256"
        },
        {
          "internalType": "bool",
          "name": "",
          "type": "bool"
        }
      ],
      "stateMutability": "view",
      "type": "function",
      "constant": true
    },
    {
      "inputs": [
        {
          "internalType": "uint256",
          "name": "_nic",
          "type": "uint256"
        },
        {
          "internalType": "string",
          "name": "e_no",
          "type": "string"
        }
      ],
      "name": "_addVehicle",
      "outputs": [],
      "stateMutability": "nonpayable",
      "type": "function"
    },
    {
      "inputs": [
        {
          "internalType": "uint256",
          "name": "_nic",
          "type": "uint256"
        }
      ],
      "name": "getUserVehicles",
      "outputs": [
        {
          "components": [
            {
              "internalType": "string",
              "name": "e_no",
              "type": "string"
            },
            {
              "internalType": "string",
              "name": "v_no",
              "type": "string"
            },
            {
              "internalType": "string",
              "name": "company",
              "type": "string"
            },
            {
              "internalType": "string",
              "name": "modal",
              "type": "string"
            },
            {
              "internalType": "string",
              "name": "year",
              "type": "string"
            },
            {
              "internalType": "uint256",
              "name": "owner_id",
              "type": "uint256"
            },
            {
              "internalType": "bool",
              "name": "reg_with_owner",
              "type": "bool"
            }
          ],
          "internalType": "struct BCar.Vehicle[]",
          "name": "",
          "type": "tuple[]"
        }
      ],
      "stateMutability": "view",
      "type": "function",
      "constant": true
    },
    {
      "inputs": [
        {
          "internalType": "uint256",
          "name": "_nic",
          "type": "uint256"
        },
        {
          "internalType": "uint256",
          "name": "n_nic",
          "type": "uint256"
        },
        {
          "internalType": "string",
          "name": "e_no",
          "type": "string"
        }
      ],
      "name": "transferVehicle",
      "outputs": [],
      "stateMutability": "nonpayable",
      "type": "function"
    },
    {
      "inputs": [
        {
          "internalType": "uint256",
          "name": "_nic",
          "type": "uint256"
        }
      ],
      "name": "isUserExist",
      "outputs": [
        {
          "internalType": "bool",
          "name": "",
          "type": "bool"
        }
      ],
      "stateMutability": "view",
      "type": "function",
      "constant": true
    },
    {
      "inputs": [
        {
          "internalType": "uint256",
          "name": "_nic",
          "type": "uint256"
        }
      ],
      "name": "isLoggedIn",
      "outputs": [
        {
          "internalType": "bool",
          "name": "",
          "type": "bool"
        }
      ],
      "stateMutability": "view",
      "type": "function",
      "constant": true
    },
    {
      "inputs": [
        {
          "internalType": "string",
          "name": "e_no",
          "type": "string"
        }
      ],
      "name": "isVehicleRegistered",
      "outputs": [
        {
          "internalType": "bool",
          "name": "",
          "type": "bool"
        }
      ],
      "stateMutability": "view",
      "type": "function",
      "constant": true
    },
    {
      "inputs": [
        {
          "internalType": "string",
          "name": "e_no",
          "type": "string"
        },
        {
          "internalType": "uint256",
          "name": "_nic",
          "type": "uint256"
        }
      ],
      "name": "isVehicleRegisteredWithTheUser",
      "outputs": [
        {
          "internalType": "bool",
          "name": "",
          "type": "bool"
        }
      ],
      "stateMutability": "view",
      "type": "function",
      "constant": true
    }
  ],
  "bytecode": "0x608060405234801561001057600080fd5b506144e7806100206000396000f3fe608060405234801561001057600080fd5b50600436106101425760003560e01c80637b4ea148116100b8578063c6c881611161007c578063c6c881611461042b578063cd8139901461045b578063d379dadf14610477578063edf6a3d4146104ab578063f10eee23146104db578063f7a094e11461051157610142565b80637b4ea148146103445780639f4216e814610374578063ab32c508146103a9578063ac56730f146103df578063b312b5bc1461040f57610142565b806339561dba1161010a57806339561dba14610238578063449a34ba146102545780635724d5d3146102845780635b3d8bd1146102b457806369f943da146102e45780636e7a7a741461031457610142565b80631a11cc441461014757806321668a0114610177578063259b3f63146101a857806326344c8b146101d8578063314c4ff914610208575b600080fd5b610161600480360381019061015c919061297e565b61052d565b60405161016e9190612bdf565b60405180910390f35b610191600480360381019061018c919061297e565b6108e9565b60405161019f929190612c5a565b60405180910390f35b6101c260048036038101906101bd9190612c8a565b610995565b6040516101cf9190612ddc565b60405180910390f35b6101f260048036038101906101ed919061297e565b610abd565b6040516101ff9190612e0d565b60405180910390f35b610222600480360381019061021d9190612f5d565b610ae9565b60405161022f9190612e0d565b60405180910390f35b610252600480360381019061024d9190613019565b610c53565b005b61026e6004803603810190610269919061297e565b610e52565b60405161027b919061318c565b60405180910390f35b61029e600480360381019061029991906131ae565b610ff2565b6040516102ab9190612e0d565b60405180910390f35b6102ce60048036038101906102c99190613299565b61115b565b6040516102db9190612e0d565b60405180910390f35b6102fe60048036038101906102f991906133b2565b611395565b60405161030b9190612e0d565b60405180910390f35b61032e6004803603810190610329919061297e565b6113cd565b60405161033b9190612e0d565b60405180910390f35b61035e6004803603810190610359919061297e565b611483565b60405161036b91906133fb565b60405180910390f35b61038e6004803603810190610389919061297e565b6114a1565b6040516103a096959493929190613416565b60405180910390f35b6103c360048036038101906103be91906133b2565b61170a565b6040516103d69796959493929190613493565b60405180910390f35b6103f960048036038101906103f4919061297e565b611b28565b6040516104069190612e0d565b60405180910390f35b61042960048036038101906104249190613019565b611b55565b005b61044560048036038101906104409190613525565b611daf565b6040516104529190612e0d565b60405180910390f35b61047560048036038101906104709190612f5d565b611ddd565b005b610491600480360381019061048c919061297e565b611ee0565b6040516104a2959493929190613581565b60405180910390f35b6104c560048036038101906104c09190612c8a565b612160565b6040516104d29190612e0d565b60405180910390f35b6104f560048036038101906104f091906133b2565b612232565b6040516105089796959493929190613493565b60405180910390f35b61052b600480360381019061052691906135e9565b61253f565b005b606061053882610abd565b610577576040517f08c379a000000000000000000000000000000000000000000000000000000000815260040161056e906136a4565b60405180910390fd5b60046000838152602001908152602001600020600101805480602002602001604051908101604052809291908181526020016000905b828210156108de57838290600052602060002090600702016040518060e00160405290816000820180546105e0906136f3565b80601f016020809104026020016040519081016040528092919081815260200182805461060c906136f3565b80156106595780601f1061062e57610100808354040283529160200191610659565b820191906000526020600020905b81548152906001019060200180831161063c57829003601f168201915b50505050508152602001600182018054610672906136f3565b80601f016020809104026020016040519081016040528092919081815260200182805461069e906136f3565b80156106eb5780601f106106c0576101008083540402835291602001916106eb565b820191906000526020600020905b8154815290600101906020018083116106ce57829003601f168201915b50505050508152602001600282018054610704906136f3565b80601f0160208091040260200160405190810160405280929190818152602001828054610730906136f3565b801561077d5780601f106107525761010080835404028352916020019161077d565b820191906000526020600020905b81548152906001019060200180831161076057829003601f168201915b50505050508152602001600382018054610796906136f3565b80601f01602080910402602001604051908101604052809291908181526020018280546107c2906136f3565b801561080f5780601f106107e45761010080835404028352916020019161080f565b820191906000526020600020905b8154815290600101906020018083116107f257829003601f168201915b50505050508152602001600482018054610828906136f3565b80601f0160208091040260200160405190810160405280929190818152602001828054610854906136f3565b80156108a15780601f10610876576101008083540402835291602001916108a1565b820191906000526020600020905b81548152906001019060200180831161088457829003601f168201915b50505050508152602001600582015481526020016006820160009054906101000a900460ff161515151581525050815260200190600101906105ad565b505050509050919050565b6001602052806000526040600020600091509050806000015490806001018054610912906136f3565b80601f016020809104026020016040519081016040528092919081815260200182805461093e906136f3565b801561098b5780601f106109605761010080835404028352916020019161098b565b820191906000526020600020905b81548152906001019060200180831161096e57829003601f168201915b5050505050905082565b606060006109a38484612848565b905060026000828152602001908152602001600020805480602002602001604051908101604052809291908181526020016000905b82821015610ab057838290600052602060002090600302016040518060600160405290816000820154815260200160018201548152602001600282018054610a1f906136f3565b80601f0160208091040260200160405190810160405280929190818152602001828054610a4b906136f3565b8015610a985780601f10610a6d57610100808354040283529160200191610a98565b820191906000526020600020905b815481529060010190602001808311610a7b57829003601f168201915b505050505081525050815260200190600101906109d8565b5050505091505092915050565b600080600083815260200190815260200160002060050160009054906101000a900460ff169050919050565b6000610af483611b28565b610b33576040517f08c379a0000000000000000000000000000000000000000000000000000000008152600401610b2a90613770565b60405180910390fd5b610b3c83610abd565b15610b7c576040517f08c379a0000000000000000000000000000000000000000000000000000000008152600401610b73906137dc565b60405180910390fd5b600080848152602001908152602001600020600401604051602001610ba1919061389f565b6040516020818303038152906040528051906020012082604051602001610bc891906138e7565b6040516020818303038152906040528051906020012014610c1e576040517f08c379a0000000000000000000000000000000000000000000000000000000008152600401610c159061394a565b60405180910390fd5b600160008085815260200190815260200160002060050160006101000a81548160ff0219169083151502179055905092915050565b610c5c84610abd565b610c9b576040517f08c379a0000000000000000000000000000000000000000000000000000000008152600401610c92906136a4565b60405180910390fd5b610ca483611b28565b610ce3576040517f08c379a0000000000000000000000000000000000000000000000000000000008152600401610cda906139dc565b60405180910390fd5b60011515610cf18585612160565b151514610d33576040517f08c379a0000000000000000000000000000000000000000000000000000000008152600401610d2a90613a6e565b60405180910390fd5b6000610d3f8585612848565b90506000604051806060016040528087815260200142815260200185858080601f016020809104026020016040519081016040528093929190818152602001838380828437600081840152601f19601f8201169050808301925050505050505081525090506002600083815260200190815260200160002081908060018154018082558091505060019003906000526020600020906003020160009091909190915060008201518160000155602082015181600101556040820151816002019081610e0a9190613c25565b5050507fd96231ef676e3e8799b3f576a020cb0fbe997efd03802226119b87674b11c1c286868686604051610e429493929190613d24565b60405180910390a1505050505050565b6060610e5d82611b28565b610e9c576040517f08c379a0000000000000000000000000000000000000000000000000000000008152600401610e9390613db0565b60405180910390fd5b610ea582610abd565b610ee4576040517f08c379a0000000000000000000000000000000000000000000000000000000008152600401610edb906136a4565b60405180910390fd5b600080838152602001908152602001600020600601805480602002602001604051908101604052809291908181526020016000905b82821015610fe7578382906000526020600020906002020160405180604001604052908160008201548152602001600182018054610f56906136f3565b80601f0160208091040260200160405190810160405280929190818152602001828054610f82906136f3565b8015610fcf5780601f10610fa457610100808354040283529160200191610fcf565b820191906000526020600020905b815481529060010190602001808311610fb257829003601f168201915b50505050508152505081526020019060010190610f19565b505050509050919050565b6000610ffd86611b28565b1561103d576040517f08c379a000000000000000000000000000000000000000000000000000000000815260040161103490613e1c565b60405180910390fd5b85600080888152602001908152602001600020600001819055508460008088815260200190815260200160002060010190816110799190613c25565b5083600080888152602001908152602001600020600201908161109c9190613c25565b508260008088815260200190815260200160002060030190816110bf9190613c25565b508160008088815260200190815260200160002060040190816110e29190613c25565b50600160008088815260200190815260200160002060050160006101000a81548160ff0219169083151502179055507ff4f62c47f24224b311017882c675231104f94c03da61192ac4312d300a799639858786856040516111469493929190613e3c565b60405180910390a16001905095945050505050565b600061116687610abd565b6111a5576040517f08c379a000000000000000000000000000000000000000000000000000000000815260040161119c906136a4565b60405180910390fd5b6111ae86611395565b156111ee576040517f08c379a00000000000000000000000000000000000000000000000000000000081526004016111e590613ee2565b60405180910390fd5b856003876040516111ff91906138e7565b9081526020016040518091039020600001908161121c9190613c25565b508460038760405161122e91906138e7565b9081526020016040518091039020600101908161124b9190613c25565b508360038760405161125d91906138e7565b9081526020016040518091039020600201908161127a9190613c25565b508260038760405161128c91906138e7565b908152602001604051809103902060030190816112a99190613c25565b50816003876040516112bb91906138e7565b908152602001604051809103902060040190816112d89190613c25565b50866003876040516112ea91906138e7565b908152602001604051809103902060050181905550600160038760405161131191906138e7565b908152602001604051809103902060060160006101000a81548160ff0219169083151502179055507fcffcfe9c611d548f2a90bba136f5ae1dbfc1388cbd0d0bebad971e7f967d4c2b86868686868c60016040516113759796959493929190613493565b60405180910390a16113878787611ddd565b600190509695505050505050565b60006003826040516113a791906138e7565b908152602001604051809103902060060160009054906101000a900460ff169050919050565b60006113d882610abd565b611417576040517f08c379a000000000000000000000000000000000000000000000000000000000815260040161140e906136a4565b60405180910390fd5b7f63ec3f4df310cbea2a7bef14e7983a49708f46e93064cfbc28087a44a6ea24f460006040516114479190612e0d565b60405180910390a1600080600084815260200190815260200160002060050160006101000a81548160ff02191690831515021790559050919050565b60046020528060005260406000206000915090508060000154905081565b60006020528060005260406000206000915090508060000154908060010180546114ca906136f3565b80601f01602080910402602001604051908101604052809291908181526020018280546114f6906136f3565b80156115435780601f1061151857610100808354040283529160200191611543565b820191906000526020600020905b81548152906001019060200180831161152657829003601f168201915b505050505090806002018054611558906136f3565b80601f0160208091040260200160405190810160405280929190818152602001828054611584906136f3565b80156115d15780601f106115a6576101008083540402835291602001916115d1565b820191906000526020600020905b8154815290600101906020018083116115b457829003601f168201915b5050505050908060030180546115e6906136f3565b80601f0160208091040260200160405190810160405280929190818152602001828054611612906136f3565b801561165f5780601f106116345761010080835404028352916020019161165f565b820191906000526020600020905b81548152906001019060200180831161164257829003601f168201915b505050505090806004018054611674906136f3565b80601f01602080910402602001604051908101604052809291908181526020018280546116a0906136f3565b80156116ed5780601f106116c2576101008083540402835291602001916116ed565b820191906000526020600020905b8154815290600101906020018083116116d057829003601f168201915b5050505050908060050160009054906101000a900460ff16905086565b606080606080606060008061171e88611395565b61175d576040517f08c379a000000000000000000000000000000000000000000000000000000000815260040161175490613f4e565b60405180910390fd5b60038860405161176d91906138e7565b908152602001604051809103902060000160038960405161178e91906138e7565b908152602001604051809103902060010160038a6040516117af91906138e7565b908152602001604051809103902060020160038b6040516117d091906138e7565b908152602001604051809103902060030160038c6040516117f191906138e7565b908152602001604051809103902060040160038d60405161181291906138e7565b90815260200160405180910390206005015460038e60405161183491906138e7565b908152602001604051809103902060060160009054906101000a900460ff1686805461185f906136f3565b80601f016020809104026020016040519081016040528092919081815260200182805461188b906136f3565b80156118d85780601f106118ad576101008083540402835291602001916118d8565b820191906000526020600020905b8154815290600101906020018083116118bb57829003601f168201915b505050505096508580546118eb906136f3565b80601f0160208091040260200160405190810160405280929190818152602001828054611917906136f3565b80156119645780601f1061193957610100808354040283529160200191611964565b820191906000526020600020905b81548152906001019060200180831161194757829003601f168201915b50505050509550848054611977906136f3565b80601f01602080910402602001604051908101604052809291908181526020018280546119a3906136f3565b80156119f05780601f106119c5576101008083540402835291602001916119f0565b820191906000526020600020905b8154815290600101906020018083116119d357829003601f168201915b50505050509450838054611a03906136f3565b80601f0160208091040260200160405190810160405280929190818152602001828054611a2f906136f3565b8015611a7c5780601f10611a5157610100808354040283529160200191611a7c565b820191906000526020600020905b815481529060010190602001808311611a5f57829003601f168201915b50505050509350828054611a8f906136f3565b80601f0160208091040260200160405190810160405280929190818152602001828054611abb906136f3565b8015611b085780601f10611add57610100808354040283529160200191611b08565b820191906000526020600020905b815481529060010190602001808311611aeb57829003601f168201915b505050505092509650965096509650965096509650919395979092949650565b6000806000808481526020019081526020016000206001018054611b4b906136f3565b9050119050919050565b611b5e84610abd565b611b9d576040517f08c379a0000000000000000000000000000000000000000000000000000000008152600401611b94906136a4565b60405180910390fd5b611ba683611b28565b611be5576040517f08c379a0000000000000000000000000000000000000000000000000000000008152600401611bdc906139dc565b60405180910390fd5b828403611c27576040517f08c379a0000000000000000000000000000000000000000000000000000000008152600401611c1e90613fe0565b60405180910390fd5b60001515611c358585612160565b151514611c77576040517f08c379a0000000000000000000000000000000000000000000000000000000008152600401611c6e9061404c565b60405180910390fd5b611cc6848484848080601f016020809104026020016040519081016040528093929190818152602001838380828437600081840152601f19601f820116905080830192505050505050506128b4565b611d6e83856000808881526020019081526020016000206001018054611ceb906136f3565b80601f0160208091040260200160405190810160405280929190818152602001828054611d17906136f3565b8015611d645780601f10611d3957610100808354040283529160200191611d64565b820191906000526020600020905b815481529060010190602001808311611d4757829003601f168201915b50505050506128b4565b7fe514c4afa30880e1ca9b0dc7a1cb62a81ff9cab2e30c36cea191354f50ff66b2838383604051611da19392919061406c565b60405180910390a150505050565b600081600384604051611dc291906138e7565b90815260200160405180910390206005015414905092915050565b60046000838152602001908152602001600020600101600382604051611e0391906138e7565b9081526020016040518091039020908060018154018082558091505060019003906000526020600020906007020160009091909190915060008201816000019081611e4e91906140b4565b5060018201816001019081611e6391906140b4565b5060028201816002019081611e7891906140b4565b5060038201816003019081611e8d91906140b4565b5060048201816004019081611ea291906140b4565b50600582015481600501556006820160009054906101000a900460ff168160060160006101000a81548160ff02191690831515021790555050505050565b600060608060606000611ef286611b28565b611f31576040517f08c379a0000000000000000000000000000000000000000000000000000000008152600401611f2890613770565b60405180910390fd5b600080878152602001908152602001600020600001546000808881526020019081526020016000206001016000808981526020019081526020016000206002016000808a81526020019081526020016000206003016000808b815260200190815260200160002060050160009054906101000a900460ff16838054611fb5906136f3565b80601f0160208091040260200160405190810160405280929190818152602001828054611fe1906136f3565b801561202e5780601f106120035761010080835404028352916020019161202e565b820191906000526020600020905b81548152906001019060200180831161201157829003601f168201915b50505050509350828054612041906136f3565b80601f016020809104026020016040519081016040528092919081815260200182805461206d906136f3565b80156120ba5780601f1061208f576101008083540402835291602001916120ba565b820191906000526020600020905b81548152906001019060200180831161209d57829003601f168201915b505050505092508180546120cd906136f3565b80601f01602080910402602001604051908101604052809291908181526020018280546120f9906136f3565b80156121465780601f1061211b57610100808354040283529160200191612146565b820191906000526020600020905b81548152906001019060200180831161212957829003601f168201915b505050505091509450945094509450945091939590929450565b6000806000838152602001908152602001600020600601805490506000808581526020019081526020016000206006018054905011156121a7576000839050829350809250505b60005b60008085815260200190815260200160002060060180549050811015612226578260008086815260200190815260200160002060060182815481106121f2576121f161419c565b5b9060005260206000209060020201600001540361221357600191505061222c565b808061221e906141fa565b9150506121aa565b50600090505b92915050565b60038180516020810182018051848252602083016020850120818352809550505050505060009150905080600001805461226b906136f3565b80601f0160208091040260200160405190810160405280929190818152602001828054612297906136f3565b80156122e45780601f106122b9576101008083540402835291602001916122e4565b820191906000526020600020905b8154815290600101906020018083116122c757829003601f168201915b5050505050908060010180546122f9906136f3565b80601f0160208091040260200160405190810160405280929190818152602001828054612325906136f3565b80156123725780601f1061234757610100808354040283529160200191612372565b820191906000526020600020905b81548152906001019060200180831161235557829003601f168201915b505050505090806002018054612387906136f3565b80601f01602080910402602001604051908101604052809291908181526020018280546123b3906136f3565b80156124005780601f106123d557610100808354040283529160200191612400565b820191906000526020600020905b8154815290600101906020018083116123e357829003601f168201915b505050505090806003018054612415906136f3565b80601f0160208091040260200160405190810160405280929190818152602001828054612441906136f3565b801561248e5780601f106124635761010080835404028352916020019161248e565b820191906000526020600020905b81548152906001019060200180831161247157829003601f168201915b5050505050908060040180546124a3906136f3565b80601f01602080910402602001604051908101604052809291908181526020018280546124cf906136f3565b801561251c5780601f106124f15761010080835404028352916020019161251c565b820191906000526020600020905b8154815290600101906020018083116124ff57829003601f168201915b5050505050908060050154908060060160009054906101000a900460ff16905087565b61254883610abd565b612587576040517f08c379a000000000000000000000000000000000000000000000000000000000815260040161257e906136a4565b60405180910390fd5b8183036125c9576040517f08c379a00000000000000000000000000000000000000000000000000000000081526004016125c0906142b4565b60405180910390fd5b6125d282611b28565b612611576040517f08c379a000000000000000000000000000000000000000000000000000000000815260040161260890614320565b60405180910390fd5b61261a81611395565b612659576040517f08c379a0000000000000000000000000000000000000000000000000000000008152600401612650906143b2565b60405180910390fd5b6126638184611daf565b6126a2576040517f08c379a000000000000000000000000000000000000000000000000000000000815260040161269990614444565b60405180910390fd5b6126ac8282611ddd565b60005b600460008581526020019081526020016000206001018054905081101561284257816040516020016126e191906138e7565b6040516020818303038152906040528051906020012060046000868152602001908152602001600020600101828154811061271f5761271e61419c565b5b9060005260206000209060070201600001604051602001612740919061389f565b604051602081830303815290604052805190602001201480156127ad57506001151560046000868152602001908152602001600020600101828154811061278a5761278961419c565b5b906000526020600020906007020160060160009054906101000a900460ff161515145b1561282f5760006004600086815260200190815260200160002060010182815481106127dc576127db61419c565b5b906000526020600020906007020160060160006101000a81548160ff0219169083151502179055508260038360405161281591906138e7565b908152602001604051809103902060050181905550612842565b808061283a906141fa565b9150506126af565b50505050565b600081831015612882578282604051602001612865929190614485565b6040516020818303038152906040528051906020012090506128ae565b8183604051602001612895929190614485565b6040516020818303038152906040528051906020012090505b92915050565b6000604051806040016040528084815260200183815250905060008085815260200190815260200160002060060181908060018154018082558091505060019003906000526020600020906002020160009091909190915060008201518160000155602082015181600101908161292b9190613c25565b50505050505050565b6000604051905090565b600080fd5b600080fd5b6000819050919050565b61295b81612948565b811461296657600080fd5b50565b60008135905061297881612952565b92915050565b6000602082840312156129945761299361293e565b5b60006129a284828501612969565b91505092915050565b600081519050919050565b600082825260208201905092915050565b6000819050602082019050919050565b600081519050919050565b600082825260208201905092915050565b60005b83811015612a115780820151818401526020810190506129f6565b60008484015250505050565b6000601f19601f8301169050919050565b6000612a39826129d7565b612a4381856129e2565b9350612a538185602086016129f3565b612a5c81612a1d565b840191505092915050565b612a7081612948565b82525050565b60008115159050919050565b612a8b81612a76565b82525050565b600060e0830160008301518482036000860152612aae8282612a2e565b91505060208301518482036020860152612ac88282612a2e565b91505060408301518482036040860152612ae28282612a2e565b91505060608301518482036060860152612afc8282612a2e565b91505060808301518482036080860152612b168282612a2e565b91505060a0830151612b2b60a0860182612a67565b5060c0830151612b3e60c0860182612a82565b508091505092915050565b6000612b558383612a91565b905092915050565b6000602082019050919050565b6000612b75826129ab565b612b7f81856129b6565b935083602082028501612b91856129c7565b8060005b85811015612bcd5784840389528151612bae8582612b49565b9450612bb983612b5d565b925060208a01995050600181019050612b95565b50829750879550505050505092915050565b60006020820190508181036000830152612bf98184612b6a565b905092915050565b612c0a81612948565b82525050565b600082825260208201905092915050565b6000612c2c826129d7565b612c368185612c10565b9350612c468185602086016129f3565b612c4f81612a1d565b840191505092915050565b6000604082019050612c6f6000830185612c01565b8181036020830152612c818184612c21565b90509392505050565b60008060408385031215612ca157612ca061293e565b5b6000612caf85828601612969565b9250506020612cc085828601612969565b9150509250929050565b600081519050919050565b600082825260208201905092915050565b6000819050602082019050919050565b6000606083016000830151612d0e6000860182612a67565b506020830151612d216020860182612a67565b5060408301518482036040860152612d398282612a2e565b9150508091505092915050565b6000612d528383612cf6565b905092915050565b6000602082019050919050565b6000612d7282612cca565b612d7c8185612cd5565b935083602082028501612d8e85612ce6565b8060005b85811015612dca5784840389528151612dab8582612d46565b9450612db683612d5a565b925060208a01995050600181019050612d92565b50829750879550505050505092915050565b60006020820190508181036000830152612df68184612d67565b905092915050565b612e0781612a76565b82525050565b6000602082019050612e226000830184612dfe565b92915050565b600080fd5b600080fd5b7f4e487b7100000000000000000000000000000000000000000000000000000000600052604160045260246000fd5b612e6a82612a1d565b810181811067ffffffffffffffff82111715612e8957612e88612e32565b5b80604052505050565b6000612e9c612934565b9050612ea88282612e61565b919050565b600067ffffffffffffffff821115612ec857612ec7612e32565b5b612ed182612a1d565b9050602081019050919050565b82818337600083830152505050565b6000612f00612efb84612ead565b612e92565b905082815260208101848484011115612f1c57612f1b612e2d565b5b612f27848285612ede565b509392505050565b600082601f830112612f4457612f43612e28565b5b8135612f54848260208601612eed565b91505092915050565b60008060408385031215612f7457612f7361293e565b5b6000612f8285828601612969565b925050602083013567ffffffffffffffff811115612fa357612fa2612943565b5b612faf85828601612f2f565b9150509250929050565b600080fd5b600080fd5b60008083601f840112612fd957612fd8612e28565b5b8235905067ffffffffffffffff811115612ff657612ff5612fb9565b5b60208301915083600182028301111561301257613011612fbe565b5b9250929050565b600080600080606085870312156130335761303261293e565b5b600061304187828801612969565b945050602061305287828801612969565b935050604085013567ffffffffffffffff81111561307357613072612943565b5b61307f87828801612fc3565b925092505092959194509250565b600081519050919050565b600082825260208201905092915050565b6000819050602082019050919050565b60006040830160008301516130d16000860182612a67565b50602083015184820360208601526130e98282612a2e565b9150508091505092915050565b600061310283836130b9565b905092915050565b6000602082019050919050565b60006131228261308d565b61312c8185613098565b93508360208202850161313e856130a9565b8060005b8581101561317a578484038952815161315b85826130f6565b94506131668361310a565b925060208a01995050600181019050613142565b50829750879550505050505092915050565b600060208201905081810360008301526131a68184613117565b905092915050565b600080600080600060a086880312156131ca576131c961293e565b5b60006131d888828901612969565b955050602086013567ffffffffffffffff8111156131f9576131f8612943565b5b61320588828901612f2f565b945050604086013567ffffffffffffffff81111561322657613225612943565b5b61323288828901612f2f565b935050606086013567ffffffffffffffff81111561325357613252612943565b5b61325f88828901612f2f565b925050608086013567ffffffffffffffff8111156132805761327f612943565b5b61328c88828901612f2f565b9150509295509295909350565b60008060008060008060c087890312156132b6576132b561293e565b5b60006132c489828a01612969565b965050602087013567ffffffffffffffff8111156132e5576132e4612943565b5b6132f189828a01612f2f565b955050604087013567ffffffffffffffff81111561331257613311612943565b5b61331e89828a01612f2f565b945050606087013567ffffffffffffffff81111561333f5761333e612943565b5b61334b89828a01612f2f565b935050608087013567ffffffffffffffff81111561336c5761336b612943565b5b61337889828a01612f2f565b92505060a087013567ffffffffffffffff81111561339957613398612943565b5b6133a589828a01612f2f565b9150509295509295509295565b6000602082840312156133c8576133c761293e565b5b600082013567ffffffffffffffff8111156133e6576133e5612943565b5b6133f284828501612f2f565b91505092915050565b60006020820190506134106000830184612c01565b92915050565b600060c08201905061342b6000830189612c01565b818103602083015261343d8188612c21565b905081810360408301526134518187612c21565b905081810360608301526134658186612c21565b905081810360808301526134798185612c21565b905061348860a0830184612dfe565b979650505050505050565b600060e08201905081810360008301526134ad818a612c21565b905081810360208301526134c18189612c21565b905081810360408301526134d58188612c21565b905081810360608301526134e98187612c21565b905081810360808301526134fd8186612c21565b905061350c60a0830185612c01565b61351960c0830184612dfe565b98975050505050505050565b6000806040838503121561353c5761353b61293e565b5b600083013567ffffffffffffffff81111561355a57613559612943565b5b61356685828601612f2f565b925050602061357785828601612969565b9150509250929050565b600060a0820190506135966000830188612c01565b81810360208301526135a88187612c21565b905081810360408301526135bc8186612c21565b905081810360608301526135d08185612c21565b90506135df6080830184612dfe565b9695505050505050565b6000806000606084860312156136025761360161293e565b5b600061361086828701612969565b935050602061362186828701612969565b925050604084013567ffffffffffffffff81111561364257613641612943565b5b61364e86828701612f2f565b9150509250925092565b7f596f75204e65656420546f204c6f6720496e2046697273742100000000000000600082015250565b600061368e601983612c10565b915061369982613658565b602082019050919050565b600060208201905081810360008301526136bd81613681565b9050919050565b7f4e487b7100000000000000000000000000000000000000000000000000000000600052602260045260246000fd5b6000600282049050600182168061370b57607f821691505b60208210810361371e5761371d6136c4565b5b50919050565b7f5573657220646f6573206e6f7420657869737473210000000000000000000000600082015250565b600061375a601583612c10565b915061376582613724565b602082019050919050565b600060208201905081810360008301526137898161374d565b9050919050565b7f596f752061726520416c7265616479204c6f6767656420496e21000000000000600082015250565b60006137c6601a83612c10565b91506137d182613790565b602082019050919050565b600060208201905081810360008301526137f5816137b9565b9050919050565b600081905092915050565b60008190508160005260206000209050919050565b60008154613829816136f3565b61383381866137fc565b9450600182166000811461384e576001811461386357613896565b60ff1983168652811515820286019350613896565b61386c85613807565b60005b8381101561388e5781548189015260018201915060208101905061386f565b838801955050505b50505092915050565b60006138ab828461381c565b915081905092915050565b60006138c1826129d7565b6138cb81856137fc565b93506138db8185602086016129f3565b80840191505092915050565b60006138f382846138b6565b915081905092915050565b7f50617373776f7220446f6573204e6f74204d6174636865642100000000000000600082015250565b6000613934601983612c10565b915061393f826138fe565b602082019050919050565b6000602082019050818103600083015261396381613927565b9050919050565b7f596f757220466972656e6420446f6573204e6f7420526567697374657265642060008201527f57697468205468652053797374656d2100000000000000000000000000000000602082015250565b60006139c6603083612c10565b91506139d18261396a565b604082019050919050565b600060208201905081810360008301526139f5816139b9565b9050919050565b7f596f7520617265206e6f7420667269656e64732077697468207468652067697660008201527f656e207573657221000000000000000000000000000000000000000000000000602082015250565b6000613a58602883612c10565b9150613a63826139fc565b604082019050919050565b60006020820190508181036000830152613a8781613a4b565b9050919050565b60006020601f8301049050919050565b600082821b905092915050565b600060088302613adb7fffffffffffffffffffffffffffffffffffffffffffffffffffffffffffffffff82613a9e565b613ae58683613a9e565b95508019841693508086168417925050509392505050565b6000819050919050565b6000613b22613b1d613b1884612948565b613afd565b612948565b9050919050565b6000819050919050565b613b3c83613b07565b613b50613b4882613b29565b848454613aab565b825550505050565b600090565b613b65613b58565b613b70818484613b33565b505050565b5b81811015613b9457613b89600082613b5d565b600181019050613b76565b5050565b601f821115613bd957613baa81613807565b613bb384613a8e565b81016020851015613bc2578190505b613bd6613bce85613a8e565b830182613b75565b50505b505050565b600082821c905092915050565b6000613bfc60001984600802613bde565b1980831691505092915050565b6000613c158383613beb565b9150826002028217905092915050565b613c2e826129d7565b67ffffffffffffffff811115613c4757613c46612e32565b5b613c5182546136f3565b613c5c828285613b98565b600060209050601f831160018114613c8f5760008415613c7d578287015190505b613c878582613c09565b865550613cef565b601f198416613c9d86613807565b60005b82811015613cc557848901518255600182019150602085019450602081019050613ca0565b86831015613ce25784890151613cde601f891682613beb565b8355505b6001600288020188555050505b505050505050565b6000613d038385612c10565b9350613d10838584612ede565b613d1983612a1d565b840190509392505050565b6000606082019050613d396000830187612c01565b613d466020830186612c01565b8181036040830152613d59818486613cf7565b905095945050505050565b7f5573657220657869737473210000000000000000000000000000000000000000600082015250565b6000613d9a600c83612c10565b9150613da582613d64565b602082019050919050565b60006020820190508181036000830152613dc981613d8d565b9050919050565b7f5573657220616c72656164792065786973747321000000000000000000000000600082015250565b6000613e06601483612c10565b9150613e1182613dd0565b602082019050919050565b60006020820190508181036000830152613e3581613df9565b9050919050565b60006080820190508181036000830152613e568187612c21565b9050613e656020830186612c01565b8181036040830152613e778185612c21565b90508181036060830152613e8b8184612c21565b905095945050505050565b7f56656869636c6520416c72656164792052646769737465726564000000000000600082015250565b6000613ecc601a83612c10565b9150613ed782613e96565b602082019050919050565b60006020820190508181036000830152613efb81613ebf565b9050919050565b7f56656869636c65206973206e6f74205265676973746572656400000000000000600082015250565b6000613f38601983612c10565b9150613f4382613f02565b602082019050919050565b60006020820190508181036000830152613f6781613f2b565b9050919050565b7f557365722063616e6e6f74206164642068696d2f6865722073656c662061732060008201527f667269656e642100000000000000000000000000000000000000000000000000602082015250565b6000613fca602783612c10565b9150613fd582613f6e565b604082019050919050565b60006020820190508181036000830152613ff981613fbd565b9050919050565b7f54686573652075736572732061726520616c726561647920667269656e647321600082015250565b6000614036602083612c10565b915061404182614000565b602082019050919050565b6000602082019050818103600083015261406581614029565b9050919050565b60006040820190506140816000830186612c01565b8181036020830152614094818486613cf7565b9050949350505050565b6000815490506140ad816136f3565b9050919050565b8181036140c257505061419a565b6140cb8261409e565b67ffffffffffffffff8111156140e4576140e3612e32565b5b6140ee82546136f3565b6140f9828285613b98565b6000601f8311600181146141285760008415614116578287015490505b6141208582613c09565b865550614193565b601f19841661413687613807565b965061414186613807565b60005b8281101561416957848901548255600182019150600185019450602081019050614144565b868310156141865784890154614182601f891682613beb565b8355505b6001600288020188555050505b5050505050505b565b7f4e487b7100000000000000000000000000000000000000000000000000000000600052603260045260246000fd5b7f4e487b7100000000000000000000000000000000000000000000000000000000600052601160045260246000fd5b600061420582612948565b91507fffffffffffffffffffffffffffffffffffffffffffffffffffffffffffffffff8203614237576142366141cb565b5b600182019050919050565b7f557365722063616e6e6f74207472616e73666572207468652076656869636c6560008201527f2064617461206f6e206869732f686572206163636f756e742100000000000000602082015250565b600061429e603983612c10565b91506142a982614242565b604082019050919050565b600060208201905081810360008301526142cd81614291565b9050919050565b7f4f746865722055736572204973204e6f74205265676973746572656421000000600082015250565b600061430a601d83612c10565b9150614315826142d4565b602082019050919050565b60006020820190508181036000830152614339816142fd565b9050919050565b7f56656869636c6520596f752041726520547279696e6720546f205472616e736660008201527f6572206973204e6f742052656769737465726564210000000000000000000000602082015250565b600061439c603583612c10565b91506143a782614340565b604082019050919050565b600060208201905081810360008301526143cb8161438f565b9050919050565b7f56656869636c6520596f752041726520547279696e6720546f205472616e736660008201527f6572206973204e6f742052656769737465726564205769746820596f75210000602082015250565b600061442e603e83612c10565b9150614439826143d2565b604082019050919050565b6000602082019050818103600083015261445d81614421565b9050919050565b6000819050919050565b61447f61447a82612948565b614464565b82525050565b6000614491828561446e565b6020820191506144a1828461446e565b602082019150819050939250505056fea2646970667358221220f637a2c9b5719dc1eaa4c1ed3aea157751c122ee6404ab0b05eef8830d1bdec664736f6c63430008110033",
  "immutableReferences": {},
  "source": "// SPDX-License-Identifier: MIT\r\npragma solidity >=0.7.0 <0.9.0;\r\n\r\ncontract BCar {\r\n    /**\r\n     * ! I might need to add public Key 'ACCOUNT ADDRESS' of users\r\n     */\r\n\r\n    // Chat Module /, Vehicle Moduel\r\n    /**\r\n     *? User=> :SignUp /, :LogIn/, :LogOut /, :getUserInfo, :getFriendsList /\r\n     */\r\n\r\n    struct User {\r\n        uint256 u_nic;\r\n        string u_name;\r\n        string u_contact;\r\n        string u_address;\r\n        string u_password;\r\n        bool isLoggedIn;\r\n        Friend[] friendList;\r\n    }\r\n\r\n    //  event is a log creates on trigger.\r\n    event userSignedUp(string _nam, uint256 _nic, string u_cont, string u_pass);\r\n    event LogoutUser(bool isUserLoggedIn);\r\n\r\n    mapping(uint256 => User) public userList;\r\n\r\n    function signUp(\r\n        uint256 _nic,\r\n        string memory _nam,\r\n        string memory _cont,\r\n        string memory _addr,\r\n        string memory _pass\r\n    ) public returns (bool) {\r\n        require(!isUserExist(_nic), \"User already exists!\");\r\n\r\n        userList[_nic].u_nic = _nic;\r\n        userList[_nic].u_name = _nam;\r\n        userList[_nic].u_contact = _cont;\r\n        userList[_nic].u_address = _addr;\r\n        userList[_nic].u_password = _pass;\r\n        userList[_nic].isLoggedIn = true;\r\n\r\n        emit userSignedUp(_nam, _nic, _cont, _pass);\r\n\r\n        return true;\r\n    }\r\n\r\n    function LogIn(uint256 _nic, string memory _pass) public returns (bool) {\r\n        require(isUserExist(_nic), \"User does not exists!\");\r\n        require(!isLoggedIn(_nic), \"You are Already Logged In!\");\r\n        require(\r\n            keccak256(abi.encodePacked(_pass)) ==\r\n                keccak256(abi.encodePacked(userList[_nic].u_password)),\r\n            \"Passwor Does Not Matched!\"\r\n        );\r\n        return userList[_nic].isLoggedIn = true;\r\n    }\r\n\r\n    function LogOut(uint256 _nic) public returns (bool) {\r\n        require(isLoggedIn(_nic), \"You Need To Log In First!\");\r\n        emit LogoutUser(false);\r\n        return userList[_nic].isLoggedIn = false;\r\n    }\r\n\r\n    function getUserInfo(uint256 _nic) public view returns (uint256, string memory, string memory, string memory,bool) {\r\n        require(isUserExist(_nic), \"User does not exists!\");\r\n        return (\r\n            userList[_nic].u_nic,\r\n            userList[_nic].u_name,\r\n            userList[_nic].u_contact,\r\n            userList[_nic].u_address,\r\n            userList[_nic].isLoggedIn\r\n            );\r\n    }\r\n\r\n    function getFriendsList(uint256 _nic)\r\n        external\r\n        view\r\n        returns (Friend[] memory)\r\n    {\r\n        require(isUserExist(_nic), \"User exists!\");\r\n        require(isLoggedIn(_nic), \"You Need To Log In First!\");\r\n\r\n        return userList[_nic].friendList;\r\n    }\r\n\r\n    /**\r\n     *? Friends=> :addNewFriend /, :checkAlreadyFriends /, :LoopOnFriend /\r\n     */\r\n\r\n    // Each friend is identified by its address and name assigned by the second party\r\n    struct Friend {\r\n        uint256 f_nic;\r\n        string f_name;\r\n    }\r\n\r\n    event AddFriend(uint256 friend_key, string name);\r\n\r\n    mapping(uint256 => Friend) public friendList;\r\n\r\n    function addNewFriend(\r\n        uint256 _nic,\r\n        uint256 f_nic,\r\n        string calldata f_name\r\n    ) external {\r\n        require(isLoggedIn(_nic), \"You Need To Log In First!\");\r\n        require(isUserExist(f_nic), \"Your Firend Does Not Registered With The System!\");\r\n        require(_nic != f_nic, \"User cannot add him/her self as friend!\");\r\n        require(\r\n            areFriends(_nic, f_nic) == false,\r\n            \"These users are already friends!\"\r\n        );\r\n\r\n        _addFriend(_nic, f_nic, f_name);\r\n        _addFriend(f_nic, _nic, userList[_nic].u_name);\r\n        emit AddFriend(f_nic, f_name);\r\n    }\r\n\r\n    function areFriends(uint256 _nic, uint256 f_nic)\r\n        public\r\n        view\r\n        returns (bool)\r\n    {\r\n        // if the list of user is greater then the list of friend\r\n        if (\r\n            userList[_nic].friendList.length > userList[f_nic].friendList.length\r\n        ) {\r\n            uint256 tmp = _nic;\r\n            _nic = f_nic;\r\n            f_nic = tmp;\r\n        }\r\n        // the loop will run on bigger list\r\n        for (uint256 i = 0; i < userList[_nic].friendList.length; i++) {\r\n            if (userList[_nic].friendList[i].f_nic == f_nic) return true;\r\n        }\r\n        return false;\r\n    }\r\n\r\n    // A helper function to update the friendList\r\n    function _addFriend(\r\n        uint256 me,\r\n        uint256 friend_key,\r\n        string memory name\r\n    ) internal {\r\n        // create new object of type friend\r\n        Friend memory newFriend = Friend(friend_key, name);\r\n        // add newly created obj to friend list of user\r\n        userList[me].friendList.push(newFriend);\r\n    }\r\n\r\n    /**\r\n     *? Messages' Funcions=> :\r\n     */\r\n\r\n    // message construct stores the single chat message and its metadata\r\n    struct message {\r\n        // address sender;\r\n        uint256 sender_nic;\r\n        uint256 timestamp;\r\n        string msg;\r\n    }\r\n\r\n    event SendMessage(uint256 sender_key, uint256 friend_key, string msg);\r\n\r\n    // Collection of messages communicated in a channel between two users\r\n    mapping(bytes32 => message[]) allMessages; // key : Hash(user1,user2)\r\n\r\n    // Returns a unique code for the channel created between the two users\r\n    // Hash(key1,key2) where key1 is lexicographically smaller than key2\r\n    // function _getChatCode(address pubkey1, address pubkey2) internal pure returns(bytes32) {\r\n    function _getChatCode(uint256 _nic, uint256 f_nic)\r\n        internal\r\n        pure\r\n        returns (bytes32)\r\n    {\r\n        if (_nic < f_nic) return keccak256(abi.encodePacked(_nic, f_nic));\r\n        else return keccak256(abi.encodePacked(f_nic, _nic));\r\n    }\r\n\r\n    // Sends a new message to a given friend\r\n    function sendMessage(\r\n        uint256 _nic,\r\n        uint256 f_nic,\r\n        string calldata _msg\r\n    ) external {\r\n        require(isLoggedIn(_nic), \"You Need To Log In First!\");\r\n        require(\r\n            isUserExist(f_nic),\r\n            \"Your Firend Does Not Registered With The System!\"\r\n        );\r\n        require(\r\n            areFriends(_nic, f_nic) == true,\r\n            \"You are not friends with the given user!\"\r\n        );\r\n        bytes32 chatCode = _getChatCode(_nic, f_nic);\r\n        message memory newMsg = message(_nic, block.timestamp, _msg);\r\n        allMessages[chatCode].push(newMsg);\r\n        emit SendMessage(_nic, f_nic, _msg);\r\n    }\r\n\r\n    // Returns all the chat messages communicated in a channel\r\n    function readMessage(uint256 _nic, uint256 f_nic)\r\n        external\r\n        view\r\n        returns (message[] memory)\r\n    {\r\n        bytes32 chatCode = _getChatCode(_nic, f_nic);\r\n        return allMessages[chatCode];\r\n    }\r\n\r\n    /**\r\n    *? Vehicles => :addNewVehicle /, :isVehicleRegistered /, :getVehicleInfo /, :_addVehicle /\r\n    * *_addVehicle is used to link vehicle with user\r\n    *! vehilce will be tracked through engin no. \r\n    *! I have been triying to track a vehicle both on its engin and vehicle no. But don't know why code was misbehaving. \r\n     */\r\n\r\n    struct Vehicle{\r\n        string e_no;\r\n        string v_no;\r\n        string company;\r\n        string modal;\r\n        string year;\r\n        uint256 owner_id;\r\n        bool reg_with_owner;\r\n    }\r\n\r\n    mapping(string => Vehicle) public vehicleList;\r\n\r\n    event newVehicleAdded(string e_no, string v_no, string company, string modal, string year, uint256 owner_id, bool reg_with_owner);\r\n    \r\n    function addNewVehicle(uint256 _nic, string memory e_no, string memory v_no, string memory company, string memory modal, string memory year) public returns(bool){\r\n        require(isLoggedIn(_nic), \"You Need To Log In First!\");\r\n        require(!isVehicleRegistered(e_no), \"Vehicle Already Rdgistered\");\r\n  \r\n        vehicleList[e_no].e_no = e_no;\r\n        vehicleList[e_no].v_no = v_no;\r\n        vehicleList[e_no].company = company;\r\n        vehicleList[e_no].modal = modal;\r\n        vehicleList[e_no].year = year;\r\n        vehicleList[e_no].owner_id = _nic;\r\n        vehicleList[e_no].reg_with_owner = true;\r\n\r\n        \r\n        emit newVehicleAdded(e_no, v_no, company, modal, year, _nic, true);\r\n        _addVehicle(_nic, e_no);\r\n\r\n        return true;\r\n\r\n    }\r\n\r\n    function getVehicleInfo(string memory e_no) public view returns (string memory, string memory, string memory, string memory, string memory, uint256, bool) {\r\n        require(isVehicleRegistered(e_no), \"Vehicle is not Registered\");\r\n        return (\r\n            vehicleList[e_no].e_no,\r\n            vehicleList[e_no].v_no,\r\n            vehicleList[e_no].company,\r\n            vehicleList[e_no].modal,\r\n            vehicleList[e_no].year,\r\n            vehicleList[e_no].owner_id,\r\n            vehicleList[e_no].reg_with_owner\r\n        );\r\n    }\r\n\r\n    /**\r\n     *? userVehicles functions =>  :_addVehicle /, :getUserVehicles /, :transferVehicle /\r\n     ** _addVehicle is a helper funtion to add vehilce to the user. \r\n     */\r\n\r\n    struct UserVehicles {\r\n        uint256 user_id;\r\n        Vehicle[] vehicles_data;\r\n    }\r\n\r\n    mapping (uint256=>UserVehicles) public userVehicles;\r\n\r\n    function _addVehicle(uint256 _nic, string memory e_no) public {\r\n        userVehicles[_nic].vehicles_data.push(vehicleList[e_no]);\r\n    }\r\n\r\n    function getUserVehicles(uint256 _nic) external view returns (Vehicle[] memory){\r\n        require(isLoggedIn(_nic), \"You Need To Log In First!\");\r\n\r\n        return userVehicles[_nic].vehicles_data;\r\n    }\r\n\r\n    function transferVehicle(uint256 _nic, uint256 n_nic, string memory e_no) public {\r\n        require(isLoggedIn(_nic), \"You Need To Log In First!\");\r\n        require(_nic != n_nic, \"User cannot transfer the vehicle data on his/her account!\");\r\n        require(isUserExist(n_nic), \"Other User Is Not Registered!\");\r\n        require(isVehicleRegistered(e_no), \"Vehicle You Are Trying To Transfer is Not Registered!\");\r\n        require(isVehicleRegisteredWithTheUser(e_no, _nic), \"Vehicle You Are Trying To Transfer is Not Registered With You!\");\r\n\r\n        // complex code\r\n        // on following line vehicle will be transfered to new user. \r\n        _addVehicle(n_nic, e_no);\r\n        // turn current user's status to false\r\n        for (uint256 i = 0; i < userVehicles[_nic].vehicles_data.length; i++) {\r\n            if(keccak256(abi.encodePacked(userVehicles[_nic].vehicles_data[i].e_no)) == keccak256(abi.encodePacked(e_no)) && userVehicles[_nic].vehicles_data[i].reg_with_owner == true){\r\n                userVehicles[_nic].vehicles_data[i].reg_with_owner = false;\r\n                vehicleList[e_no].owner_id = n_nic;\r\n                break;\r\n            }\r\n        }\r\n        \r\n    }\r\n\r\n    /**\r\n     *? general purpose functions =>  :Loop, :isUserExists/, :isLoggedIn/, :isVehicleExists /\r\n     */\r\n\r\n    function isUserExist(uint256 _nic) public view returns (bool) {\r\n        return bytes(userList[_nic].u_name).length > 0;\r\n    }\r\n\r\n    function isLoggedIn(uint256 _nic) public view returns (bool) {\r\n        return userList[_nic].isLoggedIn;\r\n    }\r\n\r\n    function isVehicleRegistered(string memory e_no) public view returns (bool) {\r\n        return vehicleList[e_no].reg_with_owner;\r\n    }\r\n\r\n    function isVehicleRegisteredWithTheUser(string memory e_no, uint256 _nic) public view returns (bool) {\r\n        return vehicleList[e_no].owner_id == _nic;\r\n    }\r\n    \r\n}",
  "sourcePath": "C:\\xampp\\htdocs\\my_working_dir\\block-chain\\bcar1.0\\contracts\\BCar.sol",
  "compiler": {
    "name": "solc",
    "version": "0.8.17+commit.8df45f5f.Emscripten.clang"
  },
  "schemaVersion": "3.4.10",
  "updatedAt": "2022-12-13T15:01:32.514Z",
  "networkType": "ethereum",
  "devdoc": {
    "kind": "dev",
    "methods": {},
    "version": 1
  },
  "userdoc": {
    "kind": "user",
    "methods": {
      "isUserExist(uint256)": {
        "notice": "? general purpose functions =>  :Loop, :isUserExists/, :isLoggedIn/, :isVehicleExists /"
      }
    },
    "version": 1
  }
}